:020000040800F2
:10000000F00600206501000895160008211600087A
:1000100000000000000000000000000000000000E0
:100020000000000000000000000000002918000887
:100030000000000000000000811700088D19000872
:100040009501000895010008950100089501000838
:10005000950100089501000895010008211300088A
:1000600000000000950100089501000895010008B6
:10007000950100082F1B00089501000800000000F2
:100080009501000895010008000000002D1B0008E4
:1000900095010008950100089501000895010008E8
:1000A00095010008950100089501000895010008D8
:1000B0009501000800000000000000009501000804
:1000C00000F002F800F03EF80CA030C80838241800
:1000D0002D18A246671EAB4654465D46AC4201D180
:1000E00000F030F87E460F3E0FCCB6460126334274
:1000F00000D0FB1AA246AB463343184790280000B5
:10010000B0280000103A02D378C878C1FAD8520754
:1001100001D330C830C101D504680C6070470000BD
:100120000023002400250026103A01D378C1FBD813
:10013000520700D330C100D50B6070471FB51FBDFB
:1001400010B510BD00F0A8FD1146FFF7F7FF01F054
:100150008DFF00F0C0FD03B4FFF7F2FF03BC00F019
:10016000F5FD00000F4880F308880F480168090E6C
:100170000E4A914205D10E480E4901600E480F49C2
:1001800001600F4880470F480047FEE7FEE7FEE7A3
:10019000FEE7FEE7FEE700000B480C490C4A0D4B5A
:1001A00070470000F0060020040000001F0000005F
:1001B0001810024001000000000001400000000093
:1001C000611A0008C1000008F0000020F0060020BD
:1001D000F0020020F0020020002203098B422CD301
:1001E000030A8B4211D300239C464EE003460B4387
:1001F0003CD4002243088B4231D303098B421CD3E9
:10020000030A8B4201D394463FE0C3098B4201D3DA
:10021000CB01C01A524183098B4201D38B01C01A12
:10022000524143098B4201D34B01C01A5241030989
:100230008B4201D30B01C01A5241C3088B4201D338
:10024000CB00C01A524183088B4201D38B00C01AE5
:10025000524143088B4201D34B00C01A5241411A0C
:1002600000D201465241104670475DE0CA0F00D0EF
:100270004942031000D34042534000229C460309E8
:100280008B422DD3030A8B4212D3FC22890112BA6E
:10029000030A8B420CD3890192118B4208D3890146
:1002A00092118B4204D389013AD0921100E089095E
:1002B000C3098B4201D3CB01C01A524183098B423F
:1002C00001D38B01C01A524143098B4201D34B0128
:1002D000C01A524103098B4201D30B01C01A52418B
:1002E000C3088B4201D3CB00C01A524183088B4212
:1002F00001D38B00C01A5241D9D243088B4201D39B
:100300004B00C01A5241411A00D201466346524185
:100310005B10104601D34042002B00D54942704784
:1003200063465B1000D3404201B50020C046C04682
:1003300002BD704770477047F0B5F94D0C091E09B2
:100340002C402E402F468BB0A7437DD0B543FCD028
:10035000002E7AD0002CFCD00D465D40ED0F2543D9
:10036000AC1BFF25AD0464190894C502440DC902F5
:100370002143500DDC0204430120C0070143044324
:10038000D2020191200C110C00958C4601042346E9
:100390008B430A9161460904E24D8A430991010A9F
:1003A0007D4449198039097805464D4301266D1869
:1003B000F605751B6943C90C640B891C4C43641812
:1003C000B5012C1B250C2E04B4434C434D43210C8A
:1003D000691889090591009DE90701D00121C90724
:1003E00004912C4601996708CD072F434C08059DC1
:1003F000E10B4D432D0C29466646754302950D468B
:1004000045432E46029D7D1BB44100950D465D433C
:1004100001942C0C2F040D465543AE462D0C3D4344
:10042000029503947546049C2D04641B049406D223
:10043000029C039D641C002675410395029401AC47
:1004400070CC009F7D1B01E03EE162E1B4410904F4
:100450000095079101940599A4086143090C0C4685
:100460004443650BE7040C4666467443A646640B9A
:100470003C43039502947446049DE4042C1B0494AD
:1004800006D2029C039D641C0026754103950294CC
:1004900001AC70CC009F7D1BB44101940C465C43C1
:1004A0000095650FE7000C465443A646640F3C4395
:1004B000039502947446049DE4002C1B049406D218
:1004C000029C039D641C002675410395029401ACB7
:1004D00070CC009F7D1BB441AE09AF06049DC900DE
:1004E000AD092F43049DA406AD060495079D344332
:1004F00069180791059DE10B4D432D0C2946664671
:10050000754302950D4645432E46029D7D1BB44121
:1005100000950D465D4301942C0C2F040D46554368
:10052000AE462D0C3D43029503947546049C2D0464
:10053000641B049406D2029C039D641C0026754132
:100540000395029401AC70CC009F7D1BB4410194D3
:100550008C050694079C890A611800950791019CF7
:100560000599A4086143090C0D464543680BEF0447
:100570000D46644665436C0B3C43049FED047D1BB4
:10058000AC4602D20025641C6841009E019D371BC9
:1005900085410846584301950C46460FC500544313
:1005A000600F28436546E4002C1B02D20025401C46
:1005B0006E41019D3F1AB5412846BD09800628437A
:1005C0008446A009BF064E020699A4067618074382
:1005D000079D002068410A99079019430020099B54
:1005E00000906046FF1913434041E20F64003A4314
:1005F000A4460446D71A8C41A04203D9012000909A
:1006000020463A46C70F941840416246D20F224313
:10061000644664000494009CBE466400D71AA44655
:10062000044602978C417746002F01D1A04204D99D
:100630006046401C8446029A2046C40FA646941881
:100640004041049A0546D20F224364466400D31AFF
:100650008D417146002901D1A84202D928461A4687
:10066000641C10430122002800D0164361020020C0
:10067000079B891904465C410223002C02DB4918C0
:1006800013466441089DCE0A2D145D194B0567057C
:10069000E10A2C050D1908993E43C9076940002B52
:1006A00008D0934006D30022761C5141002B01D183
:1006B000760876001C4A002D43DB154241D0AA4340
:1006C0003FD030460BB0F0BD06180D464D41174CDB
:1006D0007642AC411AD395181C465C41134A6D42D0
:1006E000A24113D3012252054C00D4420AD15C002E
:1006F000D4420BD04B4002D592021143E2E74900AD
:100700004908DFE75940C90FC90718E00020084928
:10071000D8E7054801420DD10342F7D0F2E70000C7
:100720000000FF07282500000000F07F0000E0FF28
:100730000000F87F114859400143C0124140002099
:10074000C0E70123089A9B069A4205DC0322520760
:100750008918C90FC907B5E7052252078918074A42
:100760001143D2125140ADE770B515461C46024602
:100770000B4628462146FFF7DFFD70BDFFFFFF7FD8
:1007800030B50346CA02400D1043164D164C0A15EB
:1007900002D02043002A06DBAA1A002A12DDD0402C
:1007A000FF2A0BDC30BD5205520D01D1400040083C
:1007B000AA1A07D4D0404042FF2A01DD002030BDF4
:1007C0000028FCDD4A00002B01D0012000E00020C1
:1007D000101801225205D042F0D8C817C04360401B
:1007E00030BD00001E04000000000080F0B58B4CFE
:1007F0000F09254689B0BD437BD01D092646AE436F
:10080000FAD00E465E402740F60F3E43254071D099
:1008100024012142FBD0FF24AD19A4042D1B039514
:1008200001252D05DB02DB0AC9022B43C90A294336
:100830001E010901040F130F050121431701880B45
:10084000820391432D098C46A90B1E438A039543CD
:10085000B30B9A0396433F09BA0B9403A74302963E
:100860002E467E430497B6464E19D7190C4601967C
:10087000544305977E43371B7646BF1B3601B64669
:10088000BE0B361900967646BC043719009C01D37E
:10089000641C00946400002F01D001263443029EA2
:1008A000049F754366467E430496760034196E00B5
:1008B00034190094029C019E1C196643751BAE46B8
:1008C000069465464519059C05956C435943754644
:1008D0000891691A0191049E01465143A41B049199
:1008E000611A009C0791E10605D0610901221143BC
:1008F00002E072E06EE06109089D00272C0A2D06D7
:100900006918049D7C412A0A2D066918019D6241DF
:10091000AC0DAD026D185441079A910D9202551914
:100920006141029A644658435443069B059A5A43D0
:10093000121A131B9A0E9B015B187A41010B0005DA
:10094000C3185141220A200644195A419A4200D242
:10095000491C01204002814203D315230226F6439D
:1009600002E014230326F6432020C51AA9401746A7
:10097000AF40DA400A4320460399D840091473185F
:1009800019055118039A3843D2075140AC4009D099
:100990000122944006D30022401C5141002C01D179
:1009A000400840001E4A934212D301220398920647
:1009B000904207DB0520400709181A480143C0127E
:1009C000414004E0032040070818C10FC907002078
:1009D00009B0F0BD0020F107FAE705180C464C41BC
:1009E00011486D42A04115D394181A465A410E4839
:1009F000644290410ED301204A004005824209D34F
:100A00005A00824206D35940C90F084AC90700203C
:100A10001143DDE700200649DAE700000000FF0788
:100A2000FE070000FFFFFF7F0000E0FF0000F07FF7
:100A30000000F87FF0B5FF252D04C609C209FF2785
:100A400004462E400137CB093E4348402A402B4004
:100A50000746002A6BD0002B69D0AA4267D0AB4270
:100A600065D0002800DA32460125ED0529432C43E4
:100A700009022002090AD21A4B0C7F24E31A434CC4
:100A8000000A7C44E35C7D242404121914145B00E6
:100A9000A218884201D3521C00E0400049420C4693
:100AA0005C4324115C43DB016415E318040A5C43D6
:100AB000C502200D0C4644436419250A5D432303F7
:100AC000EC0C0D46654300030019EB184C42A342A1
:100AD00001D35B18401CD4052018002B07D05B0005
:100AE000C91804D3401C002901D1400840003F210F
:100AF00089048A4209D3002A08DC1106090F04D0B0
:100B0000032149074018C00FC007F0BD0122410072
:100B1000120689187F2252069142F6D20521490712
:100B2000C84201D59010F0BDFF20C005F0BD002FD8
:100B300000DA32461648AA4207D2AB4205D2190261
:100B4000090E17D0F80FC007F0BDFF2563002D0672
:100B5000AB42F9D84900A942F6D8AB4201D1A9422B
:100B6000F2D0A94201D1002101E061004908D0057D
:100B70000843F0BD1102090EFBD0FF200243D0054F
:100B8000F0BD0A460146104654E70000C61E0000AC
:100B90000000C07F1F22030C02D10F2200041CD0D2
:100BA000030E01D10002083A030F01D10001121F08
:100BB000830F01D18000921E002801DB4000521EED
:100BC000D2055118021251181922904004D3491C21
:100BD000002801D14908490008467047C10FC907DC
:100BE00000D04042012292071143D3E70121890737
:100BF000D0E7000010B5FF231B0644009C421DD81F
:100C00004C009C421AD80346124A0B4307D4401AA0
:100C100002D3EFF3008010BDEFF3008010BD081A7F
:100C200006D2EFF3008001219043C907084302E098
:100C3000EFF30080904380F3008810BD0D231B0468
:100C40001A4204D01146002000F006F810BD00F052
:100C50001BF810BD00000090C80212D54803400FD9
:100C6000002804D0C803C043012188407047EFF337
:100C700000800001000903210907084380F3008870
:100C8000704700207047000010B5024800F02BF8B4
:100C900010BD00000000C07F754600F053F8AE465E
:100CA000050069465346C008C000854618B020B507
:100CB000FFF772FA60BC00274908B6460026C0C597
:100CC000C0C5C0C5C0C5C0C5C0C5C0C5C0C5403D04
:100CD00049008D46704710B50446C046C0462046C0
:100CE000FFF739FA10BD10B50C461107090F092995
:100CF00004D00A290AD008290CD104E011460820A2
:100D0000FFF7AAFF06E0510606D501E0510601D51E
:100D10000120C007214610BDD10607D501010909F0
:100D2000CC084907000E0006044309E0410F2002E9
:100D30004907000A0143200E00061D22D14101434C
:100D40000846E7E7004870478C000020014918205A
:100D5000ABBEFEE7260002007047002001E0411C08
:100D600088B20128FBDB704770B504460D46294662
:100D7000204600F0B9FA70BD10B5044601212046A6
:100D8000FFF7F2FF0121204600F005F8012120467F
:100D900000F009F810BD70B504460D4629462046FE
:100DA00000F0A2FA70BD70B504460D4629462046F3
:100DB00000F09AFA70BD70B506460C460025012178
:100DC0003046FFF7E8FF01213046FFF7CDFF002155
:100DD0003046FFF7C9FF00BF1CE00120C0032040E0
:100DE000002804D001213046FFF7DDFF03E0002199
:100DF0003046FFF7D8FFFFF7B0FF00213046FFF77E
:100E0000CAFFFFF7AAFF01213046FFF7C4FF6400C5
:100E1000681CC5B2102DE0DB01213046FFF7A4FFAE
:100E200070BD0000F0B51FB486B014461D461F49C2
:100E30001F480291039026462F4600221D4B304644
:100E40003946FFF779FA06460F4630463946039B86
:100E5000029AFFF7CBFC06460F4630463946FFF7AD
:100E60008FFC01900198059005988004800C0590F6
:100E700001988013049004988004800C04900799D2
:100E80000598084305900799049808430490212188
:100E900009020698FFF78FFF05990698FFF78BFF69
:100EA00004990698FFF787FF0BB0F0BDCE98ED7858
:100EB0000826774180842E41F8B507460C46154632
:100EC000264630462843064631463846FFF773FF2C
:100ED000F8BDFFB581B00C4615461E4600273846C2
:100EE000204328433043074639460198FFF763FF04
:100EF00005B0F0BDF0B51FB40C460A9FFF210131CB
:100F00000098FFF758FFA1B2039B029A0098FFF7E1
:100F100089FF0B9882B2B9B20098FFF7CDFF01208C
:100F20008003844201D1002501E00125ED02032068
:100F30008003874201D1002601E00126B602334634
:100F40002A460C990098FFF7C4FF05B0F0BD10B514
:100F50000B460021846A1C43846200BF0C46144384
:100F60002146416110BD002904D0826801231A4343
:100F7000826003E0826802231A438260704700297E
:100F800004D0C26801231A43C26003E0C268520859
:100F90005200C2607047C26802239A43C260C268AE
:100FA0000A43C2607047000000B593B0394800F0B2
:100FB00077F80121480400F0E5FB0121480200F028
:100FC00001FC03200B90032108A801740021C174C7
:100FD0000BA90920C00600F0A9FA0DA800F0C1F87D
:100FE00000200D90012108A8017600200F9011909B
:100FF000042012900DA9274800F098F8052201213D
:101000002448FFF7A4FF052202212248FFF79FFF93
:10101000204800F055F802211E48FFF7BCFF0121CF
:101020001C48FFF7ACFF01211A48FFF79CFF00BFE7
:101030000121184800F062F80028F9D00121084683
:1010400000F0A0FB144800F0ADF8124840300090CA
:10105000124801900020029002200390002004908A
:101060008020059040000690800007902020089086
:101070000002099000200A906946074800F0F6F83F
:101080000121054800F080F8024800F065F813B02F
:1010900000BD0000002401400800024010000020B4
:1010A00010B504460548844207D10121401500F0DF
:1010B00099FB0021601500F095FB10BD0024014054
:1010C00030B501460020002200238C680125ED0781
:1010D0002C438C6000BF8C68E30FDB07521C0F248D
:1010E0002403A24201D0002BF5D18C68E40FE40761
:1010F000002C01D1086C00E0002030BD30B5024664
:1011000000200023012424060C40002C05D0946804
:1011100001252D06AC43234600E013681C460C4015
:10112000002C01D0012000E0002030BD10B50022CD
:10113000C268084B1A400C7964030B6823438C681F
:101140002343CC6823430C6923434C6923431A434C
:10115000C26010BD03D2FFFF816804221143816089
:1011600070470021016001718160C16001614161CE
:1011700070470000012109070140002901D1014900
:101180004860704700000240002904D00268012333
:101190001A43026003E00268014B1A400260704784
:1011A000FEFF00000168254A114001600021016036
:1011B00041608160C1602249884208D120490839D4
:1011C00049680F2211431E4A083A516035E01C4914
:1011D0001431884208D11A4908394968F02211436C
:1011E000174A083A516028E015492831884209D148
:1011F0001349083949680F2212021143104A083A6C
:1012000051601AE00E493C31884209D10C49083935
:1012100049680F2212031143094A083A51600CE051
:1012200007495031884208D10549083949680F22D9
:1012300012041143024A083A51607047FEFF000051
:101240000800024001460020002201231B070B403A
:10125000002B01D1044B1A6813460B40002B01D020
:10126000012000E0002070470000024010B500227D
:1012700002680D4B1A400C6A8B6823430C692343A8
:101280004C6923438C692343CC6923434C6A234331
:101290008C6A23431A430260CB6843600B68836007
:1012A0004B68C36010BD00000F80FFFF01B504490B
:1012B0000098086000BF024800680028FBD108BD04
:1012C0001C000020F8B50446E00006490E58E00076
:1012D000401887883946304600F092F9054628467E
:1012E000F8BD000020000020F8B504460D46E000DF
:1012F00005490E58E000401887882A46394630468E
:1013000000F088F9F8BD00002000002070B5054607
:101310000C46024801682046884770BDC028000876
:1013200010B5102000F042F8002810D018480068CE
:10133000FF21F531884206D9012016490870FF20A7
:10134000F53013490860102000F02AF804E000206E
:10135000104908700E490860202000F027F8002886
:1013600010D00D480068FF21F531884206D90120D0
:101370000A490870FF20F53007490860202000F076
:101380000FF804E00020054908700349086010BD0B
:1013900000000020080000200400002009000020B8
:1013A00001494861704700000004014001460020E7
:1013B000044A52690A40002A01D0012000E00020BE
:1013C0007047000000040140002120498279002A72
:1013D00035D00A46126803689A430B461A600A46DB
:1013E000526803689A430B465A60027951180A689A
:1013F00003681A430A60154A926803689A43134BBC
:101400009A601A46D26803689A43104BDA604279B0
:10141000102A0CD11A46926803681A430B4B9A6043
:101420001A46D26803681A43084BDA600DE0074990
:10143000427951180A6803681A430A6005E0027984
:1014400051180A6803689A430A6070470004014013
:1014500000B585B00121480400F094F90121084647
:1014600000F0B0F93020039000216846017401219A
:10147000C17403A90920C00600F058F80421002017
:1014800000F0D4F90521002000F0D0F930200190BF
:101490000021684601720C2141720121817201A86C
:1014A000FFF792FF0721684601700021417001217A
:1014B000817000F0F1F805B000BD00001CB50121FD
:1014C0000320400400F05EF91548009001216846B1
:1014D000017100218171032141710021C1716946AF
:1014E0000920C00600F022F8E8200090012168469B
:1014F000017100218171032141710021C17169468F
:10150000084800F013F8084800900021684601716F
:101510000121C1716946034800F008F81CBD0000B4
:101520008C0600000004004801030000F0B50A46E4
:1015300000210023002400BF3DE001258D402B4603
:1015400015681D402C469C4234D11579012D02D0DE
:101550001579022D16D185684F000326BE40B5438C
:10156000856055794E00B54086683543856085882D
:1015700001268E40B5438580858896798E40B6B227
:101580003543858005684F000326BE40B54305609E
:1015900015794E00B540066835430560C5684F00B3
:1015A0000326BE40B543C560D5794E00B540C66838
:1015B0003543C560491C1029BFD3F0BDF0B50023E9
:1015C00000244D07EE0E1546B5402B46CD10AE005B
:1015D00005462035AD594E07F70E0F26BE40B543E0
:1015E000CE10B60007462037BD51CD10AE003D46A7
:1015F000AD591D432C46CD10AD003E467451F0BD93
:1016000002460020138A0B40002B01D0012000E08D
:1016100000207047002A01D0816100E001857047F9
:1016200000BFFEE710B5084800F02EF8032000F0D8
:101630001FF8064909684902080C00F01FF800F07D
:101640000FF800F005F810BD5555000018000020F7
:101650000148024908607047CCCC000000300040CF
:101660000148024908607047AAAA00000030004003
:10167000014948607047000000300040014988601F
:1016800070470000003000400149086070470000CA
:10169000003000407047000000218278002A27D0E7
:1016A000184A03231B02D21803789B109B00D158C1
:1016B00002789207D30EFF229A400B4693431946B5
:1016C00042789207120E03789B07DB0E9A40114373
:1016D0000C4A03231B02D21803789B109B00D150A5
:1016E0000278D306DB0E01229A40064B1A6007E00F
:1016F0000278D306DB0E01229A40024B80331A6037
:101700007047000000E100E010B5002819DA1A4A1D
:1017100003071B0F083B9B089B00D2588307DC0E76
:10172000FF23A3409A438B071B0E8407E40EA340BC
:101730001A43114B0407240F083CA408A4001A51B3
:1017400018E00E4A03231B02D21883089B00D258CC
:101750008307DC0EFF23A3409A438B071B0E8407ED
:10176000E40EA3401A43054B032424021B198408EA
:10177000A4001A5110BD00001CED00E000E100E0E3
:1017800070470000002905D0054A52690243044B06
:101790005A6104E0024A52698243014B5A61704720
:1017A00000100240002905D0054AD2690243044BCB
:1017B000DA6104E0024AD2698243014BDA61704780
:1017C00000100240002905D0054A92690243044BEB
:1017D0009A6104E0024A92698243014B9A61704720
:1017E00000100240002905D0054AD2680243044B8C
:1017F000DA6004E0024AD2688243014BDA60704743
:1018000000100240002806D00649496A012211430F
:10181000044A516205E00349496A49084900014AFE
:1018200051627047001002407047000030B500223E
:101830008B071C0F0F23A3401A460B4B8C10A400E0
:101840001B599343084C8D10AD00635123468C10F7
:10185000A4001B598C07250F0446AC402343024CBF
:101860008D10AD00635130BD0800014010B500F08F
:1018700001F810BD0CB50020019000902F480068C1
:10188000012108432D49086000BF2C48006802214F
:10189000084000900198401C01900098002804D155
:1018A0000521090301988842EFD1244800680221EC
:1018B0000840002802D00120009001E000200090A4
:1018C0000098012838D111201D4908601B48406844
:1018D0001A494860084640684860084640687F21C9
:1018E000C90388431549486008464068C900084351
:1018F00012494860084600680121090608430F495B
:10190000086000BF0D480068012149060840002812
:10191000F8D00A48406880088000084948600846B6
:101920004068022108430549486000BF03484068F9
:101930000C2108400828F9D10CBD0000001002401D
:101940000020024070B504460025A5002946024843
:1019500000F09AF970BD00000004004070B5044624
:101960000025A5002946024800F090F970BD00004E
:101970000004004070B504460025A5002946024831
:1019800000F082F970BD00000044014010B500F085
:1019900081FA05480068401C034908600348006854
:1019A000401C0249086010BD000000200400002017
:1019B000F8B50025002400260027244840680C21A3
:1019C00008400546002D04D0042D06D0082D2AD14C
:1019D00007E01F481F49086029E01D481D490860AD
:1019E00025E01A4840680F2189040840044617483A
:1019F00040680321C90308400646A00C841C002E41
:101A000004D115486043134908600BE00F48C06AD1
:101A10000007000F471C39460D48FEF7DDFB604309
:101A20000C49086003E00A480A49086000BF00BF8B
:101A300006484068F0210840000908490D5C054847
:101A40000068E84003490860F8BD0000001002404B
:101A500000127A007800002000093D007C00002080
:101A600010B51B4800680121084319490860084661
:101A700040681849084016494860084600681649F9
:101A8000084013490860084600680121890488431A
:101A90000F490860084640683F21090488430C4903
:101AA00048600846C06A00090001C8620846006B29
:101AB000FF2154318843064908630846406B4008BB
:101AC0004000486300208860FFF7D0FE10BD000092
:101AD000001002400CB8FFF8FFFFF6FE10B5FFF74C
:101AE00067FF7D21C9000E480068FEF775FB0446BC
:101AF000601E0C49884201D901200CE0601E0A4991
:101B000048610321081FFFF7FFFD00200649886197
:101B1000072008610020002801D000BFFEE710BDAB
:101B200078000020FFFFFF0000E000E070477047F2
:101B3000002904D0028801231A43028003E00288AE
:101B4000014B1A4002807047FEFF0000002907D0B9
:101B50004422125A0123DB031A4344231A5205E09C
:101B60004422125A53045B0C442213527047002A39
:101B700003D083890B43838102E083898B43838174
:101B80007047000070B5002400220023058C1C4E15
:101B900035400584028C8388048B194D6F3D2C40A1
:101BA000B51E2C400D882C43751E2A408D892A4372
:101BB0004D882A43134DA84208D0134DA84205D0A2
:101BC000124DA84202D0124DA84212D10C4DED1F69
:101BD0002A40CD892A430A4DED1E2A408D882A438A
:101BE000074DFF3D2B400B4D2B400D8A2B434D8A5B
:101BF0002B43838004838D684563028470BD00009D
:101C0000FEFF0000002C0140004001400044014064
:101C100000480140FFFD000070B5002200230024B1
:101C2000058C134E35400584038C8488828B114DBE
:101C30002A40114D2A400D782D062D0C2A430F4DB8
:101C40002B400D7B2D072D0C2B438D782D072D0C54
:101C50002B430B4DA84205D10A4D2C400D8AAD05F2
:101C60002D0C2C43848082838D680564038470BDB1
:101C7000FFEF0000FF8F0000FFFC0000FFDF00000F
:101C8000002C0140FFBF00004163704701647047B2
:101C900000220288154B984206D001239B079842E8
:101CA00002D0134B984203D1124B1A404B881A436F
:101CB000114B984203D0114B1A400B891A430280F2
:101CC0004B68C3620B880385084B984208D00C4BC5
:101CD000984205D00B4B984202D00B4B984201D151
:101CE0008B7A03860123838270470000002C014019
:101CF000000400408FFF000000100040FFFC0000C7
:101D000000400140004401400048014000B58BB054
:101D100001214804FFF736FD01214804FFF742FD89
:101D2000022108A80172002181724020099008A8B0
:101D3000C1720321417209A90920C006FFF7F6FB11
:101D4000002168468181C1802F218180FF20903051
:101D5000029001A90B48FFF79BFF00216846018410
:101D60006021018200214184C18381830421818219
:101D7000012141820020069004A90248FFF702FFDA
:101D80000BB000BD004401401FB501214804FFF71E
:101D9000F9FC01210802FFF705FD00216846818159
:101DA000C1802F218180FF209030029001A90B4833
:101DB000FFF76EFF012220210948FFF7D8FE01211D
:101DC0000748FFF7B5FE0D216846017000214170FC
:101DD00001218170FFF760FC1FBD00000020004062
:101DE000002C014000B58BB001218804FFF7CAFC2C
:101DF00001210220FFF7D6FC122001900221684643
:101E000001720321417200218172C17201A91F4830
:101E1000FFF78CFB022201211C48FFF7CFFB0222B7
:101E200004211A48FFF7CAFB002108A881726846FE
:101E3000018541842F210184FF209030099008A959
:101E40001348FFF725FF6021684681810021418307
:101E500001830121C1810421018289018183002143
:101E6000C1830020059003A90948FFF78BFE03A951
:101E70000748FFF7D1FE01210548FFF759FE012170
:101E80000348FFF763FE0BB000BD000000040048EC
:101E90000004004004480068002804D0024800689C
:101EA000401E0149086070471C00002030B4744691
:101EB000641E2578641CAB4204D3635D5B00E318A9
:101EC00030BC18471D46F8E7F0B585B00024002562
:101ED000002600200490039002900220FFF7B2F940
:101EE00001283CD11F48008884B21E48008885B272
:101EF0001D486843C117090D09180813FEF76EFE47
:101F000002900298029018486043C117090D091801
:101F10000813FEF763FE064614493046FEF78AFDB5
:101F200006463146124800F0E3F912490190304666
:101F300000F086F91049009000F012F90746019967
:101F4000FEF778FD049091230C4A0D49049800F0A7
:101F500019F80390039803900220FFF70BF905B0DE
:101F6000F0BD000010000020E40C00000000FA4367
:101F7000F66C33450000FA4400537C4840260008C4
:101F8000C0230008FFB585B00C461E4621680598A1
:101F900000F02CF90FD800252168606800F0A8F93E
:101FA00002902168059800F0A3F901900299FEF7CC
:101FB00041FD074644E0B0002158059800F016F9AD
:101FC0002AD270080390002504960EE00398800042
:101FD0002158059800F00AF902D20398049000E015
:101FE000039D04984019400803900498401B012861
:101FF000ECD8AA00A1586A1C9200A05800F078F909
:102000000290A8002158059800F072F901900299F9
:10201000FEF710FD074613E0751E721E9200A158D0
:10202000B200A05800F064F90290701E80002158A0
:10203000059800F05DF901900299FEF7FBFC074658
:10204000AB00079AD1586A1C9300079AD05800F049
:102050004FF93946019000F0F3F8AA000290079872
:102060008158029800F07CF809B0F0BD0EB5FFF77A
:1020700025FAFFF7EDF9FEF797FFFFF785FEFFF76B
:10208000B1FEFFF743FE0120FFF7BCFBFFF7CAFAE2
:10209000FFF724FD0020FEF76FFE53E02A4800788A
:1020A0000300FFF703FF07490508171D233E4900FA
:1020B000FFF70AFF41E0022081020722520300924B
:1020C000019102900022214B410321480078FEF744
:1020D00011FF32E001211E480078FFF705F92CE0DE
:1020E00032211B480078FFF711F926E019480078E3
:1020F000012804D101210020FFF7F6F803E00021B8
:102100000846FFF7F1F813480078012804D10121AF
:102110000846FFF7E9F803E000210120FFF7E4F8A3
:102120000BE00920FFF7CEF80B4908700A20FFF7F3
:10213000C9F80A49087000BF00BF00BF7D20C00079
:10214000FFF7B4F8AAE700000C000020804F3241EE
:102150000D000020080000200E0000200F000020CD
:1021600070B501250400ED074C4020D4441A01D27B
:10217000001B0919C60D4B00F2B2FF2A29D01B0E15
:102180002CD000020C02D31A2C43DC402843051942
:1021900010D2280A02D3401C6D0611D0761EF60517
:1021A0008019FF2A00DA70BDC00DC00570BD6940FE
:1021B00000F0A4F801200543C541521C761CE8E755
:1021C00064089C40C90161408900E7D10124A04313
:1021D000E4E71B0E440200D0034870BD002AFCD186
:1021E000C00FC00770BD00BF0000C07F0123020008
:1021F000DB050A430DD4DA4203D49A4207D488425D
:102200007047D84214D4D94212D4884270478042D1
:102210007047DA4203D59A42F9D5814270475B0094
:102220004200DA4204D24A00DA4201D281427047C7
:1022300010B5024AFEF7DEFC10BD00BF090016040F
:1022400070B5420064414B005C41120E39D01B0E48
:1022500038D0FF2A3CD0FF2B3AD040024902400A36
:10226000490A060045184E43000A090AD218484395
:10227000ED017F3A0104731A4019190C4318990FA4
:1022800004D001215B0849075B1A521CD80904D30A
:10229000401CF50301D19D0607D0FF2A08D2D505C1
:1022A00006D0E4072043401970BD0125A843F4E798
:1022B000002A01DCE00770BD2402FF202043C00596
:1022C00070BD1B0EFF2A03D0FF2B01D0E00770BDAD
:1022D000FF2645003606B54206D84D00B54203D864
:1022E000D218FF2A00D0E7E7004870BD0000C07F89
:1022F00070B501250400ED074C4022D4441A02D2E7
:102300006C40001B0919C60D4B00F2B2FF2A4BD0DE
:102310001B0E50D000020C02D31A2C43DC40A84301
:10232000051B05D5AD0019D36D08761E521E37D09A
:10233000F605280A01D2801970BD70416D0603D0E0
:1023400070BD6940FFF712FF9C40090261404900DF
:1023500001D0401E70BD0124A04370BD6D081DD08A
:1023600001202B0C01D12D0410302B0E01D12D0298
:1023700008302B0F01D12D01001DAB0F01D1AD0095
:10238000801CEB0F01D16D00401C6D00361A121A33
:10239000680AF5054019012A02DB70BD002070BDF6
:1023A000C036300AC00770BD1B0E440201D1FF2B9E
:1023B00000D1024870BD002AF0D070BD0000C07F7F
:1023C000A470B042713DB1421F05B242CDCCB242C1
:1023D0009A99B3424861B442142EB542C3F5B5424E
:1023E00071BDB6423D8AB742EC51B8429A19B94222
:1023F00066E6B94214AEBA42C375BB42713DBC42F7
:102400003D0ABD42ECD1BD429A99BE424861BF42ED
:10241000142EC042C3F5C04271BDC1421F85C242E5
:10242000CD4CC3427B14C44248E1C442F6A8C54225
:10243000A470C6425238C7420000C842AEC7C84264
:102440005C8FC9420A57CA42B81ECB4266E6CB42ED
:1024500014AECC42C375CD42713DCE421F05CF4272
:10246000CDCCCF427B94D042295CD142D723D242FB
:1024700085EBD24233B3D342E17AD4428F42D54284
:102480003D0AD642CDCCD6427B94D742295CD84275
:10249000D723D94285EBD94233B3DA42C375DB4245
:1024A000713DDC421F05DD42CDCCDD425C8FDE425A
:1024B0000A57DF42B81EE04266E6E042F6A8E14273
:1024C000A470E2425238E342E1FAE3428FC2E442AE
:1024D0003D8AE542CD4CE6427B14E74229DCE742E7
:1024E000B89EE8426666E942F628EA42A4F0EA426B
:1024F00033B3EB42E17AEC42713DED421F05EE420F
:10250000CDCCEE425C8FEF42EC51F0429A19F14291
:1025100029DCF142D7A3F2426666F342142EF4425C
:10252000A4F0F44252B8F542E17AF642713DF74226
:102530001F05F842AEC7F8423D8AF9420A57FA42EF
:102540009A19FB4229DCFB42D7A3FC426666FD4296
:10255000F628FE4285EBFE4233B3FF42E13A0043E8
:10256000299C004371FD0043486101438FC2014330
:10257000D72302431F85024366E60243AE47034367
:1025800085AB0343CD0C0443146E04435CCF04437A
:10259000A4300543EC91054333F305437B540643D4
:1025A000C3B506430A170743527807439AD907432E
:1025B000E13A0843299C084371FD0843B85E09438A
:1025C00000C0094348210A438F820A43D7E30A43E4
:1025D0001F450B4366A60B43AE070C43D7630C4362
:1025E0001FC50C4366260D43AE870D43F6E80D4329
:1025F0003D4A0E43F6A80E433D0A0F43856B0F4339
:10260000CDCC0F43142E10435C8F1043A4F0104325
:102610005C4F1143A4B01143EC111243A470124358
:10262000ECD1124333331343EC91134333F313438D
:102630007B54144333B314437B141543C3751543C0
:102640000000F0C10000E8C10000E0C10000D8C1F6
:102650000000D0C10000C8C10000C0C10000B8C166
:102660000000B0C10000A8C10000A0C1000098C1D6
:10267000000090C1000088C1000080C1000070C14E
:10268000000060C1000050C1000040C1000030C126
:10269000000020C1000010C1000000C10000E0C027
:1026A0000000C0C00000A0C0000080C0000040C00A
:1026B000000000C0000080BF000000000000803F5C
:1026C0000000004000004040000080400000A040AA
:1026D0000000C0400000E040000000410000104148
:1026E0000000204100003041000040410000504106
:1026F00000006041000070410000804100008841FE
:1027000000009041000098410000A0410000A84155
:102710000000B0410000B8410000C0410000C841C5
:102720000000D0410000D8410000E0410000E84135
:102730000000F0410000F8410000004200000442A7
:102740000000084200000C42000010420000144249
:102750000000184200001C420000204200002442F9
:102760000000284200002C420000304200003442A9
:102770000000384200003C42000040420000444259
:102780000000484200004C42000050420000544209
:102790000000584200005C420000604200006442B9
:1027A0000000684200006C42000070420000744269
:1027B0000000784200007C4200008042000082421B
:1027C00000008442000086420000884200008A42E5
:1027D00000008C4200008E420000904200009242B5
:1027E00000009442000096420000984200009A4285
:1027F00000009C4200009E420000A0420000A24255
:102800000000A4420000A6420000A8420000AA4224
:102810000000AC420000AE420000B0420000B242F4
:102820000000B4420000B6420000B8420000BA42C4
:102830000000BC420000BE420000C0420000C24294
:102840000000C4420000C6420000C8420000CA4264
:102850000000CC420000CE420000D0420000D24234
:102860000000D4420000D6420000D8420000DA4204
:102870000000DC420000DE420000E0420000E242D4
:102880000000E4420000E6420000E8420000EA42A4
:102890000000EC420000EE420000F0420000F24274
:1028A0000000F4420000F6420000F8420000FA4244
:1028B0000000FC420000FE42000000430000014313
:1028C000451900085D1900087519000880807F7E91
:1028D0007D7C7B7A79787776767574737271717096
:1028E0006F6E6E6D6C6C6B6A6A6968686766666548
:1028F0006464636362616160605F5F5E5E5D5D5CD6
:102900005C5B5B5A5A595958585757565655555546
:102910005454535352525251515050504F4F4F4EA6
:102920004E4D4D4D4C4C4C4B4B4B4A4A4A494949F4
:102930004848484747474746464645454544444436
:102940004443434343424242424141418182838462
:1029500085868788898B8C8D8E8F9192939596979B
:10296000999A9C9D9FA0A2A3A5A7A8AAACAEB0B21D
:10297000B3B5B7B9BCBEC0C2C5C7C9CCCED1D4D718
:10298000D9DCDFE2E6E9ECF0F3F7FAFEAC29000867
:10299000000000208C00000004010008382A000814
:1029A0008C000020640600002001000800000000E8
:1029B0000000000000000000000000000000000017
:1029C00000000000409C00000000000000000048E3
:1029D000040000000000004808000000000000485B
:1029E0004000000000000048000200000000004815
:1029F0000004000000040048080000000004004833
:102A000020000000000400484000000000040048CE
:102A1000800000000004004800010000000400489D
:102A200000020000006CDC0200000000000000005A
:082A3000010203040607080976
:04000005080000C12E
:00000001FF
