:020000040800F2
:10000000A81300209D0100086D12000803120008CB
:1000100000000000000000000000000000000000E0
:100020000000000000000000000000008D13000828
:100030000000000000000000D1120008D5130008E5
:10004000CD010008CD010008CD010008CD01000858
:10005000CD010008CD010008CD010008C90F00083E
:1000600000000000CD010008CD010008CD0100080E
:10007000CD01000881150008CD0100080000000036
:10008000CD010008CD010008000000007D1500082A
:10009000CD010008CD010008CD010008CD01000808
:1000A000CD010008CD010008CD010008CD010008F8
:1000B000CD0100080000000000000000CD01000894
:1000C00000F002F800F03EF80CA030C80838241800
:1000D0002D18671EA246AB4654465D46AC4201D180
:1000E00000F030F87E460F3EB6460FCC0126334274
:1000F00000D0FB1A3343A246AB4618471423000036
:1001000034230000103A02D378C878C1FAD85207D5
:1001100001D330C830C101D504680C6070470000BD
:100120000023002400250026103A01D378C1FBD813
:10013000520700D330C100D50B6070471FB51FBDFB
:1001400010B510BD00F0FCFC1146FFF7F7FF01F001
:10015000A1FB00F014FD03B4FFF7F2FF03BC00F0B5
:100160001BFD000070B505460C46164602E00FCC9C
:100170000FC5103E102EFAD2082E02D303CC03C5B1
:10018000083E042E07D301CC01C5361F03E02178B9
:100190002970641C6D1C761EF9D270BD0F4880F367
:1001A00008880F480168090E0E4A914205D10E4891
:1001B0000E4901600E480F4901600F4880470F4803
:1001C0000047FEE7FEE7FEE7FEE7FEE7FEE700008A
:1001D0000B480C490C4A0D4B70470000A813002037
:1001E000040000001F000000181002400100000081
:1001F000000001400000000055140008C100000884
:10020000A80D0020A8130020A80F0020A80F002090
:10021000F8B5042A2CD3830712D00B78491C03703D
:10022000401C521E83070BD00B78491C0370401CE6
:10023000521E830704D00B78491C0370401C521EC9
:100240008B079B0F05D0C91ADF002023DE1B08C9CE
:100250000AE0FFF787FFF8BD1D4608C9FD401C46B0
:10026000B4402C4310C0121F042AF5D2F308C91A57
:10027000521EF0D40B78491C0370401C521EEAD465
:100280000B78491C0370401C012AE4D409780170E2
:10029000F8BDD2B210B513029A1813049A1800F0E0
:1002A00001F810BD01E004C0091F0429FBD28B072F
:1002B00001D50280801CC90700D002707047002958
:1002C0000BD0C30702D00270401C491E022904D380
:1002D000830702D50280801C891EE3E70022EEE737
:1002E0000022DFE7002203098B422CD3030A8B4252
:1002F00011D300239C464EE003460B433CD400221E
:1003000043088B4231D303098B421CD3030A8B422F
:1003100001D394463FE0C3098B4201D3CB01C01AFD
:10032000524183098B4201D38B01C01A52414309C8
:100330008B4201D34B01C01A524103098B4201D3B6
:100340000B01C01A5241C3088B4201D3CB00C01A23
:10035000524183088B4201D38B00C01A524143089B
:100360008B4201D34B00C01A5241411A00D20146C0
:100370005241104670475DE0CA0F00D04942031059
:1003800000D3404253409C46002203098B422DD3A8
:10039000030A8B4212D38901FC2212BA030A8B4250
:1003A0000CD3890192118B4208D3890192118B429F
:1003B00004D389013AD0921100E08909C3098B4224
:1003C00001D3CB01C01A524183098B4201D38B0167
:1003D000C01A524143098B4201D34B01C01A52410A
:1003E00003098B4201D30B01C01A5241C3088B424F
:1003F00001D3CB00C01A524183088B4201D38B003A
:10040000C01A5241D9D243088B4201D34B00C01AC3
:100410005241411A00D201465241104663465B10D8
:1004200001D34042002B00D54942704763465B1020
:1004300000D3404201B50020C046C04602BD70470F
:1004400070477047F0B5F94D0C091E092C402E403D
:100450002F468BB0A7437DD0B543FCD0002E7AD079
:10046000002CFCD00D465D40ED0F2543AC1BFF2555
:10047000AD0464190894C502440DC9022143500D0E
:10048000DC0204430120C00701430443D20201916E
:10049000200C110C00958C46010423468B430A91D5
:1004A00061460904E24D8A430991010A7D444919D4
:1004B0008039097805464D4301266D18F605751BF0
:1004C0006943C90C640B891C4C436418B5012C1B8F
:1004D000250C2E04B4434C434D43210C6918890963
:1004E0000591009DE90701D00121C90704912C461F
:1004F00001996708CD072F434C08059DE10B4D433B
:100500002D0C29466646754302950D4645432E46F9
:10051000029D7D1BB44100950D465D4301942C0C5A
:100520002F040D465543AE462D0C3D4302950394D2
:100530007546049C2D04641B049406D2029C039D02
:10054000641C002675410395029401AC70CC009F99
:100550007D1B01E03EE162E1B44109040095079191
:1005600001940599A4086143090C0C464443650BAA
:10057000E7040C4666467443A646640B3C43039569
:1005800002947446049DE4042C1B049406D2029C3D
:10059000039D641C002675410395029401AC70CC48
:1005A000009F7D1BB44101940C465C430095650F90
:1005B000E7000C465443A646640F3C43039502945F
:1005C0007446049DE4002C1B049406D2029C039DF7
:1005D000641C002675410395029401AC70CC009F09
:1005E0007D1BB441AE09AF06049DC900AD092F4380
:1005F000049DA406AD060495079D34436918079130
:10060000059DE10B4D432D0C294666467543029529
:100610000D4645432E46029D7D1BB44100950D4677
:100620005D4301942C0C2F040D465543AE462D0C12
:100630003D43029503947546049C2D04641B049469
:1006400006D2029C039D641C00267541039502940A
:1006500001AC70CC009F7D1BB44101948C050694C5
:10066000079C890A611800950791019C0599A408C7
:100670006143090C0D464543680BEF040D46644683
:1006800065436C0B3C43049FED047D1BAC4602D2DA
:100690000025641C6841009E019D371B854108466A
:1006A000584301950C46460FC5005443600F28433C
:1006B0006546E4002C1B02D20025401C6E41019DC2
:1006C0003F1AB5412846BD09800628438446A00943
:1006D000BF064E020699A40676180743079D002020
:1006E00068410A99079019430020099B00906046D1
:1006F000FF1913434041E20F64003A43A446044605
:10070000D71A8C41A04203D90120009020463A46D6
:10071000C70F941840416246D20F224364466400DA
:100720000494009CBE466400D71AA446044602976F
:100730008C417746002F01D1A04204D96046401C6D
:100740008446029A2046C40FA64694184041049A53
:100750000546D20F224364466400D31A8D41714688
:10076000002901D1A84202D928461A46641C104328
:100770000122002800D0164361020020079B89193E
:1007800004465C410223002C02DB491813466441F5
:10079000089DCE0A2D145D194B056705E10A2C054D
:1007A0000D1908993E43C9076940002B08D09340B2
:1007B00006D30022761C5141002B01D17608760029
:1007C0001C4A002D43DB154241D0AA433FD030469E
:1007D0000BB0F0BD06180D464D41174C7642AC41AA
:1007E0001AD395181C465C41134A6D42A24113D39B
:1007F000012252054C00D4420AD15C00D4420BD0F5
:100800004B4002D592021143E2E749004908DFE775
:100810005940C90FC90718E000200849D8E7054822
:1008200001420DD10342F7D0F2E700000000FF07BC
:10083000781E00000000F07F0000E0FF0000F87F5D
:10084000114859400143C01241400020C0E7012334
:10085000089A9B069A4205DC032252078918C90FA1
:10086000C907B5E7052252078918074A1143D21272
:100870005140ADE770B515461C4602460B4628466A
:100880002146FFF7DFFD70BDFFFFFF7F30B5034658
:10089000CA02400D1043164D164C0A1502D02043D3
:1008A000002A06DBAA1A002A12DDD040FF2A0BDC40
:1008B00030BD5205520D01D140004008AA1A07D49C
:1008C000D0404042FF2A01DD002030BD0028FCDD81
:1008D0004A00002B01D0012000E000201018012266
:1008E0005205D042F0D8C817C043604030BD000068
:1008F0001E04000000000080F0B58B4C0F09254657
:1009000089B0BD437BD01D092646AE43FAD00E46C2
:100910005E402740F60F3E43254071D0240121421E
:10092000FBD0FF24AD19A4042D1B039501252D0533
:10093000DB02DB0AC9022B43C90A29431E01090154
:10094000040F130F050121431701880B8203914304
:100950002D098C46A90B1E438A039543B30B9A03BA
:1009600096433F09BA0B9403A74302962E467E4353
:100970000497B6464E19D7190C460196544305976D
:100980007E43371B7646BF1B3601B646BE0B361973
:1009900000967646BC043719009C01D3641C009471
:1009A0006400002F01D001263443029E049F75434A
:1009B00066467E430496760034196E00341900941E
:1009C000029C019E1C196643751BAE460694654643
:1009D0004519059C05956C43594375460891691A5C
:1009E0000191049E01465143A41B0491611A009C8D
:1009F0000791E10605D061090122114302E072E08E
:100A00006EE06109089D00272C0A2D066918049DD7
:100A10007C412A0A2D066918019D6241AC0DAD0288
:100A20006D185441079A910D920255196141029A2D
:100A3000644658435443069B059A5A43121A131BA3
:100A40009A0E9B015B187A41010B0005C3185141B6
:100A5000220A200644195A419A4200D2491C012018
:100A60004002814203D315230226F64302E01423F9
:100A70000326F6432020C51AA9401746AF40DA40A6
:100A80000A4320460399D8400914731819055118D0
:100A9000039A3843D2075140AC4009D00122944018
:100AA00006D30022401C5141002C01D140084000D7
:100AB0001E4A934212D3012203989206904207DB0A
:100AC0000520400709181A480143C012414004E0BC
:100AD000032040070818C10FC907002009B0F0BD66
:100AE0000020F107FAE705180C464C4111486D4209
:100AF000A04115D394181A465A410E4864429041B9
:100B00000ED301204A004005824209D35A00824296
:100B100006D35940C90F084AC90700201143DDE731
:100B200000200649DAE700000000FF07FE0700008A
:100B3000FFFFFF7F0000E0FF0000F07F0000F87F74
:100B4000754600F025F8AE46050069465346C008D4
:100B5000C000854618B020B5FFF73AFB60BCB6462A
:100B600000260027C0C5C0C5C0C5C0C5C0C5C0C51A
:100B7000C0C5C0C5403D490849008D46704710B505
:100B80000446C046C0462046FFF7E5FA10BD000007
:100B9000004870471000002001491820ABBEFEE756
:100BA000260002007047000070B504460125194E6A
:100BB0002946B04720462946B04720462946B04737
:100BC00070BDC046F8B50D4604460126114F3146AA
:100BD000B84720463146B847002620463146B84738
:100BE00011E0280401D4002100E00121204600F09A
:100BF000D7F90021204600F0D3F90121204600F06A
:100C0000CFF9761C6D000F2EEBD90121204600F0A4
:100C1000C7F9F8BDA10F0008F8B51E4617460091A8
:100C20000446012001021D4D2046A8472120010253
:100C30002046A84700221A4B38463146FFF702FCEF
:100C4000184A194BFFF758FEFFF720FE06461748D3
:100C500031460140009887B239432046A847300109
:100C6000810C39432046A847069E0798304381B23D
:100C70002046A8470D48401C0099081A411E88418B
:100C8000C002089A024303208003301A411E8841A3
:100C9000810211432046A847F8BDC046C50B000895
:100CA00080842E41CE98ED7808267741FF3F0000E2
:100CB000836A0B43836242617047002901D001219E
:100CC00000E0022182680A4382607047C268012303
:100CD000002901D01A4300E09A43C2607047C268FD
:100CE00002239A43C260C2680A43C2607047000090
:100CF000F0B595B0414C204600F070F8012568042D
:100D0000294600F007FB6802294600F01BFB0DA9ED
:100D10000027CF71032008710D900920C00600F054
:100D200017FA0FAE304600F0A8F835710420149081
:100D30001397119701970F972046314600F084F8DA
:100D40000527204629463A46FFF7B2FF02262046ED
:100D500031463A46FFF7ACFF204600F051F82046F6
:100D60003146FFF7BCFF20462946FFF7AFFF20467C
:100D70002946FFF7A2FF01252046294600F056F834
:100D80000028F8D02846294600F0C4FA5D4F3846BE
:100D900000F08CF801990C9168030B9020200A90C8
:100DA000A8020990280208908020079006910596D5
:100DB00004910948039020464030029002A9384629
:100DC00000F0BAF83846294600F066F8204600F0F0
:100DD0004FF815B0F0BDC0469001002010B507498E
:100DE000884200D010BD01214C02204600F0B6FA26
:100DF0000021204600F0B2FA10BDC0460024014098
:100E00000121C90782680A43826007498268002A73
:100E100003DA4A1E00291146F8D18168002901DB56
:100E2000006C704700207047FFEF0000CA0101D43A
:100E3000006803E001221206806890430840002801
:100E400000D001207047000070B5C268074B134006
:100E50000A681A430E46083678CE134309794903C7
:100E60001943214329433143C16070BD03D2FFFFC1
:100E7000816804220A438260704700210171016089
:100E80008160C1600161416170470000C10001D40F
:100E9000214908607047C0460268002902D001213C
:100EA0000A4301E016490A40026070470168144A8B
:100EB0000A4002600021016041608160C160114907
:100EC00088420DD0104988420CD0104988420CD07D
:100ED0000F4988420CD00F4988420FD1F02009E019
:100EE0000F2007E00F20000404E00F20000201E0C3
:100EF0000F20000308490A6802430A607047C04691
:100F0000FEFF00000800024058000240300002408E
:100F1000440002401C000240040002400146C000A0
:100F200002D40448006800E000200840002800D0F7
:100F30000120704700000240B0B502680C4B13401E
:100F40008C681C430D6A4B6A8A6A25430C692C43E2
:100F50004D6925438C692C43CD6925431D431543B9
:100F60000560CA6842600A6882604968C160B0BDB5
:100F70000F80FFFF81B00090034800990160016875
:100F80000029FCD101B070479801002080B5C10054
:100F9000084A50585118898800F027F980BDC0468A
:100FA00080B50A46C100034B58585918898800F08B
:100FB00022F980BDB823000880B58900014800F0FF
:100FC0007FFB80BD0004004010B5102000F02EF81B
:100FD0007D218C0000280AD011484168A14202D925
:100FE000446001210170102000F01CF803E00C485F
:100FF000002141600170202000F018F800280AD07C
:1010000007488168A14202D98460012141702020F3
:1010100000F008F810BD024800218160417010BD49
:1010200070000020054908607047C046014603482B
:1010300000680840002800D00120704714040140D7
:1010400010B582791549002A1CD002680B689343B9
:101050000B604B6893434B6003790B431C6814434C
:101060001C6002688B6893438B60CB689343CB60B2
:10107000407910280DD1886810438860C8681043F3
:10108000C86010BD02790A4300681168814311608D
:1010900010BD084301681143016010BD0004014008
:1010A00070B586B001246004214600F033F9204673
:1010B000214600F047F904A9CC7100250D713026B6
:1010C00004960920C00600F043F80421284600F0E9
:1010D0005FF90521284600F05BF902A8847103211D
:1010E000890281800296FFF7ABFF01A88470072177
:1010F000018000F0BDF806B070BD0000FEB5032011
:1011000040040124214600F005F90D4801900D48E6
:10111000029006460920C00601AD0B4F2946B8478C
:10112000E82001900296094E30462946B847EC71F6
:10113000002028710348019030462946B847FEBD7B
:101140008C06000001030000511100080004004853
:10115000FEB50A6800231C46019233E00127A74030
:101160003A422DD0029403259D40ED430C460E7962
:10117000721E012A12D882682A40826062799A40DF
:1011800000958568154385608288BA438280A2797C
:1011900002998A40858815438580009D02682A400F
:1011A00002609E40026832430260C2682A40C26008
:1011B000E1799940C2680A43C2602146019A029CC3
:1011C0009B1C641C202BC9D1FEBD10B54B07DB0E48
:1011D0000F249C40C90889004018016AA14301629C
:1011E0009A40016A1143016210BD008A084000283C
:1011F00000D001207047002A01D08161704701852D
:101200007047FEE780B5084800F02AF8032000F098
:101210001BF806480068C00980B200F01BF800F017
:101220000DF800F005F880BD5555000004000020C1
:101230000D48014901607047CCCC00000A480149C3
:1012400001607047AAAA0000014908607047C046C3
:1012500004300040014908607047C0460830004033
:10126000014908607047C0460030004070470000E8
:10127000B0B501788278002A16D08A07D20EFF23F3
:1012800093400D4C0C190325AC4325689D434078D1
:101290008001C0B29040284320601F2008400121F7
:1012A000814006480160B0BD1F20014001208840F8
:1012B00003490860B0BDC04600E400E000E100E082
:1012C00080E100E0000000000000000000000000DD
:1012D000EFF309800E4B1A6820381060F0C04446C6
:1012E0004D4656465F46F0C008B572B600F0C4FDE4
:1012F00062B60CBC116808681030F0C8A046A94658
:10130000B246BB4680F309882038F0C81847C0466B
:1013100080000020044A002902D01168014301E046
:10132000116881431160704714100240044A00297B
:1013300002D01168014301E01168814311607047D8
:101340001C100240044A002902D01168014301E048
:10135000116881431160704718100240044A002947
:1013600002D01168014301E01168814311607047A8
:101370000C10024004490A680123002801D01A43D6
:1013800000E09A430A607047241002407047000052
:10139000B0B5FC220A40064BD4588907090F0F2527
:1013A0008D40AC43D4508840D1580143D150B0BD9A
:1013B00008000140E0B501910023009301A96A46AD
:1013C00000F0B4FD0098002803D00120000709496F
:1013D00008608CBD10B500F029FC044600F094FEB6
:1013E000002803D00120000702490860204600F0D1
:1013F00057FC10BD04ED00E0B0B5124C20680C2184
:1014000001401148082912D121688902090F8D1C59
:101410002168C903890F08D0A16A0F220A40511C14
:10142000FEF760FF4543284601E0084868434F49FE
:10143000086022681206120F054B9A5CD0400860C3
:10144000B0BDC0460410024000127A0000093D0001
:10145000A8230008BCB53348026801210A43026092
:101460004268314B134043600268304B13400360C5
:101470008A040368934303603F2212044368934342
:101480004360C26A0F239A43C262FF225432036B45
:1014900093430363426B8A43426300238360019357
:1014A000009302680A430260046802221440009418
:1014B000019C641C0194009C002C04D1052424038D
:1014C000019DA542F0D10468A40701D4009300E077
:1014D0000091009B012B23D1154B12241C60436803
:1014E0004360436843607F23DB0344689C4344605C
:1014F0003923DB0344681C434460090603680B433B
:10150000036001688901FCD5416803239943416068
:1015100041681143416041680C220A40082AFAD10F
:10152000BCBDC046001002400CB8FFF8FFFFF6FE3D
:101530000020024080B5FFF75FFF7D20C1000B480F
:101540000068FEF7CFFE401E010E00D0FEE70849FE
:10155000084A5060084803680B400321890759185E
:101560000160002090600720106080BD0000002016
:10157000FFFFFF0010E000E020ED00E070470000FA
:1015800010B5964C0121204600F022F8002803D027
:101590000121204600F002F810BDC046C943018277
:1015A000704702880123002901D01A4300E09A43C2
:1015B0000280704710B54422835A044C002902D09F
:1015C000611C0B4300E02340835210BDFF7F0000ED
:1015D00010B50246048A0C400123002C184600D1A5
:1015E000204692890A40002A00D11346184010BDB7
:1015F000002A02D082890A4301E082898A438281DB
:1016000070470000F0B5028C0125AA430284048CC7
:101610008288068B73239E430B8833430226B44390
:101620008E8926434C8834433F4E86190A27FE4153
:10163000072E11D8B540E12635420DD00C25AC431C
:10164000CD890426B54325438C882C43054D2A407B
:101650000D8A15434A8A2A4382800383896841633D
:101660000484F0BDFFFC0000B0B5028C124B1340A7
:101670000384048C828873231B02858B9D430B8813
:101680001B022B4301256D03AC438D892D0325439C
:101690004C8824032C43514DA84201D0154604E048
:1016A000064D2A400D8AAD011543858083838968E4
:1016B00001640484B0BDC046FFEF0000FFBF00001E
:1016C0004163704710B5038801229407A04205D0FA
:1016D000424CA04202D0684CA04204D17024A343E3
:1016E0004C881C4300E01C460E4B984205D0032357
:1016F0001B029C430B89234300E0234603804B6875
:10170000C3620B880385084BC3180A24E341072BE7
:1017100006D814469C40E1231C4201D0897A0186F8
:10172000828210BD0010004000D4FEBFB0B58AB068
:101730000124650428462146FFF7ECFD2846214692
:10174000FFF7F4FD4A480990402008900920C006A0
:1017500008A9FFF7FDFC694600250D81FF209030A8
:1017600001902F200090084C2046FFF7ABFF03A903
:1017700004208880079506950595404803902046EB
:10178000FFF740FF0AB0B0BD00440140BFB50124DF
:1017900060042146FFF7BEFD250228462146FFF7DB
:1017A000C5FD01A9002008818F3502952F200190E9
:1017B0000948FFF787FF094D202128462246FFF7F9
:1017C00017FF28462146FFF7ECFE684684700D217E
:1017D0000180FFF74DFDBFBD00200040002C0140FF
:1017E000F0B58BB00124A0042146FFF793FD02253C
:1017F00028462146FFF79AFD1D48029012200190CD
:101800001C4F01A93846FFF7A3FC384621462A465B
:10181000FFF7DBFC0426384631462A46FFF7D5FCA5
:1018200008A900250D818D72FF20903009902F208E
:1018300008901148FFF746FF03AFBE8006952002CF
:1018400007900E48039005950B4D28463946FFF743
:10185000D9FE28463946FFF707FF28462146FFF7FD
:10186000A0FE28462146FFF7A5FE0BB0F0BDC046FE
:101870000203000000040048000400406000010072
:1018800080B50220FFF74AFB012802D10220FFF7B2
:10189000FDFA80BD84B0FFF731FCFFF701FCFFF7D4
:1018A00027FAFFF773FFFFF79BFFFFF73FFF0124C6
:1018B0002046FFF75FFDFFF7A5FCFFF73BFE002585
:1018C0002846FFF771F9684630C0294829A16422EB
:1018D0002B4600F061FB00F0A5FA284E284F307827
:1018E000401E05283ED8C046784400794000874411
:1018F000020514171C22FFF7C3FF33E070780221A2
:101900006A46E30207256D03156053609160A103E9
:1019100000221C4BFFF780F924E0707801211FE0C2
:1019200070783221FFF748FB1CE0387801280BD192
:10193000002001210AE00920FFF728FBB0700A20EF
:10194000FFF724FBF0700DE000200146FFF728FBB5
:101950003878012802D10120014601E00120002150
:10196000FFF71EFB7D20C000FFF704FBB7E7C04672
:10197000251C000876746573743100007C0000201B
:1019800070000020804F324170B50446574DAE6A5A
:101990002868001D00F04EF9341928684460B442EC
:1019A00005D2A8692968091D00F08AF970BD686927
:1019B0002968091D00F084F9686A844200D26C62CB
:1019C00070BDC04670B515460446026C866B002A91
:1019D00016D0002D1DD0E068FEF71AFC206CE168DF
:1019E000091AE1602268914203D24042A1680818B6
:1019F000E060A91E48424841002E18D1314617E048
:101A00002068002816D1A06800F0E6FB0021A16044
:101A100011E06068FEF7FCFB206C616809186160EA
:101A2000A2680020914206D32168616003E0012191
:101A30000840361A0020711CA16370BD10B5044621
:101A4000006B00F073F9204600F070F910BD000043
:101A5000F34D0E4EA868002812D000F055F9A86C7E
:101A6000C468201D00F0E6F8E868401EE860A86839
:101A7000401EA86000F052F92046FFF7DFFFE9E7BB
:101A800070690228E6D300F0ADF9E3E71801002001
:101A9000B0B5BA4B1A461832114612688242FBD3CF
:101AA0004C680D19854203D140680019486008460A
:101AB00044680519954206D15B689A4203D0536881
:101AC0001B19436012680260814200D00860B0BDFB
:101AD000E84841690968002904D04169C968C968B2
:101AE000496801E00021C94341627047800000203D
:101AF00081B00020009072B600980028FCD001B0A0
:101B000070470000F8B5044600F0AEF90120C307A5
:101B10009A4F7968002904D03878002826D10346E6
:101B200024E000930021F9610722354D2E4616402E
:101B3000D343ED1D1D40002E2A4600D1304ABA6124
:101B40000327BF02002E02D02D4E751BEF19D519A9
:101B5000083D1D40894F7D6029606960A91A516068
:101B60007B681360B960F9603870009B002C3ED030
:101B70001846204000283AD1083407202040002889
:101B800002D00821081A2418601EBD68A8422ED26F
:101B90003E461836BA69314616465068A04202D20F
:101BA0003268002AF7D17A68964220D000950D68F5
:101BB00032680A60011B112907D330194160746033
:101BC0001C46FFF765FF234670680099091AB96043
:101BD000FA68914200D2F96008350021184331605B
:101BE00070603869401C386100F04AFB04E000F086
:101BF00047FB00F030F80025284601B0F0BDC04694
:101C00009C01002010B50F23DB439B00C01801236B
:101C10001B06034C44638163C363026210BDC0466C
:101C2000F11A0008642000F0E9F8FBE7EFF31080F8
:101C300072B670470169436882689A60826853602F
:101C40004B68834200D14A60002202610868401E4E
:101C500008600868704772B6FEE772B6FEE70000DB
:101C600010B50C4C2068401C20602068C00704D1CF
:101C7000094800680221FFF79DFB20683221FEF72A
:101C800031FB002900D010BD044800680221FFF795
:101C900091FB10BD9C0D0020A00D0020A40D002084
:101CA00080F3108870470021016002460832C94362
:101CB00042608160C260026170470021016170472B
:101CC000B0B50C68621C07D0024608321346526851
:101CD0001568A542FAD901E003695A684A60916023
:101CE0008B60596008610168491C0160B0BD4268A1
:101CF0004A6093688B6093685960916008610168DD
:101D0000491C01607047000072B687480168491C91
:101D10000160BFF34F8FBFF36F8F70478248016838
:101D2000491E016000D0704762B67047F8B50028C0
:101D300011D00446114E3078002801D00120C00790
:101D40000721C9430F1DE159084204D02546083D2B
:101D50002A68002A00D0F8BD8143E15100F084F8E0
:101D6000E059B1680818B0602846FFF791FE706925
:101D7000401C706100F084FAF8BDC046F8000020F5
:101D800010B5074C00202060A06006480068642160
:101D9000FEF7A8FA401E60600720206010BDC04614
:101DA00010E000E000000020000000000000000043
:101DB0000B4A13681868203080F30988022080F3EA
:101DC0001488BFF36F8F3FBCAE4608BC04BC62B63C
:101DD0001847C046C046C046C046C046C046C0467A
:101DE000800000200120000703490860BFF34F8FE7
:101DF000BFF36F8F7047C04604ED00E080B5002848
:101E00000AD0F449CA6A521CCA62FFF7BDFD00F04D
:101E100037FA002800D080BDFFF7E4FF80BDC04640
:101E200080000020BCB50C4D2846203069460024B7
:101E30000C60486009480AA13C22234600F0ACF837
:101E4000012807D172B6E043686201202861AC62C4
:101E500000F050F8BCBDC04680000020511A0008B8
:101E600049444C4500000000EE48C16A491CC1626B
:101E70007047C04680000020B0B5EA4CE06A0028F8
:101E800002D001202063B0BD002020632068006BD9
:101E9000026817498A4208D142688A4205D182689D
:101EA0008A4202D1C068884204D020682168343157
:101EB000FFF7D3FEE06914214143F04A5218303253
:101EC0001321C943401C53188D005219526B401EF8
:101ED000002A1A46F7D05A19D16C4968D164994240
:101EE00001D14968D164C9682160E061B0BDC046D4
:101EF000A5A5A5A510B5FF2001040A4A13680B4348
:101F000013600006116801431160FFF739FF0648AE
:101F100000240460FFF74CFFFFF7AEFFFFF7E8FD7A
:101F2000204610BD20ED00E008000020FEB51F4651
:101F300014460D460646FFF779FEF26BB16B022F91
:101F400003D0914201D3002710E001940290452074
:101F5000345CB06B304629463A46FFF733FDFF2C20
:101F600009D04536601C307001270298FFF798FEB3
:101F7000384603B0F0BD706A01270028F5D024363A
:101F8000304600F051F901990029EED0002802985E
:101F9000ECD001270F60E9E7F0B587B006930D4656
:101FA000059096003046FFF7ADFD04460027F84344
:101FB000002C00D1A3E004905420FFF7A3FD0028DB
:101FC0001ED001460C98039004910C630291A52247
:101FD00020463146FEF75DF90498006B8019061F14
:101FE0000720002D11D0029A144634323821042FD4
:101FF0000DD8EB5DD355EB5D7F1C002BF6D106E0D1
:102000002046FFF793FE049879E0029C34210D9A54
:102010000192864302960026049F7E54BE64039D6F
:10202000042D00D304257D64FD62201D0390FFF77D
:1020300044FE18342046FFF740FEFE6450203E5414
:102040000520401BB8617F623F6102980599069A9E
:10205000FFF7D8FD38600198002800D00760FFF72F
:1020600053FEAF4EF068401CF0603068002809D085
:102070003069002823D13068F96AC06A88421ED8C6
:1020800037601CE03760F068012818D11425A54C92
:1020900003E06019FFF707FE1435782DF9D13546B6
:1020A0006435184F2846B8472046B8473046503068
:1020B000B84730463C30B847049F7561B4617068DA
:1020C000401C7060F863F86AF169884200D9F061D9
:1020D000142141439348401814300399FFF707FE39
:1020E000FFF71CFE31690120002908D03268F96A27
:1020F000D26A8A4203D20446FFF774FE204607B034
:10210000F0BDC046A71C0008FEB5854EF06A002849
:1021100007D0706B401C7063FFF7A2FD002003B076
:10212000F0BDB06A471CB76208D17069B1697161CE
:10213000B061B06B401CB063FFF7CAFC706A8742A5
:1021400001D200242FE00020019002907069006805
:10215000002824D07069C068C4686068874220D3B2
:10216000251D2846FFF766FDA06A002803D02046FB
:102170001830FFF75FFDE06AF169884200D9F0612D
:10218000142141436748401814302946FFF7AFFD3A
:10219000E06A3168C96A8842D8D30120D5E701983E
:1021A000C0437062029C3068C06A142141435D489C
:1021B00040184069012800D90124706B002801D122
:1021C000FFF74EFD306B002800D00124204603B0FD
:1021D000F0BDC04680000020B0B505460020002DAF
:1021E0001ED0A96C491EA9641AD1696CEA6A8A4298
:1021F00016D02C1D2046FFF71DFD686CE8620521F6
:10220000091AA9614649CA69904200D9C8611421D6
:1022100041434448401814302146FFF768FD01202F
:10222000B0BDC0468000002070B5C068C5682C46AF
:1022300018342046FFF7FEFC394EF06A002802D021
:10224000304650300DE02C1D2046FFF7F3FCE86AC5
:10225000F169884200D9F0611421414331484018A6
:1022600014302146FFF743FDE86A3168C96A8842A5
:1022700002D90120306370BD002070BD180100201C
:10228000F8B5FFF741FD264DE86A401EE862E86AAE
:102290000024002804D0FFF741FD204601B0F0BD26
:1022A000E8680028F7D000271E4E1CE0E86DC768DC
:1022B00038461830FFF7BEFC3C1D2046FFF7BAFC3D
:1022C000F86AE969884200D9E8611421414370182D
:1022D00014302146FFF70BFDF86A2968C96A884265
:1022E00001D301202863286D0028DFD1002F01D001
:1022F000FFF7EEFB6C6B002C09D0FFF705FF002801
:1023000001D001202863641EF7D100206863286B88
:10231000002803D0FFF766FD0124BCE70024BAE7DC
:10232000800000201801002080807F7E7D7C7B7AE9
:102330007978777676757473727171706F6E6E6D71
:102340006C6C6B6A6A696868676666656464636317
:1023500062616160605F5F5E5E5D5D5C5C5B5B5A9D
:102360005A5959585857575656555555545453530A
:1023700052525251515050504F4F4F4E4E4D4D4D65
:102380004C4C4C4B4B4B4A4A4A49494948484847B0
:1023900047474746464645454544444444434343EE
:1023A000434242424241414100000000000000001F
:1023B00001020304060708090000004804000000A9
:1023C0000000004808000000000000484000000035
:1023D0000000004800020000000000480004000067
:1023E000000400480800000000040048200000002D
:1023F0000004004840000000000400488000000085
:102400000004004800010000000400480002000031
:102410003024000800000020100000000401000823
:10242000402400081000002098130000200100083C
:1024300000A24A04409C0000AAAAAAAA0000000028
:04000005080000C12E
:00000001FF
