:020000040800F2
:1000000068060020650100089D07000899070008A0
:1000100000000000000000000000000000000000E0
:100020000000000000000000000000009708000829
:10003000000000000000000011080008B1090008DD
:100040009501000895010008950800089501000831
:100050009501000895010008950100089505000824
:1000600000000000950100089501000895010008B6
:1000700095010008330A00089501000800000000FF
:10008000950100089501000800000000310A0008F1
:1000900095010008950100089501000895010008E8
:1000A00095010008950100089501000895010008D8
:1000B0009501000800000000000000009501000804
:1000C00000F002F800F03EF80CA030C80838241800
:1000D0002D18A246671EAB4654465D46AC4201D180
:1000E00000F030F87E460F3E0FCCB6460126334274
:1000F00000D0FB1AA246AB4633431847300C000031
:10010000500C0000103A02D378C878C1FAD85207D0
:1001100001D330C830C101D504680C6070470000BD
:100120000023002400250026103A01D378C1FBD813
:10013000520700D330C100D50B6070471FB51FBDFB
:1001400010B510BD00F04BF81146FFF7F7FF00F0B7
:10015000DFFD00F063F803B4FFF7F2FF03BC00F02B
:1001600069F800000F4880F308880F480168090EFD
:100170000E4A914205D10E480E4901600E480F49C2
:1001800001600F4880470F480047FEE7FEE7FEE7A3
:10019000FEE7FEE7FEE700000B480C490C4A0D4B5A
:1001A0007047000068060020040000001F000000E7
:1001B0001810024001000000000001400000000093
:1001C000B5090008C100000868000020680600208A
:1001D000680200206802002070477047704775462B
:1001E00000F024F8AE46050069465346C008C0003A
:1001F000854618B020B5FFF7CFFF60BC002749083F
:10020000B6460026C0C5C0C5C0C5C0C5C0C5C0C5AE
:10021000C0C5C0C5403D49008D46704710B5044675
:10022000C046C0462046FFF796FF10BD0048704705
:100230000800002001491820ABBEFEE7260002009E
:10024000704710B50B460021846A1C43846200BFCE
:100250000C4614432146416110BD002904D0826838
:1002600001231A43826003E0826802231A438260FA
:100270007047002904D0C26801231A43C26003E01A
:10028000C26852085200C2607047C26802239A4393
:10029000C260C2680A43C2607047000000B595B0F2
:1002A000404800F085F80121480400F0B3FA01212C
:1002B000480200F0CFFA03200D90032108A8017630
:1002C0000021C1760DA90920C00600F01DFA0FA873
:1002D00000F0CFF800200F90012110A8017000203D
:1002E00011901390042014900FA92E4800F0A6F846
:1002F000052201212B48FFF7A4FF052202212948EE
:10030000FFF79FFF274800F063F802212548FFF719
:10031000BCFF01212348FFF7ACFF01212148FFF773
:100320009CFF00BF01211F4800F070F80028F9D0A1
:100330000121084600F06EFA1B4800F0B1F8194898
:10034000403002901948039000200490022005904C
:1003500000200690802007904000089080000990BF
:1003600020200A9000020B9000200C9002A90E4859
:1003700000F0F0F801210C4800F084F8012202217D
:10038000094800F0DDF8092168460171002141713A
:100390000121817101A800F003FA024800F064F81D
:1003A00015B000BD002401400800024000000020FC
:1003B00010B504460548844207D10121401500F0DC
:1003C00059FA0021601500F055FA10BD00240140D3
:1003D00030B501460020002200238C680125ED077E
:1003E0002C438C6000BF8C68E30FDB07521C0F248A
:1003F0002403A24201D0002BF5D18C68E40FE4075E
:10040000002C01D1086C00E0002030BD30B5024660
:1004100000200023012424060C40002C05D0946801
:1004200001252D06AC43234600E013681C460C4012
:10043000002C01D0012000E0002030BD10B50022CA
:10044000C268084B1A400C7964030B6823438C681C
:100450002343CC6823430C6923434C6923431A4349
:10046000C26010BD03D2FFFF816804221143816086
:1004700070470021016001718160C16001614161CB
:1004800070470000002904D0026801231A4302606B
:1004900003E00268014B1A4002607047FEFF000053
:1004A0000168254A114001600021016041608160BE
:1004B000C1602249884208D12049083949680F2281
:1004C00011431E4A083A516035E01C4914318842F4
:1004D00008D11A4908394968F0221143174A083AE5
:1004E000516028E015492831884209D1134908395B
:1004F00049680F2212021143104A083A51601AE06B
:100500000E493C31884209D10C49083949680F220B
:1005100012031143094A083A51600CE0074950316F
:10052000884208D10549083949680F22120411434D
:10053000024A083A51607047FEFF0000080002407E
:10054000002A03D003680B43036002E003688B4377
:100550000360704710B5002202680D4B1A400C6A08
:100560008B6823430C6923434C6923438C692343E1
:10057000CC6923434C6A23438C6A23431A430260A9
:10058000CB6843600B6883604B68C36010BD00009C
:100590000F80FFFF10B5102000F004F8202000F0BD
:1005A00001F810BD01460020044A52690A40002AA1
:1005B00001D0012000E0002070470000000401404D
:1005C000002120498279002A35D00A461268036842
:1005D0009A430B461A600A46526803689A430B46D0
:1005E0005A60027951180A6803681A430A60154A6A
:1005F000926803689A43134B9A601A46D26803685C
:100600009A43104BDA604279102A0CD11A4692684C
:1006100003681A430B4B9A601A46D26803681A4360
:10062000084BDA600DE00749427951180A680368FF
:100630001A430A6005E0027951180A6803689A4370
:100640000A6070470004014000B585B001214804EC
:1006500000F0E0F80121084600F0FCF8302003909B
:100660000021684601740121C17403A90920C00654
:1006700000F04AF80421002000F00EF905210020C6
:1006800000F00AF9302001900021684601720C2127
:1006900041720121817201A8FFF792FF072168468C
:1006A0000170002141700121817000F079F805B0DE
:1006B00000BD00001CB501210320400400F0AAF891
:1006C0000F480090012168460171002181710321CA
:1006D00041710021C17169460920C00600F014F87B
:1006E000E8200090012168460171002181710321F9
:1006F00041710021C1716946024800F005F81CBD36
:100700004C06000000040048F0B50A460021002312
:10071000002400BF3DE001258D402B4615681D409B
:100720002C469C4234D11579012D02D01579022D29
:1007300016D185684F000326BE40B54385605579C4
:100740004E00B540866835438560858801268E4019
:10075000B5438580858896798E40B6B235438580CD
:1007600005684F000326BE40B543056015794E006D
:10077000B540066835430560C5684F000326BE4096
:10078000B543C560D5794E00B540C6683543C560F0
:10079000491C1029BFD3F0BD00BFFEE77047000021
:1007A00000218278002A27D0184A03231B02D2187E
:1007B00003789B109B00D15802789207D30EFF223A
:1007C0009A400B469343194642789207120E0378DB
:1007D0009B07DB0E9A4011430C4A03231B02D218DD
:1007E00003789B109B00D1500278D306DB0E0122C8
:1007F0009A40064B1A6007E00278D306DB0E01220E
:100800009A40024B80331A607047000000E100E01C
:1008100070470000002905D0054A52690243044B85
:100820005A6104E0024A52698243014B5A6170479F
:1008300000100240002905D0054AD2690243044B4A
:10084000DA6104E0024AD2698243014BDA617047FF
:1008500000100240002905D0054A92690243044B6A
:100860009A6104E0024A92698243014B9A6170479F
:1008700000100240002905D0054AD2680243044B0B
:10088000DA6004E0024AD2688243014BDA607047C2
:10089000001002407047704730B500228B071C0FD4
:1008A0000F23A3401A460B4B8C10A4001B599343F3
:1008B000084C8D10AD00635123468C10A4001B59C9
:1008C0008C07250F0446AC402343024C8D10AD002D
:1008D000635130BD0800014010B500F001F810BDB3
:1008E0000CB50020019000902F48006801210843BA
:1008F0002D49086000BF2C48006802210840009084
:100900000198401C01900098002804D1052109039A
:1009100001988842EFD1244800680221084000284D
:1009200002D00120009001E00020009000980128F2
:1009300038D111201D4908601B4840681A49486099
:10094000084640684860084640687F21C9038843DC
:100950001549486008464068C90008431249486084
:10096000084600680121090608430F49086000BFD6
:100970000D4800680121490608400028F8D00A48BF
:1009800040688008800008494860084640680221A5
:1009900008430549486000BF034840680C210840EF
:1009A0000828F9D10CBD00000010024000200240D0
:1009B0007047000010B51B48006801210843194921
:1009C00008600846406818490840164948600846CB
:1009D000006816490840134908600846006801216C
:1009E000890488430F490860084640683F2109048C
:1009F00088430C4948600846C06A00090001C86283
:100A00000846006BFF2154318843064908630846B5
:100A1000406B40084000486300208860FFF75CFF9F
:100A200010BD0000001002400CB8FFF8FFFFF6FEFA
:100A300070477047002904D0028801231A430280BE
:100A400003E00288014B1A4002807047FEFF00005D
:100A5000002907D04422125A0123DB031A434423FE
:100A60001A5205E04422125A53045B0C44221352DA
:100A70007047002A03D083890B43838102E0838976
:100A80008B4383817047000070B50024002200234F
:100A9000058C1C4E35400584028C8388048B194DCF
:100AA0006F3D2C40B51E2C400D882C43751E2A40EE
:100AB0008D892A434D882A43134DA84208D0134DEF
:100AC000A84205D0124DA84202D0124DA84212D120
:100AD0000C4DED1F2A40CD892A430A4DED1E2A40B8
:100AE0008D882A43074DFF3D2B400B4D2B400D8A2F
:100AF0002B434D8A2B43838004838D684563028496
:100B000070BD0000FEFF0000002C014000400140CD
:100B10000044014000480140FFFD0000002202881F
:100B2000154B984206D001239B07984202D0134BE5
:100B3000984203D1124B1A404B881A43114B9842EA
:100B400003D0114B1A400B891A4302804B68C362D1
:100B50000B880385084B984208D00C4B984205D06F
:100B60000B4B984202D00B4B984201D18B7A0386F3
:100B70000123838270470000002C014000040040E4
:100B80008FFF000000100040FFFC0000004001400B
:100B9000004401400048014000B58BB001214804E9
:100BA000FFF738FE01210802FFF744FE022108A8E2
:100BB0000172002181728020099008A8C17203216E
:100BC000417209A90920C006FFF79EFD0021684671
:100BD0008181C1802F218180FF209030029001A966
:100BE0000B48FFF79BFF00216846018460210182CA
:100BF00000214184C18381830421818201214182BA
:100C00000020069004A90248FFF73EFF0BB000BD8C
:100C1000002000401FB501214804FFF7FBFD012122
:100C20000802FFF707FE002168468181C1802F215D
:100C30008180FF209030029001A90D48FFF76EFFE0
:100C4000012220210B48FFF714FF01210948FFF77B
:100C5000F1FE01210748FFF7FBFE0D2168460170F8
:100C60000021417001218170FFF79AFD1FBD000036
:100C700000200040002C014000B58BB00121880409
:100C8000FFF7C8FD01210220FFF7D4FD022108A8CB
:100C900001720021817210200990012108A8C172FF
:100CA0000321417209A91848FFF72EFD002168466B
:100CB0008181C1802F218180FF209030029000210E
:100CC0006846817301A91148FFF728FFFF21013110
:100CD000684601846021018200214184C1838183AF
:100CE00004218182012141820020069004A9074845
:100CF000FFF7CAFE01210548FFF79CFE01210348CA
:100D0000FFF7A6FE0BB000BD000400480004004041
:100D1000FFF7D0FCFFF798FCFFF7C0FAFFF77AFF68
:100D2000FFF7AAFFFFF738FF00BFFEE74C0D0008F2
:100D3000000000200800000004010008540D000815
:100D400008000020600600002001000800000000EC
:040D5000000000009F
:04000005080000C12E
:00000001FF
