:020000040800F2
:1000000078120020D50000084D250008E5200008E2
:1000100000000000000000000000000000000000E0
:10002000000000000000000000000000652900083A
:10003000000000000000000061270008812B00087C
:100040000501000805010008050100080501000878
:10005000050100080501000805010008C91700088E
:100060000000000005010008050100080501000866
:100070000501000805010008050100080000000056
:10008000050100080501000800000000292C0008F7
:1000900005010008050100088D2C00080501000875
:1000A0000501000805010008050100080501000818
:1000B0000501000800000000000000000501000824
:1000C0000348854600F09EFC004800472938000898
:1000D000781200200C4880F308880C480168090E4B
:1000E0000B4A914205D10B480B4901600B480C4962
:1000F00001600C4880470C480047FEE7FEE7FEE73A
:10010000FEE7FEE7FEE70000781200200400000092
:100110001F00000018100240010000000000014014
:1001200000000000AD2B0008C100000830B50B46F0
:10013000014600202022012409E00D46D5409D42C1
:1001400005D31D469540491B254695404019154647
:10015000521E002DF1DC30BDD2B201E00270401C15
:10016000491EFBD270470022F6E710B513460A4637
:1001700004461946FFF7F0FF204610BDF8B50246C9
:100180004A40D40F42004B0052085B089A4202D208
:100190000246084611464A0023D0C30D4A00DDB28C
:1001A000120EAD1A202D35DA49020126490AF6054C
:1001B0008A19002C00D0524220214F1B1146B94011
:1001C0002A411018C20D9A4221D0002C17D0012DBF
:1001D00008DCDA05801AD20F8019D207DBB200F0F2
:1001E00079FBF8BDDA05801A012340001B06C01810
:1001F00080185A428018CA0F1043490007E0490886
:10020000C2071143DA05801A80194008801800F0EF
:1002100059FBF8BD61000122511A001BF7E70122CA
:10022000D2075140AAE70122D2075040A6E7024672
:1002300070B54A40D30FDB0740002DD04A002AD0CA
:10024000010E140E000212020919400A520A841803
:10025000E50104465443000A120A2E045043A4192F
:100260004219200CC543AA18120C0125AD03521CDB
:10027000521912047F39240400D0521C104301D4B7
:100280004000491EC2B20C06C0092018401C40089C
:10029000802A02D003E0002070BD40084000002901
:1002A00000DA0020184370BD70B502464A40D50FF1
:1002B00040004A00ED0740085208002814D0002AE8
:1002C00012D0C40DD30D41020120C0055202490ACB
:1002D000520AE41A091812187D34914201D3641CA1
:1002E00000E04900002C01DA002070BD002391429B
:1002F00001D3891A0343400849000028F7D1002997
:100300000AD0914202D10121C90705E0914201D2F0
:10031000012101E00121C943E005C018401900F0A6
:10032000D1FA70BDF0B507460846584087B0C00FF7
:10033000049048000E46590040084908BC1A8841FC
:1003400005D2384631461E4617460B46024658002F
:10035000400810434CD0300D039040055900400D2B
:10036000490D0590401A0290402872DA18030121C5
:10037000000B09050843019004980092002805D05D
:100380000199524200208841009201900298402138
:100390000A1A0199009800F061FA05460C466B466E
:1003A00007CB00F07CFAC0197141039A0E0D0023AF
:1003B000D71756401A467A40164344D0049A002A6A
:1003C0002DD0029A012A039A15DC1205C01A914118
:1003D00001263605001C7141D20F059ED2070093FD
:1003E000019202962A46234600F0BAFA07B0F0BD01
:1003F00038463146FAE71605224A0F46B218C01AA7
:10040000B74101210905001C4F4100187F411146E9
:1004100018187941E20F10436D19644113E0E207A7
:100420006D0815436408C2071443039A0126120598
:10043000C01A91413605001C7141CE074008304377
:100440004908C01851412A46234600F07CFACDE7FE
:10045000FFE7049801224000C117121A00238B41C4
:1004600004983146C417381AA141EEE730B401248C
:10047000E407634030BC55E730B40124E407614031
:1004800030BC4FE70000E0FFF0B51FB488B00B9917
:100490000998002448400999C00F4900490809916A
:1004A000C0070B990090490049080B9109990898D9
:1004B000A64608431CD00B990A98084318D00998FF
:1004C00001244000420D4800410D09982405000315
:1004D000000B204309900B980003000B20430B9066
:1004E00050181C494018002201901446104605E09F
:1004F000002001460DB0F0BD032801DA034600E0FC
:1005000003239C46C11A0AAE0AE05F0008ADED5B0A
:100510004F00F75B7D430027AA187C41491C5B1EF6
:100520006145F2DD410004AB5A522104120C0A432A
:10053000240C401C0828DFDB0198029000997046CB
:1005400001910090059B049A0799069800F008FA1B
:10055000D0E700000DFCFFFFF0B50C465C4085B015
:10056000E40FE40703944C00002664085900944605
:10057000490802460296224321D062460A431ED011
:100580006200570D4A000E032303550D0124024655
:100590002C492405781B1B0B360B4018234326439C
:1005A000614600901C46501AB44103D30098401C89
:1005B000009002E0921800985B41002803DA0020C6
:1005C000014605B0F0BD0020012109050746864619
:1005D00011E064461D46141BB54106D36546521B07
:1005E000B341744607430C43A646CD07400849086B
:1005F000284392185B4105460D43EAD11046184343
:1006000013D06046194650407140084306D06046FA
:10061000101AB34106D20122002306E00022012372
:10062000DB0702E00122D243531000987446010513
:10063000381C6141029C039D0019694100F083F957
:10064000BFE70000FD0300000122D207002800DB05
:10065000101A002900DB511A814201D8012070478D
:10066000002070470122D207002800DB101A002961
:1006700000DB511A814201D30120704700207047EE
:100680000122D207002800DB101A002900DB511AD2
:10069000814201D9012070470020704710B5002920
:1006A00004DB0C460121C9074042A141002B04DBB9
:1006B0001C460123DB075242A341801A994101D312
:1006C000012010BD002010BD10B5002904DB0C4630
:1006D0000121C9074042A141002B04DB1C46012334
:1006E000DB075242A341101A8B4101D3012010BDF8
:1006F000002010BDC217C10F504010B54018CA07E6
:100700009623002100F0E6F810BD00000EB5C217D8
:10071000C10F5040CA0740180021054B02930192B7
:1007200000910A460B4600F01BF903B000BD000023
:10073000330400000EB505490291002100910A46DC
:100740000B46019100F00CF903B000BD330400002A
:10075000410040020122400AD205090E80187F297B
:1007600001DA00207047962903DC9622511AC8400E
:10077000704796398840704770B5CD0F4A0009031D
:100780000123090B1B0519430B4BED070024520DE8
:100790009A4201DA002070BD074B34339A4203DCE1
:1007A0009A1A00F06BF802E00449511888402C4373
:1007B000F1D0404270BD0000FF030000CDFBFFFF01
:1007C0004A0009030123090B1B051943094B10B506
:1007D000520D9A4201DA002010BD064B34339A4282
:1007E00003DC9A1A00F04AF810BD034951188840FA
:1007F00010BD0000FF030000CDFBFFFFC20FD207BA
:10080000400040080BD0C10D0723DB01C91840028E
:100810000905400A1143C2084007114370470020F0
:1008200001467047CB0FDB07490010B54908024667
:100830000A4307D00A0D07240903E401090B121B20
:10084000002A01DC002010BDC900440F0C43C10088
:10085000E018D205801800F035F810BD10B5202A38
:1008600004DB0146203A9140002010BD9140202336
:100870009C1A0346E3401943904010BD10B5202A4E
:1008800004DB0846203AD040002110BD0B46D3407F
:10089000D0402024A21A91400843194610BD10B53B
:1008A000202A06DBCB170846203A1041C1170B431C
:1008B00006E00B461341D0402024A21A9140084381
:1008C000194610BD002904DA401C490001D1400836
:1008D0004000704770B40024050C05D110240004BA
:1008E00002D1002921D01124050E01D100020834C3
:1008F000050F01D10001241D850F01D18000A41C2A
:10090000002801DB4000641C002908D020252E1B94
:100910000D46F540A14000D00121294308430106BE
:100920001B1B000ADB1D02D5002070BC7047DB05D5
:10093000181880180029F8DA401C4900F5D170BC5D
:1009400040084000704710B5002B08DA0024401C16
:10095000614192185B411A4301D14008400010BD2B
:10096000F0B51FB482B005460C0003D0084603F072
:1009700091FF02E003F08EFF2030024600902146F6
:100980002846FFF76BFF049B059A04460F46184361
:100990001143084314D0184610431BD0009840213F
:1009A0000A1A18460599FFF769FF05460E46009A90
:1009B00005990498FFF752FF084305D0012004E091
:1009C0002046394607B0F0BD0020C11705430E434D
:1009D0002C43374300990E986305401A7905E40AC1
:1009E00000220C43FD0A0A3002D500200146E9E747
:1009F0000105101969410C9C0D9D00196941FFF713
:100A0000A2FFDFE7064C0125064E05E0E36807CCB0
:100A10002B430C3C98471034B442F7D3FFF754FBF8
:100A2000204E0008404E000881B068460021018039
:100A3000FFE768460088002806DCFFE7FFE700982C
:100A4000401C69460880F4E701B0704710B584B0D7
:100A50000A46034603AC207002A801700178082002
:100A60000192009300F078FE04B010BD80B584B010
:100A7000014603AA107010780123029119460192D1
:100A80000093FFF7E3FF01980078009900F007F862
:100A900001980078009900F012F804B080BD10B5FC
:100AA00084B00A46034603AC207002A801700178A6
:100AB00006200192009300F04FFE04B010BD10B567
:100AC00084B00A46034603AC207002A80170017886
:100AD00007200192009300F03FFE04B010BD70B5F6
:100AE0008AB00A46034609AC2070089107A8002185
:100AF000017025780126069028460591314604921A
:100B0000039302940196FFF7CAFF029800780199B7
:100B1000FFF79CFF029800780599FFF797FF05986B
:100B200006990870FFE707A800780F282CDCFFE77C
:100B300008A840780006002806D5FFE709A8007835
:100B40000121FFF7BCFF05E009A800780021FFF7AD
:100B5000B6FFFFE7FFF768FF09A8017800220090C1
:100B600008461146FFF79BFFFFF75EFF00980078ED
:100B70000121FFF794FF089840000890FFE70798CD
:100B8000401C07A90870CEE709A800780121FFF7EB
:100B90005DFF0AB070BD0000F0B595B01C4615466B
:100BA0000E460746089014A80790089806910799E2
:100BB000087013A80699018011931092264A0D928D
:100BC000264A0C92109A119B0B930A920A9A0B993F
:100BD000002305902248049010461A46049B039473
:100BE000029501960097FFF7B7FC0B910A900A98BF
:100BF0000B990C9A0D9BFFF747FC0B910A900A98F2
:100C00000B99FFF7B9FD099009980F900F981549B6
:100C100008400F90099880130E900E9808400E908F
:100C20000F9805990A8810430F900E980A88104370
:100C30000E900798007821221102FFF750FF0798C5
:100C400000780F99FFF74BFF079800780E99FFF790
:100C500046FF15B0F0BDC04608267741CE98ED7826
:100C600080842E41FF3F000070B588B013460C46CB
:100C7000054607AE307006A8018005A802800698D8
:100C800004A908800598049A02430A8030780988EC
:100C9000039302940195FFF722FF08B070BDF0B5F1
:100CA0008DB01C4615460E46074607900CA80690C8
:100CB000079805910699087005980B900A92099378
:100CC00000220892089A0B9B1A430A9B1A43099B1D
:100CD0001A4308920878089904940395029601979C
:100CE000FFF7FDFE0DB0F0BDF0B593B01C46154604
:100CF0001A9E199F0B9018980A90084609900B9815
:100D0000089012A807900B9806910799087006980A
:100D100011900F930E920878012211020594049508
:100D2000039602970192FFF7DAFE079800782121D7
:100D30000902FFF7D4FE0798007811A909880F9BD4
:100D40000E9AFFF729FF0798007818A9098819AAB1
:100D50001288FFF789FF119801998A03904203D105
:100D6000FFE700200D9003E00120C0020D90FFE797
:100D7000189803218903884203D1FFE700200C90D3
:100D800003E0012080020C90FFE712A800781A9976
:100D90000D9A0C9BFFF783FF13B0F0BD80B590B0A8
:100DA0000A4603460E900DA80170007802280592AD
:100DB000049303DCFFE700200F9063E00E980068C7
:100DC0000C900E9800680B9000200A900990FFE7A5
:100DD00009980DA9097888422DDAFFE70E9809993C
:100DE000890040580C99FFF72FFC002806D1FFE737
:100DF0000E980999890040580C90FFE70E980999C0
:100E0000890040580B99FFF72DFC002806D1FFE719
:100E10000E980999890040580B90FFE70E980999A0
:100E2000890041580A98FFF7A9F90A90FFE7099845
:100E3000401C0990CCE70C990A98FFF7F0F90A904A
:100E40000B990A98FFF7EBF90A900A98FFF7D6FC7E
:100E50000DAA1278921E039010460291FFF756FCDD
:100E6000039A01901046029B00911946019A009B3B
:100E7000FFF772FB0791069006980799FFF7D2FCDF
:100E80000F90FFE70F9810B080BDB0B587B0134644
:100E90000C460546069005910492002003900598A3
:100EA00006998A6A02438A6203980721884303905D
:100EB00004980399014303910398069948610293AA
:100EC0000194009507B0B0BD84B00A460346039074
:100ED00002A80170007800280192009306D0FFE775
:100EE0000398816801221143816005E003988168BD
:100EF000022211438160FFE704B0704784B00A46C4
:100F00000346039002A80170007800280192009324
:100F100006D0FFE70398C16801221143C16005E0D4
:100F20000398C16801229143C160FFE704B0704794
:100F300010B584B00A460346039002910398C16835
:100F40000224A143C16002980399CC680443CC6099
:100F50000192009304B010BD80B59CB04F4808903A
:100F600000F082F80120410407900846079901F03B
:100F70006DFC07984002079901F0BCFC0320149017
:100F800014A908710020C8710922D20606901046E3
:100F900000F098FF16A8059000F0EDF9069816905D
:100FA0000799059A117118901A9004231B930898B9
:100FB000114600F0E3F805200899049008460799C7
:100FC000049AFFF762FF02200899039008460399EC
:100FD000049AFFF75AFF089800F062F80899029007
:100FE00008460399FFF7A4FF08980799FFF786FFC3
:100FF00008980799FFF768FFFFE72848012100F0EC
:1010000090F8002801D1FFE7F7E70120019001994E
:1010100001F01CFC1248009000F0E0FA1148099021
:10102000BC480A9000200B9002210C910D90802169
:101030000E9101990A020F928A02109220221192B7
:101040004A031292139009A9009800F04DFB0098F2
:10105000019900F0A9FA114800F082F91CB080BD96
:10106000080002404024014080B584B0014603904E
:1010700003980A4A904202910ED1FFE701204102F3
:1010800001900846019A0091114601F04FFC0021A1
:10109000009801F04BFCFFE704B080BD0024014044
:1010A00088B00146079000200690059004900798AC
:1010B00082680123DB071A4382600391FFE70798E8
:1010C00080680121C907084004900598401C0590DC
:1010D000FFE7059800210F221203904202910BD0E6
:1010E000FFE70498012100280190009101D10198A7
:1010F000009000980290FFE70298C0070028DED118
:10110000FFE707988068C00F002804D1FFE7079821
:10111000006C069002E000200690FFE7069808B0F9
:10112000704786B00A4603460590049103A8002143
:101130000170029104A8C078C007002801920093B2
:1011400007D0FFE7059880680121090688430290CF
:1011500003E0059800680290FFE7029804990842AE
:1011600004D0FFE703A80121017003E003A80021D8
:101170000170FFE703A8007806B0704710B585B08E
:101180000A46034604900391002002900498C06828
:10119000029002980C490840029003980168047973
:1011A0006403214384682143C468214304692143C3
:1011B0004069014302980843029002980499C8606C
:1011C0000192009305B010BD03D2FFFF80B594B02B
:1011D00013A80021018012A80180119110910F9194
:1011E0000E910D91022000F059FA012800D08FE0F5
:1011F0004848016813AA1180408812A9088008880D
:1012000045494143080B0C92FFF774FA119011986D
:10121000FFF7F4FA414A424BFFF736F9FFF702FBBA
:1012200040490A789200404B98500C9800880B91E6
:101230000A93FFF76BFA3D4A3D4B0992FFF724F9F9
:1012400000223C4B0892FFF787F9FFF7EBFA10906A
:1012500010983949FFF728F80F900F9837490790F1
:10126000FEF7E5FFFFF7CAFA354B089AFFF75AF881
:10127000079A069010460591FFF7C0FA314A099B7C
:101280000490184603911146049A039BFFF7EEF869
:10129000069A02901046059B01911946029A019BFD
:1012A000FFF75AF9FFF7BEFA0E900E982649274A23
:1012B0009F2302F00FFA0D900D980B990A78920077
:1012C000234B98500F20009018460099FFF766FDB9
:1012D000FFF794FA1F4B089AFFF724F8FFF7A2FADA
:1012E0001D4908600A980099FFF758FD1B490860DE
:1012F0000B980178491C01700178102904DBFFE785
:10130000084800210170FFE7022000F03BF9FFE7E9
:1013100014B080BDC8000020E40C0000B1E1E995E4
:10132000B28C0740B80000200400002066666666A4
:1013300066660A400000B040000030410000FF43F4
:1013400000B06C4066660440E0480008604B00084E
:10135000080100200000F8BF54010020BC0000205C
:1013600082B0014601900198826804231A4382608A
:10137000009102B0704782B00146019001980022AE
:10138000026001980271019882600198C260019820
:10139000026101984261009102B0704780B584B04B
:1013A00006486946486005200860054805498022CE
:1013B000002303F0C3F8039004B080BD6001002057
:1013C0008D210008164E000880B58CB001460BAA8E
:1013D00010701078401E03280A91099000D9C3E0CC
:1013E0000998C0467844007940008744012F5F8FF8
:1013F0005F480078002809D1FFE701200F210890FD
:1014000000F0CEF95A480899017012E05848007867
:1014100001280DD1FFE701200021079100F0C0F95C
:1014200053480799017053480278521C0270FFE735
:10143000FFE750480078012806DBFFE74E4800210F
:1014400001704C48017000E0FFE78EE048480078EA
:10145000002809D1FFE701200F21069000F0A0F934
:1014600043480699017012E04148007801280DD1E7
:10147000FFE701200021059100F092F93C48059911
:1014800001703C480278521C0270FFE7FFE73948C0
:1014900000783B490978884206DBFFE7364800219F
:1014A00001703448017000E0FFE75EE030480078EA
:1014B000002809D1FFE701200F21049000F070F906
:1014C0002B480499017012E02948007801280DD1B9
:1014D000FFE701200021039100F062F924480399FD
:1014E000017024480278521C0270FFE7FFE7214890
:1014F000007822490978884206DBFFE71E48002170
:1015000001701C48017000E0FFE72EE018480078E9
:10151000002809D1FFE701200F21029000F040F9D7
:1015200013480299017012E01148007801280DD18A
:10153000FFE701200021019100F032F90C480199E8
:1015400001700C480278521C0270FFE7FFE709485F
:101550000078022806DBFFE70748002101700548F4
:10156000017000E0FFE700E0FFE70CB080BDC0467F
:10157000C1000020C0000020C200002001000020A7
:101580004900002082B00146019001A8C078C00641
:101590000028009101D5FFE703E001983E4908606B
:1015A000FFE702B07047C04684B00A460346039086
:1015B00002A80170007800280192009306D0FFE78E
:1015C0000398016801221143016005E00398016856
:1015D0002B4A11400160FFE704B0704782B001461A
:1015E000019001980268264B1A400260019800227F
:1015F000026001984260019882600198C26001987F
:10160000204A9042009106D1FFE7234801680F224B
:101610001143016032E001981B49884206D1FFE77F
:101620001D480168F0221143016026E00198174926
:10163000884207D1FFE7184801680F2212021143C0
:10164000016019E001981249884207D1FFE712486A
:1016500001680F221203114301600CE001980D494B
:10166000884207D1FFE70C4801680F22120411439A
:101670000160FFE7FFE7FFE7FFE7FFE702B0704722
:10168000FEFF0000080002401C0002403000024043
:1016900044000240580002400400024084B0014669
:1016A000039002A800220270019203A8C078C0062D
:1016B0000028009101D5FFE703E00A480068019087
:1016C000FFE701980399084204D0FFE702A801212F
:1016D000017003E002A800210170FFE702A8007872
:1016E00004B070470000024010B585B00A460346BA
:1016F00004900391002002900498006802900298E0
:1017000014490840029003988168046A21430469DF
:1017100021434469214384692143C4692143446AC4
:101720002143806A01430298084302900298049979
:1017300008600398C0680499486003980068049999
:101740008860039840680499C8600192009305B0CE
:1017500010BDC0460F80FFFFB0B588B00A460346F3
:1017600007AC207006A801702178C9000B4D69589C
:1017700005912178C9006918898804AC21800599F0
:1017800024880078039008462146039C0292224652
:10179000019300F08BFC08B0B0BDC0464C000020A7
:1017A00010B584B00A46034603AC207002A801803D
:1017B00021788900034C6158008801920093884782
:1017C00004B010BDE04D000880B582B0202000F0CC
:1017D00037F800280ED0FFE70920C006202101912C
:1017E00000F01EFC012148400F490870019800F0EC
:1017F0001DF815E0102000F023F800280ED0FFE7B8
:101800000920C0061021009100F00AFC0121484087
:1018100004490870009800F009F800E0FFE7FFE7CE
:1018200002B080BDDC000020D400002082B0014660
:10183000019001980F4A1060009102B07047C046B5
:1018400083B00146029001A8002202700948006896
:10185000029A1042009104D0FFE701A80121017013
:1018600003E001A800210170FFE701A8007803B0A0
:101870007047C0461404014083B001460290002026
:1018800001902D480190029880790028009144D061
:10189000FFE70298006828490A6882430A600298B4
:1018A000006826490A6882430A6002980079019913
:1018B000081801900298006801990A6802430A60BA
:1018C000029800681E490A6882430A60029800680C
:1018D0001C490A6882430A600298407910280DD199
:1018E000FFE70298006816490A6802430A600298F6
:1018F000006814490A6802430A600DE00E4801902E
:10190000029840790199081801900298006801999D
:101910000A6802430A60FFE70BE002980079019928
:10192000081801900298006801990A6882430A60C9
:10193000FFE703B07047C0460004014004040140C3
:10194000080401400C04014080B586B001460590B2
:1019500004A804220270002203901046029100F0B5
:1019600065F8BFF36F8F0B20000400F0CBF80399EC
:101970000870087804281BD1FFE75E48016802223E
:101980001143016005990E4B19600168402319430A
:1019900001600B21090401900846009200F0B2F8A2
:1019A00004A9087001980168009A91430160FFE75B
:1019B000012000F03BF804A8007806B080BDC046C6
:1019C0001420024081B06846042101701348006869
:1019D000C007002804D0FFE768460121017019E024
:1019E0000E480068C006002804D5FFE768460221BB
:1019F00001700EE0094800684007002804D5FFE7A1
:101A000068460321017003E0684604210170FFE786
:101A1000FFE7FFE76846007801B070470C200240FE
:101A200034480168802211430160704782B001464A
:101A300001AA107010780028009106D0FFE707482F
:101A4000016810221143016005E00448016810227A
:101A500091430160FFE702B07047C046002002409A
:101A600080B58AB00A4603460990089107A8042168
:101A70000170002106910590084604920393FFF738
:101A8000D5FFBFF36F8F0B20000400F03BF80599E2
:101A900008700878042817D1FFE71648016801226A
:101AA000114301600899099B19600B2109040290F8
:101AB0000846019200F026F807A90870029801680C
:101AC000019A91430160FFE70120FFF7AFFF07A8EC
:101AD00000780AB080BDC0460648006800060028AD
:101AE00006D5FFE704480549016005490160FFE7A5
:101AF0007047C04610200240042002402301674581
:101B0000AB89EFCD80B588B00146079006A80422C6
:101B1000027005910490FFF755FF04990870FFE7E4
:101B200006A800780021012803910BD1FFE7079850
:101B3000012100280290019101D1029801900198A1
:101B40000390FFE70398C007002808D0FFE7FFF7DE
:101B500039FF06A908700798401E0790E0E707982C
:101B6000002804D1FFE706A805210170FFE706A8B9
:101B7000007808B080BD10B588B001204104029003
:101B80000846029900F062FE0298029900F0B2FE47
:101B90003020069006A900220A71029BCB7109240D
:101BA000E40601902046009200F08CF90421009890
:101BB00000F0DAFE0521009800F0D6FE01980490AE
:101BC00004A9009A0A7110234B71029B8B7108467D
:101BD000FFF752FE03A80721017000994170029A95
:101BE000827000F0B5FC08B010BD80B586B0012051
:101BF000410403900846039900F028FE0720C00125
:101C0000049004A803990171002282710323437197
:101C1000C2710923DB0602901846029901920093D3
:101C200000F050F90398810204910199029A117110
:101C3000D0710098114600F045F906B080BD000053
:101C400080B586B00120810403900846039900F016
:101C5000FDFD03980102974A1046039B02921A4623
:101C600000F024FA039841020298039A00F01EFA49
:101C70000E48049004A80399017100228271032385
:101C80004371C171029B019018460199009200F0C6
:101C900019F9039804900099019A1171D071029872
:101CA000114600F00FF906B080BDC046EA030000FF
:101CB000B0B58AB013460C4605460990089107A8AE
:101CC000027006A800210170059104930394029507
:101CD00001900091FFF700FF099805900098019985
:101CE0000870FFE706A8007807A90978884210DA8B
:101CF000FFE705980068089906AA127892008850B4
:101D00000598001D0590FFE70698401C06A908707D
:101D1000E8E7FFF785FE0AB0B0BDB0B58CB013465A
:101D20000C4605460A90099108A8027007A80021F0
:101D300001700691059104A8012101700AA800789C
:101D40008007002803930294019504D0FFE70BA8B5
:101D5000032101703DE0FFF7BFFE0A98059005984A
:101D6000FFF7F2FD04A908700878042806D0FFE701
:101D7000FFF756FE04980BA908702AE007A8002177
:101D80000170FFE707A8007808A9097888421ADAE5
:101D9000FFE7099807A90978890040580690059837
:101DA0000699FFF75DFE04A908700878042801D1A0
:101DB000FFE708E00598001D0590FFE70798401C25
:101DC00007A90870DEE7FFF72BFE04980BA908703F
:101DD000FFE70BA800780CB0B0BD000080B58CB058
:101DE00001460B900B980922D20690420A910ED11F
:101DF000FFE70120410409900846099A089111461D
:101E000000F040FD0021089800F03CFD4FE00B98E9
:101E1000284988420ED1FFE7012081040790084637
:101E2000079A0691114600F02DFD0021069800F05A
:101E300029FD3BE00B98204988420ED1FFE70120A5
:101E4000C10405900846059A0491114600F01AFD58
:101E50000021049800F016FD27E00B9817498842EE
:101E60000ED1FFE70120010503900846039A029175
:101E7000114600F007FD0021029800F003FD13E079
:101E80000B980F4988420ED1FFE701208105019090
:101E90000846019A0091114600F0F4FC00210098D8
:101EA00000F0F0FCFFE7FFE7FFE7FFE7FFE70CB01C
:101EB00080BDC0460004004800080048000C0048EF
:101EC0000014004887B00A4603460690059100209A
:101ED000049003900290049001920093FFE704980D
:101EE0000F2863D8FFE704980121814003910598EA
:101EF000006803990840029002980399884250D1E3
:101F0000FFE705980079012805D0FFE705980079DB
:101F1000022822D1FFE7049840000321814006985F
:101F200082688A4382600598407904994900884014
:101F300006998A6802438A6004A8018801228A40BF
:101F400006998B8893438B80059989790088814015
:101F5000069882880A438280FFE7049840000321A4
:101F60000A46824006980368934303600598007907
:101F7000049A52009040069A13680343136004A821
:101F80000088400081400698C2688A43C260059874
:101F9000C0790499490088400699CA680243CA601A
:101FA000FFE7FFE70498401C049098E707B07047EC
:101FB00070B588B013460C460546079006A8018008
:101FC00005A90A7000220492039209780288520738
:101FD000D20E9140049100884107C90E0F228A4019
:101FE0000799C00880000818016A914301620798A8
:101FF00006994908094A11404018006A04990843A3
:10200000039003980799069E76081640891908627E
:1020100002930194009508B070BDC046FC7F00009B
:1020200085B00A460346049003A8018002A8002157
:1020300001700498008A0399084000040028019266
:10204000009304D0FFE702A80121017003E002A879
:1020500000210170FFE702A8007805B0704700007A
:1020600084B0014603AA10701078C0000E4B1858B7
:1020700002901078C0001818808801AA1080029879
:10208000808A019A104000040028009104D0FFE7E4
:1020900001980299088504E001A8008802998861E6
:1020A000FFE704B07047C0464C000020B0B586B0D2
:1020B00013460C460546059004A8018003A802704B
:1020C0000078002802930194009505D0FFE704A84A
:1020D00000880599886103E0049805990885FFE761
:1020E00006B0B0BDFFE7FEE780B582B001460190C3
:1020F0000091FFE700F01AF900F054FBFAE7000046
:1021000080B5084800F036F8032000F01BF80648B8
:102110000068C00980B200F021F800F00DF800F06E
:1021200005F880BD55550000AC0000201648014957
:1021300001607047CCCC0000134801490160704732
:10214000AAAA000082B0014601AA10701078024AC3
:102150001060009102B070470430004082B0014628
:1021600001AA10801088024A1060009102B07047E6
:102170000830004082B0014601AA10801088024A4F
:102180001060009102B0704700300040B0B58AB0D6
:102190000146099068460022426005230360184802
:1021A000184C80250891214607922A46079C0693E1
:1021B0002346059502F0C2F96946079A4A60069BD4
:1021C0000B601149114C049008462146059A079B63
:1021D00002F0B4F96946079A4A6004230B600C497F
:1021E0000C4B039008461946059A079B02F0A6F986
:1021F000094909680290084602F078F80AB0B0BDB3
:10220000E9200008F14D000825250008FD4D0008D3
:10221000012500080B4E00086001002080B582B047
:102220000020012101900091FFF796FA0098019992
:10223000FFF792FA02B080BD80B586B005A80021F4
:1022400001700078012807D1FFE7364802210170AC
:10225000A3480021017013E0304800683049FEF7C0
:1022600001FA002807D1FFE72E48012101709C48A0
:102270000021017003E02B4800210170FFE7FFE718
:1022800097480078012804D1FFE727480221017010
:1022900003E0254801210170FFE722480078022869
:1022A00009D1FFE70020FFF7DBFE0120049004992D
:1022B000FFF752FA2FE01B48007801280BD1FFE707
:1022C000002003900399FFF747FA0120029002993A
:1022D000FFF742FA1EE000200121FFF73DFA124805
:1022E0000078022804D1FFE70120FFF7B9FE10E0D3
:1022F0000D480078012805D1FFE701200021FFF7F4
:102300002BFA05E0012001900199FFF725FAFFE77C
:10231000FFE7FFE7FFE706B080BDC046BC00002036
:1023200000004845DE000020DD00002080B58AB0B6
:102330000020099008A9087007A90870674800786C
:10234000012804D1FFE707A81921017009E06348BB
:102350000078022804D1FFE707A842210170FFE7B7
:10236000FFE75F480078012800D0A0E004200121A9
:102370000691FFF7F1F903200699FFF7EDF9052023
:102380000699FFF7E9F958480068099009995748F4
:102390007F22D20500F055F9FEF7DAF954490870AA
:1023A0000998FEF72BFA0022524BFEF777F9002826
:1023B0002DD1FFE74B4800884D49097814224A4344
:1023C000904206DAFFE707A801780020FFF7E8F956
:1023D00019E0444800884649097814224A4390424B
:1023E0000CDBFFE73F4800884449884206DCFFE7F2
:1023F000002005900599FFF7D3F903E03948002143
:102400000180FFE7FFE708A8012101704EE009986D
:10241000FEF7F4F90022384BFEF756F900280AD1EE
:10242000FFE707A8017800200490FFF7B9F908A892
:102430000499017039E008A8007801282AD1FFE743
:10244000284800882A49097814224A43904206DA2B
:10245000FFE707A801780020FFF7A2F919E021485B
:1024600000882349097814224A4390420CDBFFE795
:102470001C4800882149884206DCFFE700200390C1
:102480000399FFF78DF903E0164800210180FFE76B
:10249000FFE709E007A8017800200290FFF780F924
:1024A00008A802990170FFE7FFE7FFE714E00420A6
:1024B00000210191FFF750F903200199FFF74CF932
:1024C00005200199FFF748F901980199FFF768F98C
:1024D000044801990180FFE70AB080BD490000204F
:1024E00058010020C400002054010020E400002016
:1024F000000000200000434000804140CF07000062
:1025000080B582B0014601900091FFE700F01CFB0E
:1025100001F052F8FFF790FE7D20800001F0C6FE2A
:10252000F4E7000080B582B0014601900091FFE71A
:10253000FFF702FEFEF74AFE03480078FEF744FF6D
:10254000C82001F0B3FEF3E7C2000020704700008E
:1025500083B0014602900020019002988078002804
:1025600000912BD0FFE7029800781B4908431B4AD3
:10257000104000680190029800788007C00EFF2389
:102580008340019898430190029843789B01DBB205
:1025900000788007C00E834001981843019001988D
:1025A000029B1B780B4313401860029800781F2190
:1025B0000840012181400A48016008E00298007843
:1025C0001F2108400121814002480160FFE703B05C
:1025D0007047C04680E100E000E400E0FCE400E079
:1025E00000E100E0F0B58CB0139C129D119E1F46D7
:1025F00007901046069008460590079804900798A3
:102600000B900A91099208930A990B9A1160099903
:102610000B9A516008990B9A916011990B9AD160AD
:102620000B9900220A610B994A6112990B9A9161E8
:1026300013990B9AD16103940295019600970CB0FF
:10264000F0BDB0B592B013460C46054611901091FE
:102650000F921198C06810990B930A940995FDF791
:10266000DEFD0E900E980F99FDF7E1FD11994A6974
:1026700008901046089A07911146FDF77FFD0799CB
:10268000486111984269C1691046FDF7DDFF0028D5
:1026900004D1FFE71198C16941610FE011984169C8
:1026A0008069069008460699FDF7DCFF002804D1F2
:1026B000FFE7119881694161FFE7FFE70E981199E3
:1026C0000969FDF7ACFD0F99FDF7EEFD0D9011982E
:1026D00001680E9A059008461146FDF7A8FD059978
:1026E0004A68496904901046FDF7A1FD04990390DA
:1026F00008460399FDF742FD05998A680D990290F5
:102700001046FDF794FD0299019008460199FDF7E6
:1027100035FD0C900C981199C969FDF795FF0028BB
:1027200004D1FFE71198C0690C900CE00C98119946
:102730008969FDF797FF002804D1FFE711988069A8
:102740000C90FFE7FFE70E98119908610C9812B002
:10275000B0BD00000000000000000000000000000C
:10276000EFF309800E4B1A6820381060F0C0444621
:102770004D4656465F46F0C008B572B601F054FEAD
:1027800062B60CBC116808681030F0C8A046A946B3
:10279000B246BB4680F309882038F0C81847C046C7
:1027A0006401002080B584B0F4480078012849D144
:1027B000FFE70920C00601214A020023039002918D
:1027C00011461A460193FFF771FC01980299FEF732
:1027D000C3FF02980299FEF7BFFF04200199FEF79C
:1027E000BBFF03200199FEF7B7FF05200199FEF713
:1027F000B3FF02200199FEF7AFFF01980199FEF7A0
:10280000CFFF0398FFF7EAFA0F48FFF7E7FAAF4860
:10281000019900F08DFBBC48019900F089FBC94883
:10282000019900F085FBFFE7D4480078002808D024
:10283000FFE70920C006012149020022FFF736FC0C
:10284000F2E7FFE704B080BD0004004884B00A4608
:102850000346039002A801700078002801920093BB
:1028600006D0FFE7039806490A6802430A6005E0BC
:10287000039803490A6882430A60FFE704B070477F
:102880001410024084B00A460346039002A8017067
:10289000007800280192009306D0FFE703980649CC
:1028A0000A6802430A6005E0039803490A68824304
:1028B0000A60FFE704B070472810024084B00A465F
:1028C0000346039002A8017000780028019200934B
:1028D00006D0FFE7039806490A6802430A6005E04C
:1028E000039803490A6882430A60FFE704B070470F
:1028F0001C10024084B00A460346039002A80170EF
:10290000007800280192009306D0FFE7039806495B
:102910000A6802430A6005E0039803490A68824393
:102920000A60FFE704B070471810024084B00A46FE
:102930000346039002A801700078002801920093DA
:1029400006D0FFE7039806490A6802430A6005E0DB
:10295000039803490A6882430A60FFE704B070479E
:102960000C10024070470000F0B586B00A460346DE
:1029700005AC207004A8017000210391017889073B
:10298000090F0F258D40039503990578FC263540E6
:10299000094F0290E8598843E851207802990C7851
:1029A000A5072D0FA8403440E5590543E551019294
:1029B000009306B0F0BDC0460800014080B500F0AD
:1029C00001F880BD83B00020029001908E4801681C
:1029D000012211430160FFE78B4800680221084093
:1029E00001900298401C0290FFE701980021002806
:1029F000009108D1FFE7029805210903401A411E02
:102A000088410090FFE70098C0070028E4D1FFE765
:102A10007D4800688007002803D5FFE7012001906A
:102A200002E000200190FFE70198012833D1FFE781
:102A30001A4812210160754801680160016801604F
:102A400001687F22D2039143016001683922D203D9
:102A5000114301606C4801680122120611430160B4
:102A6000FFE7694800688001002801D4FFE7F8E724
:102A70006648016803229143016001680222114304
:102A80000160FFE7614800680C210840082801D078
:102A9000FFE7F7E700E0FFE703B0704700200240E0
:102AA00080B584B0014603AA1080002002901088EF
:102AB0006422424302920298044A01901046019A0D
:102AC0000091114600F044FB04B080BD00040040BA
:102AD00080B584B0014603AA1080002002901288BD
:102AE000019010460091FDF711FE064B019AFDF78B
:102AF000CBFCFDF765FE02900299034800F028FB2D
:102B000004B080BD000004400040014080B584B0A6
:102B1000014603AA10800020029010880191FDF761
:102B2000F5FD064A064BFDF7AFFCFDF749FE0290A6
:102B30000299044800F00CFB04B080BD85EB51B84D
:102B40001E45454000440140ED480078012804D16D
:102B5000FFE709480021016004E007480168491CBB
:102B60000160FFE7044800685B2804D3FFE7E848FA
:102B700001210170FFE770474C0100200200002096
:102B800080B582B001F030FA019001F02DFD0028EF
:102B900005D0FFE70120000703490860FFE701981F
:102BA00001F062FA02B080BD04ED00E010B51648F5
:102BB000016801221143016014490B68144C234041
:102BC0000B600368134C2340036003689404A34321
:102BD000036008683F231B04984308600E4801689F
:102BE0000F23994301600D480168FF235433994333
:102BF00001600B480168914301600A4800210160AF
:102C0000FFF7DCFE10BDC046001002400410024079
:102C10000CB8FFF8FFFFF6FE2C1002403010024007
:102C2000341002400810024080B51548012100F020
:102C3000B9F9002822D0FFE7B1480078012814D163
:102C4000FFE710480168491C016000680E4988428E
:102C500009D3FFE70B4800210160A9480170A04893
:102C60000421017000E0FFE703E006480021016055
:102C7000FFE70348012100F04DF9FFE780BDC046A2
:102C8000002000405C010020417E050080B582B03C
:102C90008F48012100F086F9002800D115E18D4808
:102CA0000078012821D1FFE78B480168491C0160A9
:102CB0000068C0087D2816D3FFE78A4800780028FE
:102CC00011D1FFE788480178491C01700078062877
:102CD00004DBFFE784480521017000E0FFE780483E
:102CE0000321017000E0FFE725E07B48006804282D
:102CF0001AD3FFE778480068C0087C2814D8FFE79B
:102D000076480178491C01700078032804DBFFE74E
:102D100072480221017000E0FFE771480221017052
:102D200070480121017000E0FFE76E48002101704A
:102D300069480160FFE76D480078012821D1FFE76D
:102D40006B480168491C01600068C0087D2816D3E3
:102D5000FFE768480078002811D1FFE76248017852
:102D6000491E01700078002804DCFFE75E4801215D
:102D7000017000E0FFE75A480321017000E0FFE71F
:102D800025E05B48006804281AD3FFE7584800682C
:102D9000C0087C2814D8FFE750480178491E01700C
:102DA0000078002804DCFFE74C480121017000E0B6
:102DB000FFE750480121017049480221017000E0FD
:102DC000FFE74C480021017049480160FFE70920F6
:102DD000C00601218A0201911146FFF721F90199EC
:102DE0004840454A10701078012833D1FFE7434826
:102DF0000168491C016000684449884211D3FFE71B
:102E00004348007801280CD1FFE73F4800780028AC
:102E100007D1FFE73E48002101703B4801210170C6
:102E200017E0364800683949884210D3FFE7384830
:102E3000007800280BD1FFE733480078002806D13E
:102E4000FFE73348012101702F48017000E0FFE7E0
:102E5000FFE735E02948006804282AD3FFE7274820
:102E60000068C0087C2824D8FFE72548007801289E
:102E700005D0FFE723480078002807D0FFE7204867
:102E80000021017016480421017011E01C480078EF
:102E900000280BD1FFE71B480078002806D1FFE788
:102EA0001748012101700E48017000E0FFE7FFE7BD
:102EB00000E0FFE714480021017010480160FFE7BF
:102EC000DD48012100F026F8FFE702B080BDC046D2
:102ED00000480140D4000020D0000020490000201C
:102EE000C20000205001002001000020DC00002072
:102EF000D80000204800002004010020E00000204D
:102F000058010020DE00002051010020E9030000EC
:102F10000200002084B00A460346039002A8018004
:102F20000298C043039908820192009304B070474D
:102F300084B00A460346039002A801700078002876
:102F40000192009306D0FFE7039801880122114304
:102F5000018005E003980188012291430180FFE789
:102F600004B0704784B00A460346039002A801707B
:102F7000007800280192009308D0FFE703984421CD
:102F8000425A0123DB031A43425206E003984421CC
:102F9000425A034B1A404252FFE704B07047C04602
:102FA000FF7F0000B0B587B00A460346069005A82B
:102FB000018004A80021017003A8018002AC2180D7
:102FC0000699098A059D2940018006998989059DF0
:102FD00029402180008800280192009309D0FFE752
:102FE00002A80088002804D0FFE704A8012101708E
:102FF00003E004A800210170FFE704A8007807B0EF
:10300000B0BDB0B586B013460C460546059004A881
:10301000018003A8027000780028029301940095B3
:1030200006D0FFE7049805998A8902438A8106E061
:1030300004A8008805998A8982438A81FFE706B03F
:10304000B0BD0000F0B587B00A4603460690059172
:1030500004A80021018003AC218002AD29800699DB
:103060000E8C0127BE430E840699098C2180069997
:10307000898829800699098B018001887025A943D8
:10308000018001880325A943018005990988049DD1
:103090000D4305802088022188432080059880897F
:1030A00003990143218005984088039901432180B9
:1030B00006985E498842019200930FD0FFE7069878
:1030C000A14988420AD0FFE70698CC49884205D03A
:1030D000FFE70698E349884227D1FFE703A8018864
:1030E0000822914301800599C989039A0A43028005
:1030F000018804229143018005998988039A0A4333
:10310000028002A80188104A1140018001880F4AFC
:10311000114001800599098A029A0A4302800599A3
:10312000498A029A0A430280FFE70298069988803A
:10313000049806990883059880680699486303985F
:103140000699088407B0F0BDFFFE0000FFFD0000F7
:1031500084B00A460346039002910298039948639B
:103160000192009304B0704785B00A46034604906C
:10317000039102A800210180049909880180049824
:103180002A498842019200930BD0FFE7049801215D
:103190008907884205D0FFE70498E14988420BD1AE
:1031A000FFE702A8018870229143018003994988B2
:1031B000029A0A430280FFE704981D4988420BD017
:1031C000FFE702A801881B4A114001800399098981
:1031D000029A0A430280FFE7029804990880039844
:1031E00040680499C8620398008804990885049887
:1031F0000E4988420FD0FFE70498534988420AD00D
:10320000FFE704987D49884205D0FFE70498954977
:10321000884205D1FFE70398807A04990886FFE782
:1032200004980121818205B07047C046002C0140FE
:1032300000100040FFFC00000048014080B588B04D
:1032400001200102039008460399FFF737FB05A808
:1032500047210180002141800F4A0692018181723D
:103260000E4902900846029A01911146FFF77CFF31
:1032700001980399039AFFF7C4FE04A81321017073
:10328000039941708170FFF763F901980399FFF783
:103290004FFE08B080BDC046B913000000200040BA
:1032A00010B592B001204104079008460799FFF736
:1032B000CDFA079800040799FFF71CFB042008903B
:1032C00008A902220A7103234B7100238B71CB7171
:1032D0000924E40606902046059204930394FEF721
:1032E000F1FD03980599049AFEF762FE0FA8049970
:1032F00081720181418047220280F9221092124A94
:103300000290104602990192FFF72EFF0AA8602151
:1033100001800499C1818181079A4280069B838044
:103320001402048241820C91019C00902046009975
:10333000FFF788FE01980799FFF7FAFD01980799B2
:10334000FFF710FE12B010BD0040014080B592B0F2
:103350000120410407900846079A06911146FFF79D
:1033600075FA06980799FFF7C5FA4020109010A843
:10337000022101710321417100218171C171092272
:10338000D20605901046059B049119460392FEF75C
:1033900099FD062105220398FEF70AFE08A8049964
:1033A00081720181418047220280134A0992134AA7
:1033B0000290104602990192FFF7D6FE0BA86021F9
:1033C00001800499C1818181079A4280042383800E
:1033D0001302038241820D91019B009018460099CF
:1033E000FFF730FE01980799FFF7A2FD01980799B2
:1033F000FFF7B8FD12B080BD9D10000000440140F1
:1034000080B588B001208104039008460399FFF736
:1034100071FA05A84721018000214180104A0692D7
:10342000018181720F4A02901046029B0191194658
:103430000092FFF799FE00980399039AFFF7E1FDC8
:1034400004A81621017001994170039A8270FFF758
:103450007FF800980399FFF76BFD08B080BDC04668
:10346000E70300000048014010B594B0012081043A
:10347000099008460999FFF7E9F90220089009998F
:10348000FFF71CFA10200A900AA80899017103227C
:10349000427100228271099BC3711F4C0790204624
:1034A000079906920594FEF70DFD042005990490F6
:1034B00008460499099AFEF77BFD11A806998172C6
:1034C0000181418047220280144A1292144A0390DB
:1034D000104603990292FFF747FE0CA86021018075
:1034E0000699C1818181099A4280049B83801402DC
:1034F000048241820E91029C019020460199FFF7BF
:10350000A1FD02980999FFF713FD02980999FFF7A9
:1035100029FD14B010BDC046000400480F2700006C
:1035200000040040B0B58CB000200B9064486649A0
:1035300001220A9008460A99FEF7BAFB0A98017818
:10354000FF2913D1FFE75E484078FF280ED1FFE73F
:103550005B4819210170052141705B4901220990E6
:1035600008460999FEF7D9FB0890FFE711480B9030
:10357000022064210790FEF713F900200690FDF762
:1035800075FA0B98FDF7D6F86A46079B93600124FD
:10359000E502556007256D031560A203069C0590A2
:1035A000204604911146059A049BFDF79DFB0CB043
:1035B000B0BDC046C0201F00B0B590B000200F9035
:1035C0003D4800783D490978884231D0FFE73B48C3
:1035D000007801282CD1FFE739480178491C017097
:1035E00001787D2252014A43364951180F910F99B3
:1035F0000E900846FDF79EF86A4602239360012369
:10360000DC0254600724640314609A0300240D90C4
:1036100020460C9111460D9A0C9C0B932346FDF706
:1036200063FB29480E990B9AFEF777FB0A9000E09E
:10363000FFE72648007826490978884231D0FFE71D
:103640002348007801282CD1FFE71D480021017094
:1036500002787D235B0153431A4A9A180F920F9AFE
:10366000099010460891FDF765F86A4602239360B9
:103670000123DC0254600724640314609A03089C4D
:103680000790204606911146079A069D05932B4602
:10369000FDF72AFB0C480999059AFEF73EFB0490BA
:1036A00000E0FFE705480078034908700848007803
:1036B0000649087010B0B0BD530100204801002039
:1036C000CC000020E0FD1C0000F0000852010020AA
:1036D000C3000020F0B59BB01C4615460E460746B9
:1036E0001A901991189217931A98199909681294B7
:1036F000119510960F97FCF7C3FF002819D1FFE72B
:10370000002014901A9819990A680E9111460D928A
:10371000FCF785FD0E994A680C9010460D99FCF750
:103720007EFD0C990B9008460B99FCF7BDFD169099
:1037300067E01A981999179A92008958FCF792FF36
:1037400000283DD1FFE717984008139000201490FF
:1037500017981590FFE715981499401A022816D368
:10376000FFE71A981999139A92008958FCF77AFF83
:10377000002803D1FFE71398159002E013981490E6
:10378000FFE715981499401840081390E3E71A983A
:103790001999149A92008B1889580A910993FCF789
:1037A0003EFD09994968089008460A99FCF737FDDB
:1037B0000899079008460799FCF776FD16901FE0D8
:1037C0001798401E14901A981999179A92008B18FE
:1037D0001B1F1B680691194605920493FCF71FFDF9
:1037E0000699059A8B58039018460499FCF717FD23
:1037F0000399029008460299FCF756FD1690FFE7E0
:10380000FFE71898149989004218526840580190AF
:1038100010460199FCF703FD1699FCF708FD019984
:10382000FCF7ACFC1BB0F0BD80B586B00020059065
:10383000FEF7DBF9FEF704FAFEF79DF9FDF78CFBC6
:10384000FFF712FEFFF72CFDFFF780FDFFF7D8FD15
:10385000FFF7F4FCFFE714480078002801D0FFE7E9
:10386000F9E70920C00601214A0204911146049A91
:10387000FEF71CFCFEF744FCFEF7D0FCFFF752FEFF
:1038800068460A4981600A4941600A4901600A485C
:103890000A490B4A0B4BFEF7A5FEFDF77FFD00F032
:1038A00089FD002006B080BD020000200000C84253
:1038B0000000204100001842E4000020CDCC4C3F25
:1038C0008FC2F53C0AD7A33C80B586B00A460346B2
:1038D000059004911C480068029052480068001D41
:1038E0000192009300F084FB002801D1FFE700E083
:1038F000FFE7029805994018039003984949096821
:10390000486003980299884208D2FFE7104800688F
:1039100044490968091D00F0CBFB12E0F448006837
:1039200040490968091D00F0C3FB0398074909686D
:10393000884204D2FFE703980449086000E0FFE7EB
:10394000FFE706B080BDC046700E0020280E0020A4
:103950007001002080B584B001460390029100F010
:1039600003FC47480168491C01602E480068002894
:103970000DD1FFE703982B490860414800680128F2
:1039800003D1FFE700F080F900E0FFE714E02648EC
:10399000006800280ED1FFE722480068C06A03993A
:1039A000C96A884204D8FFE703981E49086000E00E
:1039B000FFE700E0FFE7FFE71C480168491C0160E2
:1039C00000680399C8630398C06A19490968884266
:1039D00005D9FFE70398C06A15490860FFE7039817
:1039E000C16A14224A43C4498918001D019008463F
:1039F000019900F097FB00F0C1FB0B48006800281C
:103A00000DD0FFE707480068C06A0399C96A884279
:103A100003D2FFE700F03EFC00E0FFE700E0FFE735
:103A200004B080BD64010020500E0020E80D00208D
:103A3000EC0D002080B582B0FFE710480068002838
:103A400019D0FFE700F090FBA848C068C06801905B
:103A50000198001D00F0CCFA09490A68521E0A605C
:103A600006490A68521E0A60009000F087FB019820
:103A700000F008F8E1E702B080BDC046E00D00208C
:103A8000DC0D002080B582B0014601900198006BEA
:103A9000009100F07FFB019800F07CFB02B080BD3C
:103AA00084B00320800200902348019001A8007890
:103AB000400700280ED0FFE70198C01D0190019833
:103AC00007218843019001981B49009A081A101891
:103AD0000090FFE7019802900298B6490860002024
:103AE00048600299009A8918019101990839019159
:103AF00001990722D243114001910199AE4A116008
:103B00001168486011680860029803900198039951
:103B1000401A486010680399086003984068074994
:103B20000860039840680649086006480121C907F3
:103B3000016004B07047C046D8010020240E002068
:103B40001C0E0020F00D002080B582B001460190CF
:103B50000091FFE7FFF76EFF67480068022803D374
:103B6000FFE700F097FB00E0FFE7F3E7F0B591B067
:103B7000199C189D179E169F0A901846099010468A
:103B80000890084607900A9806900A9810900F919E
:103B90000E920D931899086B0E998900A522059431
:103BA000049503960297FCF7D7FA1898006B0E99C4
:103BB00089004018001F0C900C98072188430C9036
:103BC0000F98002820D0FFE700200B90FFE70B980C
:103BD000042814D8FFE70F980B99405C189A5118E5
:103BE000342288540F980B99405C002801D1FFE7DC
:103BF00005E0FFE7FFE70B98401C0B90E7E71898FC
:103C000038210022425404E0189834210022425402
:103C1000FFE71698052803D3FFE70420169000E07D
:103C2000FFE716981899C86216981899486418986A
:103C3000002181641898001D019100F030FA189855
:103C4000183000F02CFA1898006116980521081A0F
:103C5000189988611898406218980199C164189859
:103C6000502281540C9810990D9A00F091F91899EE
:103C700008601798002804D0FFE718981799086083
:103C800000E0FFE711B0F0BD80B584B000200390E4
:103C9000FFE7039804280CD8FFE703981421414359
:103CA0001548401800F0E3F9FFE70398401C039023
:103CB000EFE70B48029000F0DAF90A48019000F0B3
:103CC000D6F9094800F0D3F9084800F0D0F9474880
:103CD000029901600748019A026004B080BDC046A5
:103CE000F40D0020080E00203C0E00205C0E002089
:103CF00068010020700100207401002084B001469A
:103D00000390A04802900091FFE702980068039991
:103D1000884205D2FFE7FFE7029800680290F4E7C7
:103D200002980190019802994968401803998842C5
:103D300009D1FFE70398406802994A681018486063
:103D40000298039000E0FFE703980190019803991F
:103D5000496840180299096888421AD1FFE7029819
:103D600000688749096888420DD0FFE7029800681B
:103D7000406803994A681018486002980068006813
:103D80000399086004E07E48006803990860FFE733
:103D900004E00298006803990860FFE7029803991D
:103DA000884204D0FFE703980299086000E0FFE72B
:103DB00004B07047540E00206C01002081B00B4805
:103DC00000680068002805D1FFE709480021C943C1
:103DD000016009E005480068C068C068009000986C
:103DE000406803490860FFE701B0704768010020A0
:103DF000280E002081B00020009072B6FFE70098E6
:103E0000002801D1FFE7FAE701B0704780B58AB01A
:103E10000146099000200590049100F0FFFA5848EF
:103E20000068002803D1FFE7FFF73AFE00E0FFE754
:103E30000998F6490968084200D091E009980028DD
:103E400014D0FFE709980830099009A800784007C6
:103E5000002809D0FFE70998072102460A400821F7
:103E6000891A4018099000E0FFE700E0FFE7099891
:103E7000002873D0FFE70998E549096888426DD8A2
:103E8000FFE74048079000680890FFE708984068FF
:103E900009990022884203920CD2FFE70898006833
:103EA000012100280290019101D10298019001980E
:103EB0000390FFE70398C007002806D0FFE70898A3
:103EC0000790089800680890E0E708982C4909686E
:103ED000884241D0FFE707980068083005900898AD
:103EE000006807990860089840680999401A1128E5
:103EF00011D3FFE708980999401806900898406880
:103F00000999401A069948600998089948600698E6
:103F1000FFF7F4FE00E0FFE708984068BC490A6834
:103F2000101A0860086818490968884205D2FFE736
:103F3000B74800681449086000E0FFE7B34800682C
:103F400008994A6802434A600898002101600F48B6
:103F50000168491C016000E0FFE700E0FFE700E0C6
:103F6000FFE700F0FFFB05990029009003D1FFE770
:103F700000F064F800E0FFE705980AB080BDC04695
:103F80006C010020540E0020240E0020300E002072
:103F9000B0B586B013460C460546059004910392D1
:103FA0000598001F059005980121090601600598F4
:103FB000001F05900498059908600598001F05905A
:103FC00005980849016005981438059003980599EB
:103FD0000860059820380590059802930194009593
:103FE00006B0B0BDF53D0008EFF3108072B6704723
:103FF00083B001460290029800690190029882689D
:104000004068826002984268806842600198406817
:10401000029A9042009105D1FFE7029880680199C9
:10402000486000E0FFE70298002101610198016803
:10403000491E01600198006803B0704772B6FFE73F
:10404000FEE784B00A4603460390029172B60192DD
:104050000093FFE7FEE7000002480168491C016089
:104060007047C046D80D002080F31088704782B09A
:1040700001460190019802460832426001980022F0
:10408000D3438360019803460833C3600198034615
:104090000833036101980260009102B0704782B05A
:1040A00001460190019800220261009102B0704720
:1040B00086B00A4603460590049104980068029071
:1040C0000298401C00280192009304D1FFE7059854
:1040D0000069039010E0059808300390FFE703980B
:1040E000406800680299884205D8FFE7FFE7039817
:1040F00040680390F3E7FFE703984068049948603D
:10410000049841688860039804998860049803992A
:10411000486005980499086105980168491C016088
:1041200006B0704785B00A46034604900391049890
:104130004068029002980399486002988068039949
:10414000886003980299896848600398029988609A
:1041500004980399086104980168491C0160019260
:10416000009305B07047000072B6F3480168491C1F
:104170000160BFF34F8FBFF36F8F7047EE48016848
:10418000491E01600068002802D1FFE762B6FFE720
:104190007047C04680B586B00146059005980490EA
:1041A0000598002802912ED0FFE704980838049063
:1041B000049803900398406814490968084220D085
:1041C000FFE703980068002819D1FFE70F4800684F
:1041D00003994A6882434A6000F020F903984068D6
:1041E0000B490A68101808600398FFF787FD094813
:1041F0000168491C016000F0B5FA019000E0FFE79A
:1042000000E0FFE7FFE706B080BDC046F00D0020EC
:104210001C0E0020340E002080B582B00A48002118
:1042200001600A4A11600A4909687D22D2000190A2
:1042300008461146FBF77AFF401E06490860072032
:104240000199086002B080BD10E000E018E000E0D5
:104250004400002014E000E0000000000000000026
:104260000B4A13681868203080F30988022080F315
:104270001488BFF36F8F3FBCAE4608BC04BC62B667
:104280001847C046C046C046C046C046C046C046A5
:10429000640100200120000703490860BFF34F8F2D
:1042A000BFF36F8F7047C04604ED00E080B584B067
:1042B00001460390002002900398002801910AD043
:1042C000FFE700F0ABF803980021FFF7FDFA00F0DC
:1042D00049FA029000E0FFE70298002803D1FFE7C7
:1042E000FFF7D8FF00E0FFE704B080BD80B586B0DF
:1042F000014605900391FFF737FF0598002804D188
:10430000FFE77C480068029002E005980290FFE712
:10431000029804900498001DFFF76AFE002801D15E
:10432000FFE700E0FFE70498806A002806D0FFE777
:1043300004981830FFF75CFE019000E0FFE7194891
:104340000168491C016004986A49096888420AD1D9
:10435000FFE70498011D1548FFF7E4FE14480168C3
:10436000491C016009E010480168491E0160049879
:10437000FFF788FBFFF722FDFFE7FFF7FFFE264868
:10438000006800280BD0FFE70498F44909688842C8
:1043900003D1FFE7FFF77EFF00E0FFE7FFE706B08E
:1043A00080BDC046E80D0020DC0D00205C0E002022
:1043B000E00D002080B584B01448694648600020B4
:1043C00008601349134A3C230290084611461A46D6
:1043D000029B00F0B3F803900398012812D1FFE785
:1043E00072B6DB480021CA4302600B48012202601A
:1043F000D348016000F082F8002801D0FFE700E018
:10440000FFE700E0FFE704B080BDC046200E0020BB
:10441000493B0008EC4D0008500E0020C7480168D9
:10442000491C01607047C04680B586B0C34800682B
:10443000002804D0FFE7CA480121016057E0C848BE
:1044400000210160C5480068006B05902A4804906F
:1044500005990968814212D1FFE70598406826490D
:1044600088420CD1FFE7059880682349884206D12D
:10447000FFE70598C068204988420AD0FFE7B7489F
:10448000016800683430019008460199FFF7D9FDB2
:10449000FFE7B04800680390FFE703981421414309
:1044A000AD484058002804D1FFE70398401E039010
:1044B000F3E7039814214143F4484018029002980E
:1044C000416849684160029841680830814205D1DD
:1044D000FFE70298416849684160FFE70298406839
:1044E000C068EB4908600398E7490860FFE706B039
:1044F00080BDC04664010020A5A5A5A580B582B0F9
:104500000C480168FF221304194301600168120678
:1045100011430160FFF780FE07480021016001910F
:10452000FFF79EFEFFF780FFFFF764FC019802B0E3
:1045300080BDC04620ED00E0B0000020F0B593B093
:10454000199C189D1E4617460B9008460A900B981A
:1045500009900B981290119110A90A800F93098865
:1045600088000894079506960597FFF74FFC0C9076
:104570000C98002811D0FFE75420FFF747FC0E905D
:104580000E98002804D0FFE70C980E99086303E00A
:104590000C98FFF7FFFDFFE702E000200E90FFE719
:1045A0000E98002818D0FFE71298119910AA1288C7
:1045B0000F9B189C199D0E9E6F4604900020F8607A
:1045C000BE607D603C600498FFF7D0FA0E98FFF75C
:1045D000C1F901200D9003E00020C0430D90FFE7DA
:1045E0000D9813B0F0BD000080B588B00020059094
:1045F000A0480068002800D096E051480168491C96
:10460000049104990160049800280FD1FFE74D48F8
:10461000016803914C490A680260039808604B489E
:104620000168491C0160FFF7C9FB00E0FFE704983F
:1046300047490968884256D3FFE7FFE741480068C9
:104640000068002805D1FFE741480021C943016007
:1046500048E03C480068C068C06807900798406818
:10466000069004980699884204D2FFE706983849D4
:10467000086037E0FFE70798001DFFF7B9FC0799CE
:10468000896A0029029006D0FFE707981830FFF7E3
:10469000AFFC019000E0FFE70798C06A7A4909681B
:1046A000884205D9FFE70798C06A77490860FFE7A5
:1046B0000798C16A14224A4374498918001D009062
:1046C00008460099FFF72EFD0798C06A70490968EF
:1046D000C96A884203D3FFE70120059000E0FFE7A5
:1046E000FFE7ABE7FFE76A480068C06A142141436F
:1046F00066484058022803D3FFE70120059000E0F8
:10470000FFE75F480068002803D1FFE7FFF7A4FC3C
:1047100000E0FFE75B480068002803D0FFE70120C6
:10472000059000E0FFE706E055480168491C01607C
:10473000FFF792FCFFE7059808B080BDE40D00206C
:10474000700E002068010020700100202C0E002057
:10475000280E0020EC0D00207401002064010020D0
:10476000740E002080B586B0002005900490FFF7FD
:10477000FBFC40480168491E01600068002873D1B5
:10478000FFE73D48006800286DD0FFE7FFE73B48A2
:104790000068002835D0FFE73848C068C068059039
:1047A00005981830FFF724FC0599091D029008466A
:1047B000FFF71EFC0599C96A334A126891420190BD
:1047C00005D9FFE70598C06A2F490860FFE70598FB
:1047D000C16A14224A432D498918001D00900846D9
:1047E0000099FFF79FFC0598C06A29490968C96AC2
:1047F000884204D3FFE723480121016000E0FFE77E
:10480000C5E70598002803D0FFE7FFF7D7FAFFE7D1
:104810001B48006803900398002817D0FFE7FFE7C4
:10482000FFF7E2FE002804D0FFE7164801210160EF
:1048300000E0FFE70398401E0390FFE7039800287D
:10484000EED1FFE70E480021016000E0FFE70D48D0
:104850000068002805D0FFE701200490FFF71AFD4B
:1048600000E0FFE7FFE700E0FFE7FFF787FC0498C1
:1048700006B080BDE40D0020DC0D00203C0E0020C1
:10488000380E0020740E0020EC0D00207401002072
:10489000640100202021020C01D010211046020AE0
:1048A00001D010460839020901D01046091F8208BC
:1048B00001D01046891E420801D0881E7047081A90
:1048C000704702E008C8121F08C1002AFAD17047D9
:1048D0007047002001E001C1121F002AFBD1704780
:1048E000A470B042713DB1421F05B242CDCCB2427C
:1048F0009A99B3424861B442142EB542C3F5B54209
:1049000071BDB6423D8AB742EC51B8429A19B942DC
:1049100066E6B94214AEBA42C375BB42713DBC42B1
:104920003D0ABD42ECD1BD429A99BE424861BF42A8
:10493000142EC042C3F5C04271BDC1421F85C242A0
:10494000CD4CC3427B14C44248E1C442F6A8C542E0
:10495000A470C6425238C7420000C842AEC7C8421F
:104960005C8FC9420A57CA42B81ECB4266E6CB42A8
:1049700014AECC42C375CD42713DCE421F05CF422D
:10498000CDCCCF427B94D042295CD142D723D242B6
:1049900085EBD24233B3D342E17AD4428F42D5423F
:1049A0003D0AD642CDCCD6427B94D742295CD84230
:1049B000D723D94285EBD94233B3DA42C375DB4200
:1049C000713DDC421F05DD42CDCCDD425C8FDE4215
:1049D0000A57DF42B81EE04266E6E042F6A8E1422E
:1049E000A470E2425238E342E1FAE3428FC2E44269
:1049F0003D8AE542CD4CE6427B14E74229DCE742A2
:104A0000B89EE8426666E942F628EA42A4F0EA4225
:104A100033B3EB42E17AEC42713DED421F05EE42C9
:104A2000CDCCEE425C8FEF42EC51F0429A19F1424C
:104A300029DCF142D7A3F2426666F342142EF44217
:104A4000A4F0F44252B8F542E17AF642713DF742E1
:104A50001F05F842AEC7F8423D8AF9420A57FA42AA
:104A60009A19FB4229DCFB42D7A3FC426666FD4251
:104A7000F628FE4285EBFE4233B3FF42E13A0043A3
:104A8000299C004371FD0043486101438FC20143EB
:104A9000D72302431F85024366E60243AE47034322
:104AA00085AB0343CD0C0443146E04435CCF044335
:104AB000A4300543EC91054333F305437B5406438F
:104AC000C3B506430A170743527807439AD90743E9
:104AD000E13A0843299C084371FD0843B85E094345
:104AE00000C0094348210A438F820A43D7E30A439F
:104AF0001F450B4366A60B43AE070C43D7630C431D
:104B00001FC50C4366260D43AE870D43F6E80D43E3
:104B10003D4A0E43F6A80E433D0A0F43856B0F43F3
:104B2000CDCC0F43142E10435C8F1043A4F01043E0
:104B30005C4F1143A4B01143EC111243A470124313
:104B4000ECD1124333331343EC91134333F3134348
:104B50007B54144333B314437B141543C37515437B
:104B60000000F0C10000E8C10000E0C10000D8C1B1
:104B70000000D0C10000C8C10000C0C10000B8C121
:104B80000000B0C10000A8C10000A0C1000098C191
:104B9000000090C1000088C1000080C1000070C109
:104BA000000060C1000050C1000040C1000030C1E1
:104BB000000020C1000010C1000000C10000E0C0E2
:104BC0000000C0C00000A0C0000080C0000040C0C5
:104BD000000000C0000080BF000000000000803F17
:104BE0000000004000004040000080400000A04065
:104BF0000000C0400000E040000000410000104103
:104C000000002041000030410000404100005041C0
:104C100000006041000070410000804100008841B8
:104C200000009041000098410000A0410000A84110
:104C30000000B0410000B8410000C0410000C84180
:104C40000000D0410000D8410000E0410000E841F0
:104C50000000F0410000F841000000420000044262
:104C60000000084200000C42000010420000144204
:104C70000000184200001C420000204200002442B4
:104C80000000284200002C42000030420000344264
:104C90000000384200003C42000040420000444214
:104CA0000000484200004C420000504200005442C4
:104CB0000000584200005C42000060420000644274
:104CC0000000684200006C42000070420000744224
:104CD0000000784200007C420000804200008242D6
:104CE00000008442000086420000884200008A42A0
:104CF00000008C4200008E42000090420000924270
:104D000000009442000096420000984200009A423F
:104D100000009C4200009E420000A0420000A2420F
:104D20000000A4420000A6420000A8420000AA42DF
:104D30000000AC420000AE420000B0420000B242AF
:104D40000000B4420000B6420000B8420000BA427F
:104D50000000BC420000BE420000C0420000C2424F
:104D60000000C4420000C6420000C8420000CA421F
:104D70000000CC420000CE420000D0420000D242EF
:104D80000000D4420000D6420000D8420000DA42BF
:104D90000000DC420000DE420000E0420000E2428F
:104DA0000000E4420000E6420000E8420000EA425F
:104DB0000000EC420000EE420000F0420000F2422F
:104DC0000000F4420000F6420000F8420000FA42FF
:104DD0000000FC420000FE420000004300000143CE
:104DE000A12A0008D12A00080D2B000849444C458F
:104DF000004869676850726F5461736B004D656459
:104E000069756D50726F5461736B004C6F7750729F
:104E10006F5461736B0076496E69745461736B00F3
:104E2000404E000800000020B4000000C248000806
:104E3000F44E0008B8000020C0110000D24800085D
:104E40006402010000C05A4500C05A4500C05A45DE
:104E500000C05A4500C05A4500C05A4500C05A45D6
:104E600000C05A4500C05A4500C05A4500C05A45C6
:104E700000C05A4500C05A4500C05A4500C05A45B6
:104E80000000000000A24A040102000000040048E3
:104E9000000200000004004800010000000000487B
:104EA00080000000000400480200000000000048EC
:104EB0000001000000040048080000000004004851
:104EC000400000000004004880000000000400488A
:104ED0002000000000000048000200000000004820
:104EE000000400000004004801000000409C000095
:044EF000AAAAAAAA16
:04000005080000D51A
:00000001FF
