:020000040800F2
:10000000D8120020D50000089B230008F520000826
:1000100000000000000000000000000000000000E0
:100020000000000000000000000000003926000869
:100030000000000000000000312400081D28000816
:100040000501000805010008050100080501000878
:10005000050100080501000805010008C117000896
:100060000000000005010008050100080501000866
:100070000501000805010008050100080000000056
:10008000050100080501000800000000C52800085F
:10009000050100080501000879290008050100088C
:1000A0000501000805010008050100080501000818
:1000B0000501000800000000000000000501000824
:1000C0000348854600F05EFC00480047ED3200081A
:1000D000D81200200C4880F308880C480168090EEB
:1000E0000B4A914205D10B480B4901600B480C4962
:1000F00001600C4880470C480047FEE7FEE7FEE73A
:10010000FEE7FEE7FEE70000D81200200400000032
:100110001F00000018100240010000000000014014
:100120000000000049280008C100000830B50B4657
:10013000014600202022012409E00D46D5409D42C1
:1001400005D31D469540491B254695404019154647
:10015000521E002DF1DC30BDD2B201E00270401C15
:10016000491EFBD270470022F6E710B513460A4637
:1001700004461946FFF7F0FF204610BDF8B50246C9
:100180004A40D40F42004B0052085B089A4202D208
:100190000246084611464A0023D0C30D4A00DDB28C
:1001A000120EAD1A202D35DA49020126490AF6054C
:1001B0008A19002C00D0524220214F1B1146B94011
:1001C0002A411018C20D9A4221D0002C17D0012DBF
:1001D00008DCDA05801AD20F8019D207DBB200F0F2
:1001E00039FBF8BDDA05801A012340001B06C01850
:1001F00080185A428018CA0F1043490007E0490886
:10020000C2071143DA05801A80194008801800F0EF
:1002100019FBF8BD61000122511A001BF7E701220A
:10022000D2075140AAE70122D2075040A6E7024672
:1002300070B54A40D30FDB0740002DD04A002AD0CA
:10024000010E140E000212020919400A520A841803
:10025000E50104465443000A120A2E045043A4192F
:100260004219200CC543AA18120C0125AD03521CDB
:10027000521912047F39240400D0521C104301D4B7
:100280004000491EC2B20C06C0092018401C40089C
:10029000802A02D003E0002070BD40084000002901
:1002A00000DA0020184370BD70B502464A40D50FF1
:1002B00040004A00ED0740085208002814D0002AE8
:1002C00012D0C40DD30D41020120C0055202490ACB
:1002D000520AE41A091812187D34914201D3641CA1
:1002E00000E04900002C01DA002070BD002391429B
:1002F00001D3891A0343400849000028F7D1002997
:100300000AD0914202D10121C90705E0914201D2F0
:10031000012101E00121C943E005C018401900F0A6
:1003200091FA70BDF0B507460846584087B0C00F37
:10033000049048000E46590040084908BC1A8841FC
:1003400005D2384631461E4617460B46024658002F
:10035000400810434CD0300D039040055900400D2B
:10036000490D0590401A0290402872DA18030121C5
:10037000000B09050843019004980092002805D05D
:100380000199524200208841009201900298402138
:100390000A1A0199009800F021FA05460C466B46AE
:1003A00007CB00F03CFAC0197141039A0E0D0023EF
:1003B000D71756401A467A40164344D0049A002A6A
:1003C0002DD0029A012A039A15DC1205C01A914118
:1003D00001263605001C7141D20F059ED2070093FD
:1003E000019202962A46234600F07AFA07B0F0BD41
:1003F00038463146FAE71605224A0F46B218C01AA7
:10040000B74101210905001C4F4100187F411146E9
:1004100018187941E20F10436D19644113E0E207A7
:100420006D0815436408C2071443039A0126120598
:10043000C01A91413605001C7141CE074008304377
:100440004908C01851412A46234600F03CFACDE73E
:10045000FFE7049801224000C117121A00238B41C4
:1004600004983146C417381AA141EEE730B401248C
:10047000E407634030BC55E730B40124E407614031
:1004800030BC4FE70000E0FFF0B51FB488B00B9917
:100490000998002448400999C00F4900490809916A
:1004A000C0070B990090490049080B9109990898D9
:1004B000A64608431CD00B990A98084318D00998FF
:1004C00001244000420D4800410D09982405000315
:1004D000000B204309900B980003000B20430B9066
:1004E00050181C494018002201901446104605E09F
:1004F000002001460DB0F0BD032801DA034600E0FC
:1005000003239C46C11A0AAE0AE05F0008ADED5B0A
:100510004F00F75B7D430027AA187C41491C5B1EF6
:100520006145F2DD410004AB5A522104120C0A432A
:10053000240C401C0828DFDB0198029000997046CB
:1005400001910090059B049A0799069800F0C8F95C
:10055000D0E700000DFCFFFFF0B50C465C4085B015
:10056000E40FE40703944C00002664085900944605
:10057000490802460296224321D062460A431ED011
:100580006200570D4A000E032303550D0124024655
:100590002C492405781B1B0B360B4018234326439C
:1005A000614600901C46501AB44103D30098401C89
:1005B000009002E0921800985B41002803DA0020C6
:1005C000014605B0F0BD0020012109050746864619
:1005D00011E064461D46141BB54106D36546521B07
:1005E000B341744607430C43A646CD07400849086B
:1005F000284392185B4105460D43EAD11046184343
:1006000013D06046194650407140084306D06046FA
:10061000101AB34106D20122002306E00022012372
:10062000DB0702E00122D243531000987446010513
:10063000381C6141029C039D0019694100F043F997
:10064000BFE70000FD0300000122D207002800DB05
:10065000101A002900DB511A814201D8012070478D
:10066000002070470122D207002800DB101A002961
:1006700000DB511A814201D30120704700207047EE
:100680000122D207002800DB101A002900DB511AD2
:10069000814201D90120704700207047C217C10F65
:1006A000504010B54018CA079623002100F0D2F838
:1006B00010BD00000EB5C217C10F5040CA07401848
:1006C0000021054B0293019200910A460B4600F06F
:1006D00007F903B000BD0000330400000EB5054962
:1006E0000291002100910A460B46019100F0F8F8B2
:1006F00003B000BD3304000070B5CD0F4A000903FC
:100700000123090B1B0519430B4BED070024520D68
:100710009A4201DA002070BD074B34339A4203DC61
:100720009A1A00F06BF802E00449511888402C43F3
:10073000F1D0404270BD0000FF030000CDFBFFFF81
:100740004A0009030123090B1B051943094B10B586
:10075000520D9A4201DA002010BD064B34339A4202
:1007600003DC9A1A00F04AF810BD0349511888407A
:1007700010BD0000FF030000CDFBFFFFC20FD2073A
:10078000400040080BD0C10D0723DB01C91840020F
:100790000905400A1143C208400711437047002071
:1007A00001467047CB0FDB07490010B549080246E8
:1007B0000A4307D00A0D07240903E401090B121BA1
:1007C000002A01DC002010BDC900440F0C43C10009
:1007D000E018D205801800F035F810BD10B5202AB9
:1007E00004DB0146203A9140002010BD91402023B7
:1007F0009C1A0346E3401943904010BD10B5202ACF
:1008000004DB0846203AD040002110BD0B46D340FF
:10081000D0402024A21A91400843194610BD10B5BB
:10082000202A06DBCB170846203A1041C1170B439C
:1008300006E00B461341D0402024A21A9140084301
:10084000194610BD002904DA401C490001D14008B6
:100850004000704770B40024050C05D1102400043A
:1008600002D1002921D01124050E01D10002083443
:10087000050F01D10001241D850F01D18000A41CAA
:10088000002801DB4000641C002908D020252E1B15
:100890000D46F540A14000D001212943084301063F
:1008A0001B1B000ADB1D02D5002070BC7047DB0556
:1008B000181880180029F8DA401C4900F5D170BCDE
:1008C00040084000704710B5002B08DA0024401C97
:1008D000614192185B411A4301D14008400010BDAC
:1008E000F0B51FB482B005460C0003D0084603F0F3
:1008F00011FD02E003F00EFD20300246009021467B
:100900002846FFF76BFF049B059A04460F461843E1
:100910001143084314D0184610431BD000984021BF
:100920000A1A18460599FFF769FF05460E46009A10
:1009300005990498FFF752FF084305D0012004E011
:100940002046394607B0F0BD0020C11705430E43CD
:100950002C43374300990E986305401A7905E40A41
:1009600000220C43FD0A0A3002D500200146E9E7C7
:100970000105101969410C9C0D9D00196941FFF793
:10098000A2FFDFE7064C0125064E05E0E36807CC31
:100990002B430C3C98471034B442F7D3FFF794FB39
:1009A000A0480008C048000881B0684600210180C6
:1009B000FFE768460088002806DCFFE7FFE70098AD
:1009C000401C69460880F4E701B0704710B584B058
:1009D0000A46034603AC207002A801700178082083
:1009E0000192009300F032FE04B010BD80B584B0D7
:1009F000014603AA10701078012302911946019252
:100A00000093FFF7E3FF01980078009900F007F8E2
:100A100001980078009900F012F804B080BD10B57C
:100A200084B00A46034603AC207002A80170017826
:100A300006200192009300F009FE04B010BD10B52D
:100A400084B00A46034603AC207002A80170017806
:100A500007200192009300F0F9FD04B010BD70B5BD
:100A60008AB00A46034609AC2070089107A8002105
:100A7000017025780126069028460591314604929A
:100A8000039302940196FFF7CAFF02980078019938
:100A9000FFF79CFF029800780599FFF797FF0598EC
:100AA00006990870FFE707A800780F282CDCFFE7FD
:100AB00008A840780006002806D5FFE709A80078B6
:100AC0000121FFF7BCFF05E009A800780021FFF72E
:100AD000B6FFFFE7FFF768FF09A801780022009042
:100AE00008461146FFF79BFFFFF75EFF009800786E
:100AF0000121FFF794FF089840000890FFE707984E
:100B0000401C07A90870CEE709A800780121FFF76B
:100B10005DFF0AB070BD0000F0B595B01C461546EB
:100B20000E460746089014A8079008980691079962
:100B3000087013A80699018011931092264A0D920D
:100B4000264A0C92109A119B0B930A920A9A0B99BF
:100B5000002305902248049010461A46049B0394F3
:100B6000029501960097FFF7F7FC0B910A900A98FF
:100B70000B990C9A0D9BFFF787FC0B910A900A9832
:100B80000B99FFF7B9FD099009980F900F98154937
:100B900008400F90099880130E900E9808400E9010
:100BA0000F9805990A8810430F900E980A881043F1
:100BB0000E900798007821221102FFF750FF079846
:100BC00000780F99FFF74BFF079800780E99FFF711
:100BD00046FF15B0F0BDC04608267741CE98ED78A7
:100BE00080842E41FF3F000070B588B013460C464C
:100BF000054607AE307006A8018005A80280069859
:100C000004A908800598049A02430A80307809886C
:100C1000039302940195FFF722FF08B070BDF0B571
:100C20008DB01C4615460E46074607900CA8069048
:100C3000079805910699087005980B900A920993F8
:100C400000220892089A0B9B1A430A9B1A43099B9D
:100C50001A4308920878089904940395029601971C
:100C6000FFF7FDFE0DB0F0BDF0B593B01C46154684
:100C70001A9E199F0B9018980A90084609900B9895
:100C8000089012A807900B9806910799087006988B
:100C900011900F930E920878012211020594049589
:100CA000039602970192FFF7DAFE07980078212158
:100CB0000902FFF7D4FE0798007811A909880F9B55
:100CC0000E9AFFF729FF0798007818A9098819AA32
:100CD0001288FFF789FF119801998A03904203D186
:100CE000FFE700200D9003E00120C0020D90FFE718
:100CF000189803218903884203D1FFE700200C9054
:100D000003E0012080020C90FFE712A800781A99F6
:100D10000D9A0C9BFFF783FF13B0F0BD80B590B028
:100D20000A4603460E900DA801700078022805922D
:100D3000049303DCFFE700200F9063E00E98006847
:100D40000C900E9800680B9000200A900990FFE725
:100D500009980DA9097888422DDAFFE70E980999BC
:100D6000890040580C99FFF76FFC002806D1FFE777
:100D70000E980999890040580C90FFE70E98099940
:100D8000890040580B99FFF76DFC002806D1FFE75A
:100D90000E980999890040580B90FFE70E98099921
:100DA000890041580A98FFF7E9F90A90FFE7099886
:100DB000401C0990CCE70C990A98FFF730FA0A908A
:100DC0000B990A98FFF72BFA0A900A98FFF7D6FCBE
:100DD0000DAA1278921E039010460291FFF76AFC4A
:100DE000039A01901046029B00911946019A009BBC
:100DF000FFF7B2FB0791069006980799FFF7D2FC20
:100E00000F90FFE70F9810B080BDB0B587B01346C4
:100E10000C46054606900591049200200390059823
:100E200006998A6A02438A620398072188430390DD
:100E3000049803990143039103980699486102932A
:100E40000194009507B0B0BD84B00A4603460390F4
:100E500002A80170007800280192009306D0FFE7F5
:100E60000398816801221143816005E0039881683D
:100E7000022211438160FFE704B0704784B00A4644
:100E80000346039002A801700078002801920093A5
:100E900006D0FFE70398C16801221143C16005E055
:100EA0000398C16801229143C160FFE704B0704715
:100EB00010B584B00A460346039002910398C168B6
:100EC0000224A143C16002980399CC680443CC601A
:100ED0000192009304B010BD80B59CB04F480890BB
:100EE00000F082F80120410407900846079901F0BC
:100EF00017FB07984002079901F066FB0320149046
:100F000014A908710020C8710922D2060690104663
:100F100000F0E0FF16A8059000F0F3F9069816908F
:100F20000799059A117118901A9004231B93089839
:100F3000114600F0E3F80520089904900846079947
:100F4000049AFFF762FF022008990390084603996C
:100F5000049AFFF75AFF089800F062F80899029087
:100F600008460399FFF7A4FF08980799FFF786FF43
:100F700008980799FFF768FFFFE72848012100F06C
:100F800090F8002801D1FFE7F7E7012001900199CF
:100F900001F0C6FA1248009000F008FA11480990D2
:100FA000BB480A9000200B9002210C910D908021EB
:100FB0000E9101990A020F928A0210922022119238
:100FC0004A031292139009A9009800F075FA00984C
:100FD000019900F0D1F9114800F088F91CB080BDEA
:100FE000080002404024014080B584B001460390CF
:100FF00003980A4A904202910ED1FFE70120410274
:1010000001900846019A0091114601F0F9FA002179
:10101000009801F0F5FAFFE704B080BD002401401C
:1010200088B001460790002006900590049007982C
:1010300082680123DB071A4382600391FFE7079868
:1010400080680121C907084004900598401C05905C
:10105000FFE7059800210F221203904202910BD066
:10106000FFE70498012100280190009101D1019827
:10107000009000980290FFE70298C0070028DED198
:10108000FFE707988068C00F002804D1FFE70798A2
:10109000006C069002E000200690FFE7069808B07A
:1010A000704786B00A4603460590049103A80021C4
:1010B0000170029104A8C078C00700280192009333
:1010C00007D0FFE705988068012109068843029050
:1010D00003E0059800680290FFE70298049908422F
:1010E00004D0FFE703A80121017003E003A8002159
:1010F0000170FFE703A8007806B0704710B585B00F
:101100000A46034604900391002002900498C068A8
:10111000029002980C4908400290039801680479F3
:101120006403214384682143C46821430469214343
:101130004069014302980843029002980499C860EC
:101140000192009305B010BD03D2FFFF80B590B0AF
:101150000FA8002101800EA801800D91022000F04F
:1011600085F9012800D091E0494801680FAA118053
:1011700040880EA90880088846494143080B0C9214
:10118000FFF78CFA0D900D98FFF7F8FA424A434B9F
:10119000FFF7E2F9FFF706FB41490A789200414B5D
:1011A00098500C9800880B910A93FFF783FA3E4AF7
:1011B0003E4B0992FFF768F900223D4B0892FFF77A
:1011C000CBF9FFF7EFFA3B49086008683A49FFF7A7
:1011D0006BF83A490860086839490790FFF727F823
:1011E000FFF7CCFA374B089AFFF79CF8079A06905E
:1011F00010460591FFF7C2FA334A099B049018463E
:1012000003911146049A039BFFF730F9069A029066
:101210001046059B01911946029A019BFFF79CF924
:10122000FFF7C0FA2949086008682949294A9F231D
:1012300001F0B2FF2849086008680B990A7892000B
:10124000264B98500F211846FFF768FDFFF796FAD6
:10125000234B089AFFF766F8FFF7A4FA21490860C4
:101260001E210A98FFF75AFD1F4908600B98017864
:10127000491C017001781E2904DBFFE708480021A2
:101280000170FFE7022000F065F8FFE710B080BDB5
:1012900010010020E40C0000BA2C26361FD7D63FE0
:1012A000F0000020040000206666666666660A405C
:1012B0000000B0400001002000003041FC00002090
:1012C0000000FF4300B06C4066660440F40000205C
:1012D00060430008E0450008F800002034010020C9
:1012E0000000F8BFB40100200801002082B00146D0
:1012F00001900198826804231A438260009102B031
:10130000704782B001460190019800220260019866
:101310000271019882600198C2600198026101988F
:101320004261009102B0704780B584B006486946BA
:10133000486005200860054805498022002302F026
:101340003DFE039004B080BDBC01002019210008BF
:101350009648000882B00146019001A8C078C006F6
:101360000028009101D5FFE703E001983E4908609D
:10137000FFE702B07047C04684B00A4603460390B8
:1013800002A80170007800280192009306D0FFE7C0
:101390000398016801221143016005E00398016888
:1013A0002B4A11400160FFE704B0704782B001464C
:1013B000019001980268264B1A40026001980022B1
:1013C000026001984260019882600198C2600198B1
:1013D000204A9042009106D1FFE7234801680F227E
:1013E0001143016032E001981B49884206D1FFE7B2
:1013F0001D480168F0221143016026E00198174959
:10140000884207D1FFE7184801680F2212021143F2
:10141000016019E001981249884207D1FFE712489C
:1014200001680F221203114301600CE001980D497D
:10143000884207D1FFE70C4801680F2212041143CC
:101440000160FFE7FFE7FFE7FFE7FFE702B0704754
:10145000FEFF0000080002401C0002403000024075
:1014600044000240580002400400024084B001469B
:10147000039002A800220270019203A8C078C0065F
:101480000028009101D5FFE703E00A4800680190B9
:10149000FFE701980399084204D0FFE702A8012161
:1014A000017003E002A800210170FFE702A80078A4
:1014B00004B070470000024010B585B00A460346EC
:1014C0000490039100200290049800680290029812
:1014D00014490840029003988168046A2143046912
:1014E00021434469214384692143C4692143446AF7
:1014F0002143806A014302980843029002980499AC
:1015000008600398C06804994860039800680499CB
:101510008860039840680499C8600192009305B000
:1015200010BDC0460F80FFFF80B584B003A8002126
:10153000017035490978017034490A88521C0A80C3
:101540000078032802905BD80298C046784400795E
:1015500040008744010A182601200021019100F073
:101560001BF92A48019901804BE001200F2100F06E
:1015700013F926480088332804DBFFE722480021BE
:101580000170FFE73DE001200F2100F005F91F4841
:1015900000880B2804DBFFE71B4800210170FFE7F0
:1015A0002FE01B480078C007002805D1FFE7012085
:1015B0000F2100F0F1F80BE015480078C007002873
:1015C00005D0FFE70120002100F0E6F8FFE7FFE784
:1015D0000E480088292812DBFFE70D480178491CD6
:1015E00001700A4900220A800078062806DBFFE71E
:1015F00007480021017004480170FFE7FFE700E0A1
:10160000FFE704B080BDC0460C0100201A01002095
:101610001801002080B586B0014605AA1070107828
:10162000C0001B4B185803901078C0001818808811
:1016300002AA1080039812880191114600F0F8FC6C
:1016400004A90880087806B080BDC046B0B588B04F
:101650000A46034607AC207006A801702178C9002D
:101660000B4D695805912178C9006918898804AC27
:101670002180059924880078039008462146039C20
:1016800002922246019300F019FD08B0B0BDC04699
:101690008400002080B58CB00BA8002101703A496D
:1016A00009780170394800683949FEF7DBFF0028E6
:1016B00004D1FFE7374801210170FFE70BA800784C
:1016C00003280A905CD80A9878440079400087443F
:1016D0000119233B2F480078012809D1FFE7012099
:1016E00009900999FFF7B2FF002000F06BFD08E0B8
:1016F000002001210891FFF7A9FF089800F062FD82
:10170000FFE73EE0002001210791FFF79FFF0798C8
:101710000799FFF79BFF34E01E480078012809D1A4
:10172000FFE7012006900699FFF790FF002000F0E8
:1017300049FD08E0002001210591FFF787FF05988A
:1017400000F040FDFFE71CE01248007801280BD1B3
:10175000FFE7002004900499FFF778FF0120039031
:101760000399FFF773FF0AE0002001210290019125
:10177000FFF76CFF01980299FFF768FFFFE700E0B1
:10178000FFE70CB080BDC046190100200801002011
:1017900000C05A450401002010B584B00A46034633
:1017A00003AC207002A8018021788900034C6158A5
:1017B000008801920093884704B010BD604800087B
:1017C00080B582B0202000F037F800280ED0FFE767
:1017D0000920C0062021019100F02AFC0121484087
:1017E0000F490870019800F01DF815E0102000F076
:1017F00023F800280ED0FFE70920C0061021009131
:1018000000F016FC0121484004490870009800F0DF
:1018100009F800E0FFE7FFE702B080BD28010020E3
:101820002001002082B00146019001980F4A10600B
:10183000009102B07047C04683B00146029001A8F3
:101840000022027009480068029A1042009104D0F8
:10185000FFE701A80121017003E001A80021017048
:10186000FFE701A8007803B07047C04614040140A8
:1018700083B001460290002001902D48019002980B
:1018800080790028009144D0FFE702980068284939
:101890000A6882430A600298006826490A688243FF
:1018A0000A6002980079019908180190029800686E
:1018B00001990A6802430A60029800681E490A6892
:1018C00082430A60029800681C490A6882430A60E1
:1018D0000298407910280DD1FFE702980068164958
:1018E0000A6802430A600298006814490A680243C1
:1018F0000A600DE00E48019002984079019908189D
:1019000001900298006801990A6802430A60FFE7A3
:101910000BE002980079019908180190029800687C
:1019200001990A6882430A60FFE703B07047C04626
:101930000004014004040140080401400C0401407B
:1019400080B586B00146059004A8042202700022EA
:1019500003901046029100F065F8BFF36F8F0B20E3
:10196000000400F0CBF803990870087804281BD114
:10197000FFE75E48016802221143016005990E4BA2
:10198000196001684023194301600B21090401908B
:101990000846009200F0B2F804A9087001980168A6
:1019A000009A91430160FFE7012000F03BF804A892
:1019B000007806B080BDC0461420024081B0684661
:1019C0000421017013480068C007002804D0FFE715
:1019D00068460121017019E00E480068C006002821
:1019E00004D5FFE76846022101700EE0094800684F
:1019F0004007002804D5FFE768460321017003E093
:101A0000684604210170FFE7FFE7FFE768460078BA
:101A100001B070470C200240344801688022114315
:101A20000160704782B0014601AA1070107800284A
:101A3000009106D0FFE707480168102211430160BA
:101A400005E004480168102291430160FFE702B0FD
:101A50007047C0460020024080B58AB00A4603465F
:101A60000990089107A804210170002106910590B2
:101A7000084604920393FFF7D5FFBFF36F8F0B2047
:101A8000000400F03BF8059908700878042817D185
:101A9000FFE7164801680122114301600899099B7C
:101AA00019600B21090402900846019200F026F803
:101AB00007A9087002980168019A91430160FFE745
:101AC0000120FFF7AFFF07A800780AB080BDC0462D
:101AD000064800680006002806D5FFE704480549C7
:101AE000016005490160FFE77047C04610200240D1
:101AF0000420024023016745AB89EFCD80B588B053
:101B00000146079006A80422027005910490FFF791
:101B100055FF04990870FFE706A800780021012806
:101B200003910BD1FFE70798012100280290019152
:101B300001D10298019001980390FFE70398C00734
:101B4000002808D0FFE7FFF739FF06A908700798BB
:101B5000401E0790E0E70798002804D1FFE706A899
:101B600005210170FFE706A8007808B080BD10B518
:101B700088B00120410402900846029900F0D0FC90
:101B80000298029900F020FD3020069006A900225C
:101B90000A71029BCB710924E40601902046009251
:101BA00000F098F90421009800F048FD0521009804
:101BB00000F044FD0198049004A9009A0A711023D2
:101BC0004B71029B8B710846FFF752FE03A8072159
:101BD000017000994170029A827000F0DFFB08B03A
:101BE00010BD80B586B001204104039008460399DA
:101BF00000F096FC0720C001049004A8039901712D
:101C00000022827103234371C2710923DB06029013
:101C1000184602990192009300F05CF90398810242
:101C200004910199029A1171D0710098114600F047
:101C300051F90398C10304910199029A1171022389
:101C4000D3710098114600F045F906B080BD000040
:101C500080B586B00120810403900846039900F006
:101C60005FFC03980102974A1046039B02921A46B2
:101C700000F024FA039841020298039A00F01EFA39
:101C80000E48049004A80399017100228271032375
:101C90004371C171029B019018460199009200F0B6
:101CA00019F9039804900099019A1171D071029862
:101CB000114600F00FF906B080BDC046EA030000EF
:101CC000B0B58AB013460C4605460990089107A89E
:101CD000027006A8002101700591049303940295F7
:101CE00001900091FFF7F4FE099805900098019982
:101CF0000870FFE706A8007807A90978884210DA7B
:101D0000FFE705980068089906AA127892008850A3
:101D10000598001D0590FFE70698401C06A908706D
:101D2000E8E7FFF779FE0AB0B0BDB0B58CB0134656
:101D30000C4605460A90099108A8027007A80021E0
:101D400001700691059104A8012101700AA800788C
:101D50008007002803930294019504D0FFE70BA8A5
:101D6000032101703DE0FFF7B3FE0A980590059846
:101D7000FFF7E6FD04A908700878042806D0FFE7FD
:101D8000FFF74AFE04980BA908702AE007A8002173
:101D90000170FFE707A8007808A9097888421ADAD5
:101DA000FFE7099807A90978890040580690059827
:101DB0000699FFF751FE04A908700878042801D19C
:101DC000FFE708E00598001D0590FFE70798401C15
:101DD00007A90870DEE7FFF71FFE04980BA908703B
:101DE000FFE70BA800780CB0B0BD000080B58CB048
:101DF00001460B900B980922D20690420A910ED10F
:101E0000FFE70120410409900846099A089111460C
:101E100000F0A2FB0021089800F09EFB4FE00B9819
:101E2000284988420ED1FFE7012081040790084627
:101E3000079A0691114600F08FFB0021069800F0EA
:101E40008BFB3BE00B98204988420ED1FFE7012035
:101E5000C10405900846059A0491114600F07CFBE8
:101E60000021049800F078FB27E00B98174988427E
:101E70000ED1FFE70120010503900846039A029165
:101E8000114600F069FB0021029800F065FB13E0A9
:101E90000B980F4988420ED1FFE701208105019080
:101EA0000846019A0091114600F056FB0021009867
:101EB00000F052FBFFE7FFE7FFE7FFE7FFE70CB0AB
:101EC00080BDC0460004004800080048000C0048DF
:101ED0000014004887B00A4603460690059100208A
:101EE000049003900290049001920093FFE70498FD
:101EF0000F2863D8FFE704980121814003910598DA
:101F0000006803990840029002980399884250D1D2
:101F1000FFE705980079012805D0FFE705980079CB
:101F2000022822D1FFE7049840000321814006984F
:101F300082688A4382600598407904994900884004
:101F400006998A6802438A6004A8018801228A40AF
:101F500006998B8893438B80059989790088814005
:101F6000069882880A438280FFE704984000032194
:101F70000A468240069803689343036005980079F7
:101F8000049A52009040069A13680343136004A811
:101F90000088400081400698C2688A43C260059864
:101FA000C0790499490088400699CA680243CA600A
:101FB000FFE7FFE70498401C049098E707B07047DC
:101FC00070B588B013460C460546079006A80180F8
:101FD00005A90A7000220492039209780288520728
:101FE000D20E9140049100884107C90E0F228A4009
:101FF0000799C00880000818016A91430162079898
:1020000006994908094A11404018006A0499084392
:10201000039003980799069E76081640891908626E
:1020200002930194009508B070BDC046FC7F00008B
:1020300085B00A460346049003A8018002A8002147
:1020400001700498008A0399084000040028019256
:10205000009304D0FFE702A80121017003E002A869
:1020600000210170FFE702A8007805B0704700006A
:1020700084B0014603AA10701078C0000E4B1858A7
:1020800002901078C0001818808801AA1080029869
:10209000808A019A104000040028009104D0FFE7D4
:1020A00001980299088504E001A8008802998861D6
:1020B000FFE704B07047C04684000020B0B586B08A
:1020C00013460C460546059004A8018003A802703B
:1020D0000078002802930194009505D0FFE704A83A
:1020E00000880599886103E0049805990885FFE751
:1020F00006B0B0BDFFE7FEE780B582B001460190B3
:10210000954800220260009100F0F8FFFFE700F020
:1021100087F800F0AFF9FAE7B0B58AB00146099048
:10212000684600224260052303601848184C802549
:102130000891214607922A46079C06932346059557
:1021400001F03CFF6946079A4A60069B0B60114903
:10215000114C049008462146059A079B01F02EFF7A
:102160006946079A4A6004230B600C490C4B0390A4
:1021700008461946059A079B01F020FF094909689E
:102180000290084601F0F2FD0AB0B0BDF920000847
:10219000714800087F2300087D480008612300087B
:1021A0008B480008BC01002080B582B000200121CE
:1021B00001900091FFF74AFA00980199FFF746FA5B
:1021C00002B080BD80B586B0014605AA10701078B7
:1021D000002804910DD1FFE700200390FFF748FF8E
:1021E000012002900299FFF731FA0C48039901800F
:1021F00012E005A8007801280DD1FFE70120019029
:10220000FFF736FF002000900199FFF71FFA0348FF
:1022100000990180FFE7FFE706B080BD2A0100209A
:1022200080B588B007A80021017006A80170464952
:1022300009780170454800684549FEF713FA0028FF
:1022400004D1FFE7434804210170FFE741480078CB
:1022500007A9087008780428059071D80598C04629
:1022600078440079400087440235215068003A489C
:1022700000683A49884207D3FFE7364804210170D5
:10228000A54801210170FFE7042000210491FFF718
:10229000DDF903200499FFF7D9F905200499FFF728
:1022A000D5F904980499FFF777FA4AE02A48002103
:1022B000016004200391FFF7C9F903200399FFF798
:1022C000C5F905200399FFF7C1F903980399FFF7B2
:1022D00063FA36E020480021016004200291FFF7F4
:1022E000B5F903200299FFF7B1F905200299FFF72C
:1022F000ADF902980299FFF74FFA0920C0060121B3
:102300004902029AFFF7DAFE1BE013480021016040
:1023100004200122019111460092FFF797F9032052
:102320000099FFF793F905200099FFF78FF906A8A8
:1023300001780198FFF730FA03E000F09BF800E025
:10234000FFE708B080BDC0468000002008010020E3
:1023500000404E4519010020AC0100202923000057
:1023600080B582B0014601900091FFF71DFFFFE7A5
:10237000FFF790F97D20C00001F0D8FCF8E780B5A8
:1023800082B0014601900091FFE7FEF7DFFEFFF704
:10239000CBF8052001F0CAFCF7E7704783B001468F
:1023A00002900020019002988078002800912BD0A4
:1023B000FFE7029800781B4908431B4A1040006859
:1023C0000190029800788007C00EFF238340019897
:1023D00098430190029843789B01DBB20078800714
:1023E000C00E83400198184301900198029B1B780E
:1023F0000B4313401860029800781F210840012108
:1024000081400A48016008E0029800781F210840D6
:102410000121814002480160FFE703B07047C046D8
:1024200080E100E000E400E0FCE400E000E100E026
:10243000EFF309800E4B1A6820381060F0C0444654
:102440004D4656465F46F0C008B572B601F02CFD09
:1024500062B60CBC116808681030F0C8A046A946E6
:10246000B246BB4680F309882038F0C81847C046FA
:10247000C001002080B584B027480078012849D1E8
:10248000FFE70920C00601214A02002303900291C0
:1024900011461A460193FFF711FE01980299FFF7C2
:1024A000D5F802980299FFF7D1F804200199FFF7B7
:1024B000CDF803200199FFF7C9F805200199FFF72E
:1024C000C5F802200199FFF7C1F801980199FFF7BB
:1024D00063F90398FFF78AFC1048FFF787FCB048C0
:1024E000019900F00FFBBD48019900F00BFBCA48B1
:1024F000019900F007FBFFE707480078002808D0A3
:10250000FFE70920C006012149020022FFF7D6FD9E
:10251000F2E7FFE704B080BD00000020000400489F
:1025200084B00A460346039002A801700078002890
:102530000192009306D0FFE7039806490A68024318
:102540000A6005E0039803490A6882430A60FFE7CE
:1025500004B070471410024084B00A46034603904A
:1025600002A80170007800280192009306D0FFE7CE
:10257000039806490A6802430A6005E00398034984
:102580000A6882430A60FFE704B0704728100240DF
:1025900084B00A460346039002A801700078002820
:1025A0000192009306D0FFE7039806490A680243A8
:1025B0000A6005E0039803490A6882430A60FFE75E
:1025C00004B070471C10024084B00A4603460390D2
:1025D00002A80170007800280192009306D0FFE75E
:1025E000039806490A6802430A6005E00398034914
:1025F0000A6882430A60FFE704B07047181002407F
:1026000084B00A460346039002A8017000780028AF
:102610000192009306D0FFE7039806490A68024337
:102620000A6005E0039803490A6882430A60FFE7ED
:1026300004B070470C10024070470000F0B586B03F
:102640000A46034605AC207004A8017000210391DE
:1026500001788907090F0F258D40039503990578A7
:10266000FC263540094F0290E8598843E85120780C
:1026700002990C78A5072D0FA8403440E559054371
:10268000E5510192009306B0F0BDC046080001403C
:1026900080B500F001F880BD83B000200290019069
:1026A00080480168012211430160FFE77D4800680E
:1026B0000221084001900298401C0290FFE7019817
:1026C00000210028009108D1FFE7029805210903A5
:1026D000401A411E88410090FFE70098C00700287B
:1026E000E4D1FFE76F4800688007002803D5FFE7C3
:1026F0000120019002E000200190FFE701980128ED
:1027000033D1FFE71A481221016067480168016070
:102710000168016001687F22D20391430160016872
:102720003922D203114301605E480168012212067A
:1027300011430160FFE75B4800688001002801D475
:10274000FFE7F8E7584801680322914301600168F8
:10275000022211430160FFE7534800680C21084042
:10276000082801D0FFE7F7E700E0FFE703B0704774
:102770000020024080B584B0014603AA10800020EA
:10278000029010886422424302920298044A019007
:102790001046019A0091114600F0C6FA04B080BDBF
:1027A0000004004080B584B0014603AA10800020D8
:1027B00002901288019010460091FDF77BFF064BB6
:1027C000019AFDF761FEFDF7BBFF029002990348F5
:1027D00000F0AAFA04B080BD0000044000400140AF
:1027E00080B584B0014603AA1080002002901088B2
:1027F0000191FDF75FFF064A064BFDF745FEFDF729
:102800009FFF02900299044800F08EFA04B080BD48
:1028100085EB51B81E4545400044014080B582B06B
:1028200001F022F9019001F01FFC002805D0FFE71C
:102830000120000703490860FFE7019801F054F9FF
:1028400002B080BD04ED00E010B516480168012219
:102850001143016014490B68144C23400B6003685A
:10286000134C2340036003689404A3430360086887
:102870003F231B04984308600E4801680F239943C7
:1028800001600D480168FF235433994301600B48F0
:102890000168914301600A4800210160FFF7F8FEDA
:1028A00010BDC04600100240041002400CB8FFF8F2
:1028B000FFFFF6FE2C1002403010024034100240A0
:1028C0000810024080B52748012100F055F9002882
:1028D00047D0FFE724480168491C01600C20FEF73F
:1028E00099FE002812D0FFE720480188491C01808A
:1028F0000088C92809DBFFE77A4801210170704888
:102900000422027076480170FFE703E017480021B7
:102910000180FFE76A480078032812D1FFE71448D6
:102920000168491C016000681249884207D3FFE72B
:1029300063480021017061480321017000E0FFE756
:102940000AE05F480078022801D1FFE703E0084869
:1029500000210160FFE7FFE70248012100F0C4F811
:10296000FFE780BD00200040AC010020B001002046
:10297000B8010020417E050080B582B0E748012102
:1029800000F0FAF8002800D192E04A4800780128C7
:1029900005D1FFE748480168491C016019E0464835
:1029A0000068042810D3FFE743480068C0087C286B
:1029B0000AD8FFE741480221017041480321017014
:1029C00040481921017000E0FFE73B480021016009
:1029D000FFE73D480078012805D1FFE73B48016843
:1029E000491C016019E039480068042810D3FFE74A
:1029F00036480068C0087C280AD8FFE72F48022123
:102A000001702F48032101702E484221017000E01F
:102A1000FFE72E4800210160FFE70920C0060121E1
:102A20008A0201911146FFF703FB01994840284AA9
:102A30001070107801281ED1FFE726480168491C54
:102A4000016000682549884214D3FFE722480078D6
:102A500000280FD1FFE72248007801280AD0FFE7BD
:102A600020480178012251400170144802701A4830
:102A70000270FFE717E01748006804280CD3FFE74F
:102A800014480068C0087C2806D8FFE70B480221DC
:102A900001700B48017000E0FFE70E480021016063
:102AA0000D480170FFE7DA48012100F01DF8FFE74B
:102AB00002B080BD200100201C0100200C0100207C
:102AC000190100208000002028010020240100209E
:102AD000300100202C010020B2010020D1070000AD
:102AE0000D0100200000002084B00A460346039038
:102AF00002A801800298C0430399088201920093C2
:102B000004B0704784B00A460346039002A80170DF
:102B1000007800280192009306D0FFE7039801880F
:102B200001221143018005E00398018801229143AD
:102B30000180FFE704B0704784B00A460346039063
:102B400002A80170007800280192009308D0FFE7E6
:102B500003984421425A0123DB031A43425206E000
:102B600003984421425A034B1A404252FFE704B0F3
:102B70007047C046FF7F0000B0B587B00A460346E5
:102B8000069005A8018004A80021017003A8018017
:102B900002AC21800699098A059D29400180069989
:102BA0008989059D29402180008800280192009391
:102BB00009D0FFE702A80088002804D0FFE704A896
:102BC0000121017003E004A800210170FFE704A8BF
:102BD000007807B0B0BDB0B586B013460C460546C8
:102BE000059004A8018003A80270007800280293D1
:102BF0000194009506D0FFE7049805998A8902435D
:102C00008A8106E004A8008805998A8982438A811E
:102C1000FFE706B0B0BD0000F0B587B00A46034636
:102C20000690059104A80021018003AC218002AD2B
:102C3000298006990E8C0127BE430E840699098CC3
:102C400021800699898829800699098B018001884D
:102C50007025A943018001880325A94301800599B6
:102C60000988049D0D430580208802218843208027
:102C7000059880890399014321800598408803992C
:102C80000143218006985F498842019200930FD04A
:102C9000FFE70698A24988420AD0FFE70698CD4987
:102CA000884205D0FFE70698E449884227D1FFE72C
:102CB00003A801880822914301800599C989039AD4
:102CC0000A43028001880422914301800599898882
:102CD000039A0A43028002A80188114A1140018028
:102CE0000188104A114001800599098A029A0A4315
:102CF00002800599498A029A0A430280FFE70298F6
:102D00000699888004980699088305988068069932
:102D1000486303980699088407B0F0BD0048014055
:102D2000FFFE0000FFFD000084B00A46034603904A
:102D300002910298039948630192009304B070478E
:102D400085B00A4603460490039102A80021018041
:102D500004990988018004982A49884201920093C5
:102D60000BD0FFE7049801218907884205D0FFE7CF
:102D70000498E14988420BD1FFE702A8018870223C
:102D80009143018003994988029A0A430280FFE730
:102D900004981D4988420BD0FFE702A801881B4A0E
:102DA0001140018003990989029A0A430280FFE7D2
:102DB000029804990880039840680499C8620398AF
:102DC00000880499088504980E4988420FD0FFE7CF
:102DD0000498534988420AD0FFE704987D49884205
:102DE00005D0FFE704989549884205D1FFE703988D
:102DF000807A04990886FFE704980121818205B052
:102E00007047C046002C014000100040FFFC00004D
:102E10000048014080B588B00120010203900846B7
:102E20000399FFF7B5FB05A84721018000214180E8
:102E30000F4A0692018181720E4902900846029A59
:102E400001911146FFF77CFF01980399039AFFF760
:102E5000C2FE04A813210170039941708170FFF72D
:102E60009DFA01980399FFF74DFE08B080BDC0465A
:102E7000A51300000020004010B592B001204104CD
:102E8000079008460799FFF74BFB0798000407993E
:102E9000FFF79AFB0420089008A902220A71032375
:102EA0004B7100238B71CB710924E40606902046F8
:102EB000059204930394FFF70DF803980599049A7B
:102EC000FFF77EF80FA804998172018141804722A3
:102ED0000280F9221092124A029010460299019241
:102EE000FFF72EFF0AA8602101800499C18181812A
:102EF000079A4280069B83801402048241820C91CF
:102F0000019C009020460099FFF786FE01980799E2
:102F1000FFF7F8FD01980799FFF70EFE12B010BDFC
:102F20000040014080B592B001204104079008465E
:102F3000079A06911146FFF7F3FA06980799FFF7EB
:102F400043FB4020109010A8022101710321417120
:102F500000218171C1710922D20605901046059B9E
:102F6000049119460392FEF7B5FF06210522039846
:102F7000FFF726F808A80499817201814180472251
:102F80000280134A0992134A029010460299019254
:102F9000FFF7D6FE0BA8602101800499C1818181D1
:102FA000079A4280042383801302038241820D9199
:102FB000019B009018460099FFF72EFE0198079993
:102FC000FFF7A0FD01980799FFF7B6FD12B080BD8D
:102FD0009D1000000044014080B588B001208104AC
:102FE000039008460399FFF7EFFA05A847210180EF
:102FF00000214180104A0692018181720F4A02909D
:103000001046029B019119460092FFF799FE009825
:103010000399039AFFF7DFFD04A8162101700199B7
:103020004170039A8270FFF7B9F900980399FFF78E
:1030300069FD08B080BDC046E703000000480140BC
:1030400010B594B001208104099008460999FFF752
:1030500067FA022008900999FFF79AFA10200A905F
:103060000AA8089901710322427100228271099B0A
:10307000C3711F4C07902046079906920594FEF7EE
:1030800029FF04200599049008460499099AFEF73F
:1030900097FF11A806998172018141804722028021
:1030A000144A1292144A0390104603990292FFF7B1
:1030B00047FE0CA8602101800699C1818181099A8F
:1030C0004280049B83801402048241820E91029C00
:1030D000019020460199FFF79FFD02980999FFF79B
:1030E00011FD02980999FFF727FD14B010BDC046E5
:1030F000000400480F27000000040040B0B58CB069
:1031000000200B902148224901220A9008460A9982
:10311000FEF7D6FD0A980178FF2913D1FFE71B4877
:103120004078FF280ED1FFE71848192101700521CA
:10313000417017490122099008460999FEF7F5FDEB
:103140000890FFE713480B90022064210790FEF7D8
:1031500023FB00200690FDF749FC0B98FDF7BEFA13
:103160006A46079B93600124E502556007256D03BD
:103170001560A203069C0590204604911146059A0D
:10318000049BFDF771FD0CB0B0BDC04614010020DA
:1031900000F0000800BD1F00F0B59BB01C461546AE
:1031A0000E4607461A901991189217931A98199972
:1031B00009681294119510960F97FDF761FA00288F
:1031C00019D1FFE7002014901A9819990A680E91F6
:1031D00011460D92FDF723F80E994A680C9010469F
:1031E0000D99FDF71CF80C990B9008460B99FDF70B
:1031F0005BF8169067E01A981999179A9200895807
:10320000FDF730FA00283DD1FFE7179840081390EA
:103210000020149017981590FFE715981499401AFC
:10322000022816D3FFE71A981999139A9200895821
:10323000FDF718FA002803D1FFE71398159002E074
:1032400013981490FFE715981499401840081390AC
:10325000E3E71A981999149A92008B1889580A91E1
:103260000993FCF7DCFF09994968089008460A9918
:10327000FCF7D5FF0899079008460799FDF714F861
:1032800016901FE01798401E14901A981999179AD3
:1032900092008B181B1F1B68069119460592049318
:1032A000FCF7BDFF0699059A8B58039018460499C0
:1032B000FCF7B5FF0399029008460299FCF7F4FF6A
:1032C0001690FFE7FFE71898149989004218526892
:1032D0004058019010460199FCF7A1FF1699FCF7A0
:1032E000A6FF0199FCF74AFF1BB0F0BD80B582B084
:1032F00000200190FEF775FCFEF7AAFCFEF737FCF4
:10330000FDF7EAFDFFF79CFEFFF7B6FDFFF70AFEAB
:10331000FFF762FEFFF77EFDFFE70A48007800280E
:1033200001D0FFE7F9E70920C00601214A02009118
:103330001146009AFEF7C2FEFDF7F6FF00F07AFD97
:10334000FFE7FEE70000002080B586B00A4603468E
:10335000059004911C480068029052480068001DC6
:103360000192009300F084FB002801D1FFE700E008
:10337000FFE70298059940180390039849490968A6
:10338000486003980299884208D2FFE71048006815
:1033900044490968091D00F0CBFB12E0F4480068BD
:1033A00040490968091D00F0C3FB039807490968F3
:1033B000884204D2FFE703980449086000E0FFE771
:1033C000FFE706B080BDC046CC0E0020840E002072
:1033D000CC01002080B584B001460390029100F03A
:1033E00003FC47480168491C01602E48006800281A
:1033F0000DD1FFE703982B49086041480068012878
:1034000003D1FFE700F080F900E0FFE714E0264871
:10341000006800280ED1FFE722480068C06A0399BF
:10342000C96A884204D8FFE703981E49086000E093
:10343000FFE700E0FFE7FFE71C480168491C016067
:1034400000680399C8630398C06A194909688842EB
:1034500005D9FFE70398C06A15490860FFE703989C
:10346000C16A14224A43C4498918001D01900846C4
:10347000019900F097FB00F0C1FB0B4800680028A1
:103480000DD0FFE707480068C06A0399C96A8842FF
:1034900003D2FFE700F03EFC00E0FFE700E0FFE7BB
:1034A00004B080BDC0010020AC0E0020440E0020FE
:1034B000480E002080B582B0FFE710480068002861
:1034C00019D0FFE700F090FBA848C068C0680190E1
:1034D0000198001D00F0CCFA09490A68521E0A60E2
:1034E00006490A68521E0A60009000F087FB0198A6
:1034F00000F008F8E1E702B080BDC0463C0E0020B5
:10350000380E002080B582B0014601900198006B12
:10351000009100F07FFB019800F07CFB02B080BDC1
:1035200084B00320800200902348019001A8007815
:10353000400700280ED0FFE70198C01D01900198B8
:1035400007218843019001981B49009A081A101816
:103550000090FFE7019802900298B64908600020A9
:1035600048600299009A89180191019908390191DE
:1035700001990722D243114001910199AE4A11608D
:1035800011684860116808600298039001980399D7
:10359000401A48601068039908600398406807491A
:1035A0000860039840680649086006480121C90779
:1035B000016004B07047C04634020020800E002035
:1035C000780E00204C0E002080B582B0014601909C
:1035D0000091FFE7FFF76EFF67480068022803D3FA
:1035E000FFE700F097FB00E0FFE7F3E7F0B591B0ED
:1035F000199C189D179E169F0A9018460990104610
:103600000890084607900A9806900A9810900F9123
:103610000E920D931899086B0E998900A5220594B6
:10362000049503960297FCF797FD1898006B0E9986
:1036300089004018001F0C900C98072188430C90BB
:103640000F98002820D0FFE700200B90FFE70B9891
:10365000042814D8FFE70F980B99405C189A51186A
:10366000342288540F980B99405C002801D1FFE761
:1036700005E0FFE7FFE70B98401C0B90E7E7189881
:1036800038210022425404E0189834210022425488
:10369000FFE71698052803D3FFE70420169000E003
:1036A000FFE716981899C8621698189948641898F0
:1036B000002181641898001D019100F030FA1898DB
:1036C000183000F02CFA1898006116980521081A95
:1036D000189988611898406218980199C1641898DF
:1036E000502281540C9810990D9A00F091F9189974
:1036F00008601798002804D0FFE718981799086009
:1037000000E0FFE711B0F0BD80B584B00020039069
:10371000FFE7039804280CD8FFE7039814214143DE
:103720001548401800F0E3F9FFE70398401C0390A8
:10373000EFE70B48029000F0DAF90A48019000F038
:10374000D6F9094800F0D3F9084800F0D0F9474805
:10375000029901600748019A026004B080BDC0462A
:10376000500E0020640E0020980E0020B80E00209D
:10377000C4010020CC010020D001002084B001460B
:103780000390A04802900091FFE702980068039917
:10379000884205D2FFE7FFE7029800680290F4E74D
:1037A000029801900198029949684018039988424B
:1037B00009D1FFE70398406802994A6810184860E9
:1037C0000298039000E0FFE70398019001980399A5
:1037D000496840180299096888421AD1FFE702989F
:1037E00000688749096888420DD0FFE702980068A1
:1037F000406803994A681018486002980068006899
:103800000399086004E07E48006803990860FFE7B8
:1038100004E00298006803990860FFE702980399A2
:10382000884204D0FFE703980299086000E0FFE7B0
:1038300004B07047B00E0020C801002081B00B48D2
:1038400000680068002805D1FFE709480021C94346
:10385000016009E005480068C068C06800900098F1
:10386000406803490860FFE701B07047C4010020C9
:10387000840E002081B00020009072B6FFE700980F
:10388000002801D1FFE7FAE701B0704780B58AB0A0
:103890000146099000200590049100F0FFFA584875
:1038A0000068002803D1FFE7FFF73AFE00E0FFE7DA
:1038B0000998F6490968084200D091E00998002863
:1038C00014D0FFE709980830099009A8007840074C
:1038D000002809D0FFE70998072102460A4008217D
:1038E000891A4018099000E0FFE700E0FFE7099817
:1038F000002873D0FFE70998E549096888426DD828
:10390000FFE74048079000680890FFE70898406884
:1039100009990022884203920CD2FFE708980068B8
:10392000012100280290019101D102980190019893
:103930000390FFE70398C007002806D0FFE7089828
:103940000790089800680890E0E708982C490968F3
:10395000884241D0FFE70798006808300590089832
:10396000006807990860089840680999401A11286A
:1039700011D3FFE708980999401806900898406805
:103980000999401A0699486009980899486006986C
:10399000FFF7F4FE00E0FFE708984068BC490A68BA
:1039A000101A0860086818490968884205D2FFE7BC
:1039B000B74800681449086000E0FFE7B3480068B2
:1039C00008994A6802434A600898002101600F483C
:1039D0000168491C016000E0FFE700E0FFE700E04C
:1039E000FFE700F0FFFB05990029009003D1FFE7F6
:1039F00000F064F800E0FFE705980AB080BDC0461B
:103A0000C8010020B00E0020800E00208C0E002087
:103A1000B0B586B013460C46054605900491039256
:103A20000598001F05900598012109060160059879
:103A3000001F05900498059908600598001F0590DF
:103A40000598084901600598143805900398059970
:103A50000860059820380590059802930194009518
:103A600006B0B0BD75380008EFF3108072B670472D
:103A700083B0014602900298006901900298826822
:103A8000406882600298426880684260019840689D
:103A9000029A9042009105D1FFE70298806801994F
:103AA000486000E0FFE70298002101610198016889
:103AB000491E01600198006803B0704772B6FFE7C5
:103AC000FEE784B00A4603460390029172B6019263
:103AD0000093FFE7FEE7000002480168491C01600F
:103AE0007047C046340E002080F31088704782B0C3
:103AF0000146019001980246083242600198002276
:103B0000D3438360019803460833C360019803469A
:103B10000833036101980260009102B0704782B0DF
:103B200001460190019800220261009102B07047A5
:103B300086B00A46034605900491049800680290F6
:103B40000298401C00280192009304D1FFE70598D9
:103B50000069039010E0059808300390FFE7039890
:103B6000406800680299884205D8FFE7FFE703989C
:103B700040680390F3E7FFE70398406804994860C2
:103B800004984168886003980499886004980399B0
:103B9000486005980499086105980168491C01600E
:103BA00006B0704785B00A46034604900391049816
:103BB00040680290029803994860029880680399CF
:103BC0008860039802998968486003980299886020
:103BD00004980399086104980168491C01600192E6
:103BE000009305B07047000072B6F3480168491CA5
:103BF0000160BFF34F8FBFF36F8F7047EE480168CE
:103C0000491E01600068002802D1FFE762B6FFE7A5
:103C10007047C04680B586B001460590059804906F
:103C20000598002802912ED0FFE7049808380490E8
:103C3000049803900398406814490968084220D00A
:103C4000FFE703980068002819D1FFE70F480068D4
:103C500003994A6882434A6000F020F9039840685B
:103C60000B490A68101808600398FFF787FD094898
:103C70000168491C016000F0B5FA019000E0FFE71F
:103C800000E0FFE7FFE706B080BDC0464C0E002015
:103C9000780E0020900E002080B582B00A480021E6
:103CA00001600A4A11600A4909687D22D200019028
:103CB00008461146FCF73AFA401E064908600720FC
:103CC0000199086002B080BD10E000E018E000E05B
:103CD0007C00002014E000E0000000000000000074
:103CE0000B4A13681868203080F30988022080F39B
:103CF0001488BFF36F8F3FBCAE4608BC04BC62B6ED
:103D00001847C046C046C046C046C046C046C0462A
:103D1000C00100200120000703490860BFF34F8F56
:103D2000BFF36F8F7047C04604ED00E080B584B0EC
:103D300001460390002002900398002801910AD0C8
:103D4000FFE700F0ABF803980021FFF7FDFA00F061
:103D500049FA029000E0FFE70298002803D1FFE74C
:103D6000FFF7D8FF00E0FFE704B080BD80B586B064
:103D7000014605900391FFF737FF0598002804D10D
:103D8000FFE77C480068029002E005980290FFE798
:103D9000029804900498001DFFF76AFE002801D1E4
:103DA000FFE700E0FFE70498806A002806D0FFE7FD
:103DB00004981830FFF75CFE019000E0FFE7194817
:103DC0000168491C016004986A49096888420AD15F
:103DD000FFE70498011D1548FFF7E4FE1448016849
:103DE000491C016009E010480168491E01600498FF
:103DF000FFF788FBFFF722FDFFE7FFF7FFFE2648EE
:103E0000006800280BD0FFE70498F449096888424D
:103E100003D1FFE7FFF77EFF00E0FFE7FFE706B013
:103E200080BDC046440E0020380E0020B80E002091
:103E30003C0E002080B584B01448694648600020DC
:103E400008601349134A3C230290084611461A465B
:103E5000029B00F0B3F803900398012812D1FFE70A
:103E600072B6DB480021CA4302600B48012202609F
:103E7000D348016000F082F8002801D0FFE700E09D
:103E8000FFE700E0FFE704B080BDC0467C0E0020E5
:103E9000C93500086C480008AC0E0020C74801680E
:103EA000491C01607047C04680B586B0C3480068B1
:103EB000002804D0FFE7CA480121016057E0C84844
:103EC00000210160C5480068006B05902A480490F5
:103ED00005990968814212D1FFE705984068264993
:103EE00088420CD1FFE7059880682349884206D1B3
:103EF000FFE70598C068204988420AD0FFE7B74825
:103F0000016800683430019008460199FFF7D9FD37
:103F1000FFE7B04800680390FFE70398142141438E
:103F2000AD484058002804D1FFE70398401E039095
:103F3000F3E7039814214143F44840180290029893
:103F4000416849684160029841680830814205D162
:103F5000FFE70298416849684160FFE702984068BE
:103F6000C068EB4908600398E7490860FFE706B0BE
:103F700080BDC046C0010020A5A5A5A580B582B022
:103F80000C480168FF2213041943016001681206FE
:103F900011430160FFF780FE074800210160019195
:103FA000FFF79EFEFFF780FFFFF764FC019802B069
:103FB00080BDC04620ED00E0EC000020F0B593B0DD
:103FC000199C189D1E4617460B9008460A900B98A0
:103FD00009900B981290119110A90A800F930988EB
:103FE00088000894079506960597FFF74FFC0C90FC
:103FF0000C98002811D0FFE75420FFF747FC0E90E3
:104000000E98002804D0FFE70C980E99086303E08F
:104010000C98FFF7FFFDFFE702E000200E90FFE79E
:104020000E98002818D0FFE71298119910AA12884C
:104030000F9B189C199D0E9E6F4604900020F860FF
:10404000BE607D603C600498FFF7D0FA0E98FFF7E1
:10405000C1F901200D9003E00020C0430D90FFE75F
:104060000D9813B0F0BD000080B588B00020059019
:10407000A0480068002800D096E051480168491C1B
:10408000049104990160049800280FD1FFE74D487E
:10409000016803914C490A680260039808604B4824
:1040A0000168491C0160FFF7C9FB00E0FFE70498C5
:1040B00047490968884256D3FFE7FFE7414800684F
:1040C0000068002805D1FFE741480021C94301608D
:1040D00048E03C480068C068C0680790079840689E
:1040E000069004980699884204D2FFE7069838495A
:1040F000086037E0FFE70798001DFFF7B9FC079954
:10410000896A0029029006D0FFE707981830FFF768
:10411000AFFC019000E0FFE70798C06A7A490968A0
:10412000884205D9FFE70798C06A77490860FFE72A
:104130000798C16A14224A4374498918001D0090E7
:1041400008460099FFF72EFD0798C06A7049096874
:10415000C96A884203D3FFE70120059000E0FFE72A
:10416000FFE7ABE7FFE76A480068C06A14214143F4
:1041700066484058022803D3FFE70120059000E07D
:10418000FFE75F480068002803D1FFE7FFF7A4FCC2
:1041900000E0FFE75B480068002803D0FFE701204C
:1041A000059000E0FFE706E055480168491C016002
:1041B000FFF792FCFFE7059808B080BD400E002095
:1041C000CC0E0020C4010020CC010020880E00206D
:1041D000840E0020480E0020D0010020C0010020E5
:1041E000D00E002080B586B0002005900490FFF727
:1041F000FBFC40480168491E01600068002873D13B
:10420000FFE73D48006800286DD0FFE7FFE73B4827
:104210000068002835D0FFE73848C068C0680590BE
:1042200005981830FFF724FC0599091D02900846EF
:10423000FFF71EFC0599C96A334A12689142019042
:1042400005D9FFE70598C06A2F490860FFE7059880
:10425000C16A14224A432D498918001D009008465E
:104260000099FFF79FFC0598C06A29490968C96A47
:10427000884204D3FFE723480121016000E0FFE703
:10428000C5E70598002803D0FFE7FFF7D7FAFFE757
:104290001B48006803900398002817D0FFE7FFE74A
:1042A000FFF7E2FE002804D0FFE716480121016075
:1042B00000E0FFE70398401E0390FFE70398002803
:1042C000EED1FFE70E480021016000E0FFE70D4856
:1042D0000068002805D0FFE701200490FFF71AFDD1
:1042E00000E0FFE7FFE700E0FFE7FFF787FC049847
:1042F00006B080BD400E0020380E0020980E002031
:10430000940E0020D00E0020480E0020D001002086
:10431000C00100202021020C01D010211046020A09
:1043200001D010460839020901D01046091F820841
:1043300001D01046891E420801D0881E7047081A15
:10434000704702E008C8121F08C1002AFAD170475E
:104350007047002001E001C1121F002AFBD1704705
:10436000A470B042713DB1421F05B242CDCCB24201
:104370009A99B3424861B442142EB542C3F5B5428E
:1043800071BDB6423D8AB742EC51B8429A19B94262
:1043900066E6B94214AEBA42C375BB42713DBC4237
:1043A0003D0ABD42ECD1BD429A99BE424861BF422E
:1043B000142EC042C3F5C04271BDC1421F85C24226
:1043C000CD4CC3427B14C44248E1C442F6A8C54266
:1043D000A470C6425238C7420000C842AEC7C842A5
:1043E0005C8FC9420A57CA42B81ECB4266E6CB422E
:1043F00014AECC42C375CD42713DCE421F05CF42B3
:10440000CDCCCF427B94D042295CD142D723D2423B
:1044100085EBD24233B3D342E17AD4428F42D542C4
:104420003D0AD642CDCCD6427B94D742295CD842B5
:10443000D723D94285EBD94233B3DA42C375DB4285
:10444000713DDC421F05DD42CDCCDD425C8FDE429A
:104450000A57DF42B81EE04266E6E042F6A8E142B3
:10446000A470E2425238E342E1FAE3428FC2E442EE
:104470003D8AE542CD4CE6427B14E74229DCE74227
:10448000B89EE8426666E942F628EA42A4F0EA42AB
:1044900033B3EB42E17AEC42713DED421F05EE424F
:1044A000CDCCEE425C8FEF42EC51F0429A19F142D2
:1044B00029DCF142D7A3F2426666F342142EF4429D
:1044C000A4F0F44252B8F542E17AF642713DF74267
:1044D0001F05F842AEC7F8423D8AF9420A57FA4230
:1044E0009A19FB4229DCFB42D7A3FC426666FD42D7
:1044F000F628FE4285EBFE4233B3FF42E13A004329
:10450000299C004371FD0043486101438FC2014370
:10451000D72302431F85024366E60243AE470343A7
:1045200085AB0343CD0C0443146E04435CCF0443BA
:10453000A4300543EC91054333F305437B54064314
:10454000C3B506430A170743527807439AD907436E
:10455000E13A0843299C084371FD0843B85E0943CA
:1045600000C0094348210A438F820A43D7E30A4324
:104570001F450B4366A60B43AE070C43D7630C43A2
:104580001FC50C4366260D43AE870D43F6E80D4369
:104590003D4A0E43F6A80E433D0A0F43856B0F4379
:1045A000CDCC0F43142E10435C8F1043A4F0104366
:1045B0005C4F1143A4B01143EC111243A470124399
:1045C000ECD1124333331343EC91134333F31343CE
:1045D0007B54144333B314437B141543C375154301
:1045E0000000F0C10000E8C10000E0C10000D8C137
:1045F0000000D0C10000C8C10000C0C10000B8C1A7
:104600000000B0C10000A8C10000A0C1000098C116
:10461000000090C1000088C1000080C1000070C18E
:10462000000060C1000050C1000040C1000030C166
:10463000000020C1000010C1000000C10000E0C067
:104640000000C0C00000A0C0000080C0000040C04A
:10465000000000C0000080BF000000000000803F9C
:104660000000004000004040000080400000A040EA
:104670000000C0400000E040000000410000104188
:104680000000204100003041000040410000504146
:10469000000060410000704100008041000088413E
:1046A00000009041000098410000A0410000A84196
:1046B0000000B0410000B8410000C0410000C84106
:1046C0000000D0410000D8410000E0410000E84176
:1046D0000000F0410000F8410000004200000442E8
:1046E0000000084200000C4200001042000014428A
:1046F0000000184200001C4200002042000024423A
:104700000000284200002C420000304200003442E9
:104710000000384200003C42000040420000444299
:104720000000484200004C42000050420000544249
:104730000000584200005C420000604200006442F9
:104740000000684200006C420000704200007442A9
:104750000000784200007C4200008042000082425B
:1047600000008442000086420000884200008A4225
:1047700000008C4200008E420000904200009242F5
:1047800000009442000096420000984200009A42C5
:1047900000009C4200009E420000A0420000A24295
:1047A0000000A4420000A6420000A8420000AA4265
:1047B0000000AC420000AE420000B0420000B24235
:1047C0000000B4420000B6420000B8420000BA4205
:1047D0000000BC420000BE420000C0420000C242D5
:1047E0000000C4420000C6420000C8420000CA42A5
:1047F0000000CC420000CE420000D0420000D24275
:104800000000D4420000D6420000D8420000DA4244
:104810000000DC420000DE420000E0420000E24214
:104820000000E4420000E6420000E8420000EA42E4
:104830000000EC420000EE420000F0420000F242B4
:104840000000F4420000F6420000F8420000FA4284
:104850000000FC420000FE42000000430000014353
:1048600075270008A5270008E127000849444C45A2
:10487000004869676850726F5461736B004D6564DE
:1048800069756D50726F5461736B004C6F77507225
:104890006F5461736B0076496E69745461736B0079
:1048A000C048000800000020F0000000424300085B
:1048B000B0490008F0000020E81100005243000851
:1048C0000100000000C05A4500C05A4500C05A45CA
:1048D00000C05A4500C05A4500C05A4500C05A455C
:1048E00000C05A4500C05A4500C05A4500C05A454C
:1048F00000C05A4500C05A4500C05A4500C05A453C
:1049000000C05A4500C05A4500C05A4500C05A452B
:1049100000C05A4500C05A4500C05A4500C05A451B
:1049200000C05A4500C05A4500C05A4500C05A450B
:1049300000C05A4500C05A4500C05A4500A24A046A
:104940006400000000040048000200000004004869
:104950000001000000000048800000000004004842
:1049600002000000000000480001000000040048B0
:104970000800000000040048400000000004004857
:1049800080000000000400482000000000000048F3
:10499000000200000000004800040000000400487D
:1049A000010000000000004800800000AAAAAAAA96
:04000005080000D51A
:00000001FF
