:020000040800F2
:1000000090050020D5000008011C000865190008B3
:1000100000000000000000000000000000000000E0
:10002000000000000000000000000000B51E0008F5
:100030000000000000000000AF1D0008592000086B
:100040000501000805010008050100080501000878
:100050000501000805010008050100082D1400082D
:100060000000000005010008050100080501000866
:100070000501000805010008050100080000000056
:10008000050100080501000800000000DD2100084E
:100090000501000805010008FD2100080501000810
:1000A0000501000805010008050100080501000818
:1000B0000501000800000000000000000501000824
:1000C0000348854600F086FC004800473D2C0008A8
:1000D000900500200C4880F308880C480168090E40
:1000E0000B4A914205D10B480B4901600B480C4962
:1000F00001600C4880470C480047FEE7FEE7FEE73A
:10010000FEE7FEE7FEE70000900500200400000087
:100110001F00000018100240010000000000014014
:100120000000000011210008C100000830B50B4696
:10013000014600202022012409E00D46D5409D42C1
:1001400005D31D469540491B254695404019154647
:10015000521E002DF1DC30BD70B50024254600286C
:1001600001DA01244042002901DA01254942FFF762
:10017000DDFFAC4200D04042002C00D0494270BDAF
:10018000F8B502464A40D40F42004B0052085B08C3
:100190009A4202D20246084611464A0023D0C30DB5
:1001A0004A00DDB2120EAD1A202D35DA49020126C1
:1001B000490AF6058A19002C00D0524220214F1B13
:1001C0001146B9402A411018C20D9A4221D0002C84
:1001D00017D0012D08DCDA05801AD20F8019D2075A
:1001E000DBB200F05FFBF8BDDA05801A01234000A6
:1001F0001B06C01880185A428018CA0F10434900C5
:1002000007E04908C2071143DA05801A801940083F
:10021000801800F03FFBF8BD61000122511A001B5D
:10022000F7E70122D2075140AAE70122D207504046
:10023000A6E7024670B54A40D30FDB0740002DD039
:100240004A002AD0010E140E000212020919400AB7
:10025000520A8418E50104465443000A120A2E0487
:100260005043A4194219200CC543AA18120C0125A9
:10027000AD03521C521912047F39240400D0521CC1
:10028000104301D44000491EC2B20C06C009201818
:10029000401C4008802A02D003E0002070BD4008C6
:1002A0004000002900DA0020184370BD70B50246F6
:1002B0004A40D50F40004A00ED0740085208002888
:1002C00014D0002A12D0C40DD30D41020120C00564
:1002D0005202490A520AE41A091812187D3491424E
:1002E00001D3641C00E04900002C01DA002070BD3D
:1002F0000023914201D3891A034340084900002892
:10030000F7D100290AD0914202D10121C90705E0A5
:10031000914201D2012101E00121C943E005C01849
:10032000401900F0B7FA70BDF0B5074608465840CE
:1003300087B0C00F049048000E4659004008490895
:10034000BC1A884105D2384631461E4617460B4630
:1003500002465800400810434CD0300D0390400531
:100360005900400D490D0590401A0290402872DA5C
:1003700018030121000B090508430190049800921D
:10038000002805D001995242002088410092019036
:10039000029840210A1A0199009800F047FA054690
:1003A0000C466B4607CB00F062FAC0197141039A04
:1003B0000E0D0023D71756401A467A40164344D0F4
:1003C000049A002A2DD0029A012A039A15DC1205FC
:1003D000C01A914101263605001C7141D20F059EBD
:1003E000D2070093019202962A46234600F0A0FA13
:1003F00007B0F0BD38463146FAE71605224A0F46E7
:10040000B218C01AB74101210905001C4F4100185C
:100410007F41114618187941E20F10436D1964416C
:1004200013E0E2076D0815436408C2071443039AFA
:1004300001261205C01A91413605001C7141CE07F4
:10044000400830434908C01851412A46234600F06D
:1004500062FACDE7FFE7049801224000C117121AA3
:1004600000238B4104983146C417381AA141EEE7A6
:1004700030B40124E407634030BC55E730B40124B4
:10048000E407614030BC4FE70000E0FFF0B51FB467
:1004900088B00B990998002448400999C00F490079
:1004A00049080991C0070B990090490049080B9130
:1004B00009990898A64608431CD00B990A98084346
:1004C00018D0099801244000420D4800410D0998B8
:1004D00024050003000B204309900B980003000B38
:1004E00020430B9050181C494018002201901446DC
:1004F000104605E0002001460DB0F0BD032801DAEA
:10050000034600E003239C46C11A0AAE0AE05F00DE
:1005100008ADED5B4F00F75B7D430027AA187C41D7
:10052000491C5B1E6145F2DD410004AB5A522104B7
:10053000120C0A43240C401C0828DFDB01980290AF
:100540000099704601910090059B049A07990698BE
:1005500000F0EEF9D0E700000DFCFFFFF0B50C460F
:100560005C4085B0E40FE40703944C000026640867
:1005700059009446490802460296224321D0624619
:100580000A431ED06200570D4A000E032303550D87
:10059000012402462C492405781B1B0B360B4018FE
:1005A00023432643614600901C46501AB44103D3AE
:1005B0000098401C009002E0921800985B410028CF
:1005C00003DA0020014605B0F0BD00200121090535
:1005D0000746864611E064461D46141BB54106D306
:1005E0006546521BB341744607430C43A646CD07EC
:1005F00040084908284392185B4105460D43EAD15B
:100600001046184313D060461946504071400843C5
:1006100006D06046101AB34106D20122002306E03C
:1006200000220123DB0702E00122D243531000988D
:1006300074460105381C6141029C039D0019694103
:1006400000F069F9BFE70000FD030000C217C10F09
:10065000504010B54018CA079623002100F022F937
:1006600010BD00000EB5C217C10F5040CA07401898
:100670000021054B0293019200910A460B4600F0BF
:1006800057F903B000BD0000330400000EB5054962
:100690000291002100910A460B46019100F048F9B1
:1006A00003B000BD33040000410040020122400AB3
:1006B000D205090E80187F2901DA0020704796299B
:1006C00003DC9622511AC84070479639884070471B
:1006D00070B5CD0F4A0009030123090B1B0519430F
:1006E0000B4BED070024520D9A4201DA002070BD39
:1006F000074B34339A4203DC9A1A00F0A7F802E061
:100700000449511888402C43F1D0404270BD00008C
:10071000FF030000CDFBFFFF4A0009030123090B83
:100720001B051943094B10B5520D9A4201DA0020FE
:1007300010BD064B34339A4203DC9A1A00F086F857
:1007400010BD03495118884010BD0000FF03000090
:10075000CDFBFFFFC20FD207400040080BD0C10DF8
:100760000723DB01C91840020905400A1143C208EA
:1007700040071143704700200146704710B500291B
:1007800004DB0124E40740428C412146002B04DBBA
:100790001C460123DB075242A3418B4200D1824217
:1007A00010BD000010B5002904DB0124E40740421D
:1007B0008C412146002B04DB1C460123DB075242FF
:1007C000A341994200D1904210BD0000CB0FDB073E
:1007D000490010B5490802460A4307D00A0D07240C
:1007E0000903E401090B121B002A01DC002010BDE3
:1007F000C900440F0C43C100E018D205801800F076
:1008000049F810BD0122D207002800DB101A002988
:1008100000DB511A814270470122D207002800DB19
:10082000101A002900DB511A8842704710B5202A9F
:1008300004DB0146203A9140002010BD9140202366
:100840009C1A0346E3401943904010BD10B5202A7E
:1008500004DB0846203AD040002110BD0B46D340AF
:10086000D0402024A21A91400843194610BD10B56B
:10087000202A06DBCB170846203A1041C1170B434C
:1008800006E00B461341D0402024A21A91400843B1
:10089000194610BD002904DA401C490001D1400866
:1008A0004000704770B40024050C05D110240004EA
:1008B00002D1002921D01124050E01D100020834F3
:1008C000050F01D10001241D850F01D18000A41C5A
:1008D000002801DB4000641C002908D020252E1BC5
:1008E0000D46F540A14000D00121294308430106EF
:1008F0001B1B000ADB1D02D5002070BC7047DB0506
:10090000181880180029F8DA401C4900F5D170BC8D
:1009100040084000704710B5002B08DA0024401C46
:10092000614192185B411A4301D14008400010BD5B
:10093000F0B51FB482B005460C0003D0084602F0A3
:10094000D5F802E002F0D2F82030024600902146AD
:100950002846FFF76BFF049B059A04460F46184391
:100960001143084314D0184610431BD0009840216F
:100970000A1A18460599FFF769FF05460E46009AC0
:1009800005990498FFF752FF084305D0012004E0C1
:100990002046394607B0F0BD0020C11705430E437D
:1009A0002C43374300990E986305401A7905E40AF1
:1009B00000220C43FD0A0A3002D500200146E9E777
:1009C0000105101969410C9C0D9D00196941FFF743
:1009D000A2FFDFE7064C0125064E05E0E36807CCE1
:1009E0002B430C3C98471034B442F7D3FFF76CFB11
:1009F000D0310008F031000870B58C180578401C23
:100A00006B075B0F01D10378401C2A1106D10278D5
:100A1000401C03E006780E70401C491C5B1EF9D197
:100A20002B0705D40023521E0DD40B70491CFAE786
:100A30000378401CCB1A921C03E01D780D70491CF2
:100A40005B1C521EF9D5A142D8D3002070BD0020F6
:100A500001E0411C88B20128FBDB704770B50546F8
:100A60000C462146082000F0C3FC70BD10B50446BA
:100A700001212046FFF7F2FF0121204600F005F892
:100A80000121204600F009F810BD70B505460C465E
:100A90002146062000F0ACFC70BD70B505460C4642
:100AA0002146072000F0A4FC70BD70B506460C4638
:100AB000002501213046FFF7E8FF01213046FFF70E
:100AC000CDFF00213046FFF7C9FF00BF1CE0012029
:100AD000C0032040002804D001213046FFF7DDFF8D
:100AE00003E000213046FFF7D8FFFFF7B0FF0021F9
:100AF0003046FFF7CAFFFFF7AAFF01213046FFF794
:100B0000C4FF6400681CC5B2102DE0DB0121304633
:100B1000FFF7A4FF70BD0000F0B51FB486B0144607
:100B20001D461F491F480291039026462F4600226A
:100B30001D4B30463946FFF711FD06460F4630463D
:100B40003946039B029AFFF7A1FC06460F46304642
:100B50003946FFF7BDFD0190019805900598800486
:100B6000800C059001988013049004988004800CF8
:100B7000049007990598084305900799049808433D
:100B80000490212109020698FFF78FFF0599069826
:100B9000FFF78BFF04990698FFF787FF0BB0F0BDB6
:100BA000CE98ED780826774180842E41F8B5074627
:100BB0000C461546264630462843064631463846FA
:100BC000FFF773FFF8BDFFB581B00C4615461E4612
:100BD00000273846204328433043074639460198CA
:100BE000FFF763FF05B0F0BDF0B51FB40C460A9FD8
:100BF000FF2101310098FFF758FF212109020098D9
:100C0000FFF753FFA1B2039B029A0098FFF784FFFE
:100C10000B9882B2B9B20098FFF7C8FF0120800399
:100C2000844201D1002501E00125ED02032080036B
:100C3000874201D1002601E00126B60233462A464A
:100C40000C990098FFF7BFFF05B0F0BDF0B589B073
:100C500004460E46032E02DA002009B0F0BD2768D4
:100C60002068079000200690002517E0A900605832
:100C70003946FFF7D1FD01D2A8002758A9006058D6
:100C80000799FFF7BFFD02D2A80020580790A800DF
:100C900021580698FFF774FA06906D1CB542E5DB03
:100CA00039460698FFF7BDFA069007990698FFF7B0
:100CB000B8FA0690B01EFFF7D5FC03910290069893
:100CC000FFF748FD01910090039B029AFFF746FC55
:100CD0000591049005990498FFF778FDBDE710B5DC
:100CE0000B460021846A1C43846200BF0C461443F7
:100CF0002146416110BD002904D0826801231A43B6
:100D0000826003E0826802231A43826070470029F0
:100D100004D0C26801231A43C26003E0C2685208CB
:100D20005200C2607047C26802239A43C260C26820
:100D30000A43C2607047000000B593B0394800F024
:100D400077F80121480401F075F80121480201F00B
:100D500091F803200B90032108A801740021C174AD
:100D60000BA90920C00600F070FD0DA800F095F950
:100D700000200D90012108A8017600200F9011900D
:100D8000042012900DA9274800F098F805220121AF
:100D90002448FFF7A4FF052202212248FFF79FFF06
:100DA000204800F055F802211E48FFF7BCFF012142
:100DB0001C48FFF7ACFF01211A48FFF79CFF00BF5A
:100DC0000121184800F062F80028F9D001210846F6
:100DD00001F030F8144800F087FA124840300090D3
:100DE00012480190002002900220039000200490FD
:100DF00080200590400006908000079020200890F9
:100E00000002099000200A906946074800F0D0FAD5
:100E10000121054800F05AFA024800F039F913B0F0
:100E200000BD0000002401400800024038000020FE
:100E300010B504460548844207D10121401501F050
:100E400029F80021601501F025F810BD00240140AB
:100E500030B501460020002200238C680125ED07F3
:100E60002C438C6000BF8C68E30FDB07521C0F24FF
:100E70002403A24201D0002BF5D18C68E40FE407D3
:100E8000002C01D1086C00E0002030BD30B50246D6
:100E900000200023012424060C40002C05D0946877
:100EA00001252D06AC43234600E013681C460C4088
:100EB000002C01D0012000E0002030BD10B5002240
:100EC000C268084B1A400C7964030B6823438C6892
:100ED0002343CC6823430C6923434C6923431A43BF
:100EE000C26010BD03D2FFFFF0B589B000200890AA
:100EF00000270024022000F047FA01287ED14D4847
:100F0000008880B208904B480068070C4A48784334
:100F1000C117090D09180813FFF798FB044620466E
:100F2000FFF718FC454A464B07910690FFF7AEFACB
:100F30000546FFF74BFC434909788900424A505067
:100F40000898FFF7A3FB0546404A414BFFF79EFA7E
:100F50000022404B05910490FFF700FB079106909B
:100F6000FFF734FC3C4908603C493B480068FFF708
:100F70009DF93B49086008460068FFF7EBFB054612
:100F8000324A384BFFF77AFA0591049036493448D3
:100F90000068FFF74EF90190FFF7DCFB05460022E1
:100FA000324BFFF7C1F903910290059B049AFFF7BA
:100FB000D5FA07910690FFF709FC2D4908609F2399
:100FC0002C4A2D492A48006801F0C4FD2B490860CD
:100FD000084600681B4909788900294A50500F21AA
:100FE0001046FFF733FE0590FFF7B4FB0022254BB8
:100FF00007910690FFF73CFA054600E017E0FFF77F
:10100000E5FB214908600F210F48FFF71FFE1F492C
:1010100008600C480078401C0A49087008460078AF
:101020000F2801DD00200870022000F045F909B00A
:10103000F0BD000038000020E40C0000B1E1E995AB
:10104000B28C0740A000002058000020666666664B
:1010500066660A400000B040A40000200000304155
:10106000A8000020666604400000FF4300B06C400A
:10107000AC000020442F0008C42C0008B000002061
:101080002C0100200000F83F9C0000209800002068
:101090008168042211438160704700210160017161
:1010A0008160C160016141617047000010B5214855
:1010B0000078002804D0FFF717FF00201D490870B2
:1010C0001D480078002802D000201B4908701B48EA
:1010D0000078002804D000F07DFD0020174908703A
:1010E00017480078002804D001F090FC0020144933
:1010F000087014480078002806D01348007800F0E3
:1011000029F800200F49087010480078002802D004
:1011100000200E4908700E480078002804D000F026
:101120002DFC00200A49087000F076FC00F040FE1B
:1011300010BD00002D0000202E00002030000020F7
:1011400032000020330000200F0000203400002077
:101150003500002010B50446012C06D0022C29D001
:10116000032C4ED0042C73D173E04E480078002835
:1011700007D10F21012000F04DF9012049490870E5
:101180000EE04848007801280AD1002100F042F919
:1011900000204449087044480078401C42490870C7
:1011A00041480078012804DB0020404908703E498E
:1011B000087074E03B480078002807D10F21012017
:1011C00000F028F90120374908700EE03548007812
:1011D00001280AD1002100F01DF9002031490870D2
:1011E00031480078401C304908702F480078304959
:1011F0000978884204DB00202C4908702A490870CD
:101200004DE028480078002807D10F21012000F088
:1012100001F90120234908700EE0224800780128D6
:101220000AD1002100F0F6F800201E4908701E487F
:101230000078401C1C4908701B4800781D4909783B
:10124000884204DB0020194908701749087026E01D
:1012500024E014480078002807D10F21012000F075
:10126000D9F801200F4908700EE00E4800780128D7
:101270000AD1002100F0CEF800200A4908700A487F
:101280000078401C0849087007480078022804DBF1
:101290000020064908700449087000E000BF00BF44
:1012A00010BD000053000020520000200F0000205D
:1012B0001500002016000020012109070140002927
:1012C00001D101494860704700000240002904D064
:1012D000026801231A43026003E00268014B1A40CE
:1012E00002607047FEFF00000168254A114001605E
:1012F0000021016041608160C1602249884208D1BB
:101300002049083949680F2211431E4A083A5160A2
:1013100035E01C491431884208D11A490839496816
:10132000F0221143174A083A516028E01549283144
:10133000884209D11349083949680F221202114322
:10134000104A083A51601AE00E493C31884209D1EE
:101350000C49083949680F2212031143094A083A17
:1013600051600CE007495031884208D105490839DD
:1013700049680F2212041143024A083A516070472B
:10138000FEFF000008000240014600200022012369
:101390001B070B40002B01D1044B1A6813460B406E
:1013A000002B01D0012000E0002070470000024027
:1013B00010B5002202680D4B1A400C6A8B6823435B
:1013C0000C6923434C6923438C692343CC69234331
:1013D0004C6A23438C6A23431A430260CB68436000
:1013E0000B6883604B68C36010BD00000F80FFFF77
:1013F000F8B504460D46E00005490E58E0004018D7
:1014000087882A463946304600F0A6FAF8BD000023
:10141000C000002070B504460D46A000024A1158D5
:101420002846884770BD0000C431000810B5202050
:1014300000F02CF800280CD020210920C00600F074
:101440006EFA012148400C490870202000F018F87D
:1014500010E0102000F01AF800280BD0102109200D
:10146000C00600F05CFA01214840044908701020D1
:1014700000F006F810BD00000C0000200D00002058
:101480000149486170470000000401400146002006
:10149000044A52690A40002A01D0012000E00020DD
:1014A0007047000000040140002120498279002A91
:1014B00035D00A46126803689A430B461A600A46FA
:1014C000526803689A430B465A60027951180A68B9
:1014D00003681A430A60154A926803689A43134BDB
:1014E0009A601A46D26803689A43104BDA604279D0
:1014F000102A0CD11A46926803681A430B4B9A6063
:101500001A46D26803681A43084BDA600DE00749AF
:10151000427951180A6803681A430A6005E00279A3
:1015200051180A6803689A430A6070470004014032
:1015300030B504460425002000F050F8BFF36F8F4B
:101540000B20000400F098F80546042D17D10E4832
:101550000069022108430C4908610846446100699A
:1015600040210843084908610B20000400F084F87A
:1015700005460548006902218843034908610120A6
:1015800000F02CF8284630BD0020024004200D4910
:10159000C968C907C90F002901D0012010E0094915
:1015A000C96810221140002901D0022008E0054935
:1015B000C96804221140002901D0032000E0042062
:1015C0007047000000200240034800698021084362
:1015D000014908617047000000200240002806D041
:1015E0000649096810221143044A116005E00349C5
:1015F000096810229143014A11607047002002409F
:1016000078B504460D46042600200090FFF7E6FF5B
:10161000BFF36F8F0B20000400F02EF80646042E57
:1016200011D10B480069012108430949086125606F
:101630000B20000400F020F8064605480069400829
:101640004000034908610120FFF7C8FF304678BD1C
:10165000002002400548006980210840002804D08D
:101660000348024948600348486070470020024030
:1016700023016745AB89EFCD10B503460424FFF77E
:1016800085FF044603E0FFF781FF04465B1E012C43
:1016900001D1002BF7D1002B00D10524204610BD2D
:1016A00000B585B00121480400F0C4FB01210846C3
:1016B00000F0E0FB30200390002168460174012116
:1016C000C17403A90920C00600F0BFF8042100205E
:1016D00000F0F2FB0521002000F0EEFB302001902D
:1016E000002168460172102141720121817201A816
:1016F000FFF7DAFE072168460170002141700121E1
:10170000817000F07FFA05B000BD1CB501214804CE
:1017100000F090FB0720C001009001216846017194
:1017200000218171032141710021C17169460920A5
:10173000C00600F08AF8012080020090002168466F
:1017400001710121C17169460920C00600F07DF8D0
:101750001CBD00001CB50121880400F06BFB0122B8
:101760001102114800F0F8F8012251020E4800F071
:10177000F3F80E4800900121684601710021817143
:10178000032141710121C1716946074800F05DF8EC
:10179000012000900021684601710121C171694654
:1017A000014800F052F81CBD00040048EA030000A4
:1017B000F7B505460E4600240027FFF74BFF2F46DE
:1017C00000BF05E03868A10070503F1D601CC4B226
:1017D00002988442F6DBFFF7F7FEFEBDF7B582B054
:1017E00004460F4600250020019000900126A00726
:1017F000800F002802D0032005B0F0BDFFF72AFFBC
:1018000000940098FFF794FE0646042E03D0FFF7DD
:10181000DBFE3046F0E700250FE0A80038580190C5
:1018200001990098FFF7ECFE0646042E00D107E070
:101830000098001D0090681CC5B204988542ECDB3E
:1018400000BFFFF7C1FE3046D6E7F0B50A460021DB
:101850000023002400BF3DE001258D402B46156884
:101860001D402C469C4234D11579012D02D01579AA
:10187000022D16D185684F000326BE40B543856012
:1018800055794E00B54086683543856085880126C8
:101890008E40B5438580858896798E40B6B23543B3
:1018A000858005684F000326BE40B5430560157965
:1018B0004E00B540066835430560C5684F000326F5
:1018C000BE40B543C560D5794E00B540C6683543C6
:1018D000C560491C1029BFD3F0BDF0B5002300241A
:1018E0004D07EE0E1546B5402B46CD10AE00054611
:1018F0002035AD594E07F70E0F26BE40B543CE102A
:10190000B60007462037BD51CD10AE003D46AD595B
:101910001D432C46CD10AD003E467451F0BD02462D
:101920000020138A0B40002B01D0012000E0002092
:101930007047000010B5C300064CE158C3001B19E6
:101940009A888B8A1340002B01D00A8500E08A61B7
:1019500010BD0000C0000020002A01D0816100E01D
:101960000185704700BFFEE710B501210020FFF799
:101970003FFD00210120FFF73BFD10BD10B52149BF
:1019800021480068FEF73EFF03D201201F4908707E
:1019900002E000201D4908701D480078012803D18D
:1019A00002201C4908700AE018480078012803D179
:1019B00000201849087002E00120164908701348F9
:1019C0000078012804D100210846FFF711FD03E04B
:1019D00001210020FFF70CFD0E480078022803D1FA
:1019E0000120FFF7A7FF0BE00A480078012803D188
:1019F0000021FFF7FDFC03E001210846FFF7F8FC9A
:101A000010BD000000004845980000205000002054
:101A10001000002051000020F8B50024002700200D
:101A2000009058480078012802D11920009005E064
:101A300054480078022801D1422000905248007892
:101A400001287BD101210420FFF7D2FC01210320D2
:101A5000FFF7CEFC01210520FFF7CAFC012102207F
:101A6000FFF7C6FC494804687F22D2052146484852
:101A700000F049F90546FEF717FE46490870204672
:101A8000FEF768FE05460022434BFEF78BFE24D28C
:101A9000404800781421484340490988884204DDC1
:101AA00000200099FFF7B6FC15E03A4800781421B1
:101AB00048433A49098888420ADC384800887D2131
:101AC0000901884204DA00210846FFF7A3FC02E07E
:101AD000002032490880012752E02046FEF73AFEF6
:101AE000054600222E4BFEF749FE05D20020009944
:101AF000FFF790FC002743E0012F24D12548007810
:101B00001421484325490988884204DD00200099B2
:101B1000FFF780FC34E01F480078142148431F4938
:101B2000098888420BDC1D4800887D210901884214
:101B300005DA00210846FFF76DFC21E009E00020EE
:101B4000164908801CE000200099FFF763FC00277D
:101B500016E000210420FFF74BFC00210320FFF7D3
:101B600047FC00210520FFF743FC00210220FFF77E
:101B70003FFC00210846FFF74DFC00200749088084
:101B8000F8BD000015000020100000209C0000207F
:101B90006C0100205500002000004340120000208E
:101BA0000080414000B5014600200B0000F0B5FF69
:101BB000060E0406080A0C0E642008E05C2006E00D
:101BC000502004E0412002E0322000E000BF00BFCE
:101BD00000BD000010B5002407480078FFF7E2FFC1
:101BE000044606480078844205D021460220FFF7CB
:101BF00011FC0248047010BD1600002054000020A3
:101C00007047000000218278002A27D0184A032359
:101C10001B02D21803789B109B00D15802789207C0
:101C2000D30EFF229A400B469343194642789207FF
:101C3000120E03789B07DB0E9A4011430C4A0323D4
:101C40001B02D21803789B109B00D1500278D30658
:101C5000DB0E01229A40064B1A6007E00278D30699
:101C6000DB0E01229A40024B80331A60704700005D
:101C700000E100E010B5002819DA1A4A03071B0F2B
:101C8000083B9B089B00D2588307DC0EFF23A34030
:101C90009A438B071B0E8407E40EA3401A43114B93
:101CA0000407240F083CA408A4001A5118E00E4AA7
:101CB00003231B02D21883089B00D2588307DC0E33
:101CC000FF23A3409A438B071B0E8407E40EA34017
:101CD0001A43054B032424021B198408A4001A513B
:101CE00010BD00001CED00E000E100E0F0B505AC27
:101CF00070CC016042608360C46000270761476167
:101D00008561C661F0BDF7B586B004461646E06849
:101D10000799FEF786FA054631462846FEF789FA06
:101D200004906169FEF72CFA6061E1696069FEF771
:101D300073FD02D2E069606106E0A1696069FEF7A7
:101D400061FD01D2A069606128462169FEF769FA48
:101D500031460490FEF7AAFA07463946A068FEF716
:101D600068FA049061696068FEF763FA0290294698
:101D70002068FEF75EFA01900299FEF701FA0390DF
:101D80000499FEF7FDF90590E1690598FEF744FD19
:101D900002D2E069059006E0A1690598FEF732FDE0
:101DA00001D2A06905902561059809B0F0BD704782
:101DB00010B51C480078012832D1002241020920C8
:101DC000C006FFF7C9FD01210020FFF711FB01212B
:101DD0000846FFF70DFB00210420FFF709FB002157
:101DE0000320FFF705FB00210520FFF701FB002181
:101DF0000220FFF7FDFA00210846FFF70BFB002148
:101E0000094800F027FB0021084800F023FB0021CF
:101E1000074800F01FFB00BF024800780028FBD1F4
:101E200010BD0000280000200004004000400140D8
:101E300000440140002905D0054A52690243044B81
:101E40005A6104E0024A52698243014B5A61704769
:101E500000100240002905D0054AD2690243044B14
:101E6000DA6104E0024AD2698243014BDA617047C9
:101E700000100240002905D0054A92690243044B34
:101E80009A6104E0024A92698243014B9A61704769
:101E900000100240002905D0054AD2680243044BD5
:101EA000DA6004E0024AD2688243014BDA6070478C
:101EB000001002407047000030B500228B071C0F55
:101EC0000F23A3401A460B4B8C10A4001B599343BD
:101ED000084C8D10AD00635123468C10A4001B5993
:101EE0008C07250F0446AC402343024C8D10AD00F7
:101EF000635130BD0800014010B500F001F810BD7D
:101F00000CB50020019000902F4800680121084383
:101F10002D49086000BF2C4800680221084000904D
:101F20000198401C01900098002804D10521090364
:101F300001988842EFD12448006802210840002817
:101F400002D00120009001E00020009000980128BC
:101F500039D112201D4908601B4840681A49486061
:101F6000084640684860084640687F21C9038843A6
:101F700015494860084640683921C9030843124999
:101F80004860084600680121090608430E490860B8
:101F900000BF0D4800680121490608400028F8D01C
:101FA0000948406880088000074948600846406842
:101FB000022108430449486000BF034840680C21DF
:101FC00008400828F9D10CBD001002400020024052
:101FD00070B5044600BF64206043054629460248A8
:101FE00000F0BEFA70BD000000040040F1B582B000
:101FF000002001900298FEF749FB04460022064BA0
:10200000FEF744FA0646FEF787FB01900348019964
:1020100000F0A6FAFEBD00000000044000400140B0
:10202000F1B582B0002001900298FEF72FFB044624
:10203000064A074BFEF72AFA0646FEF76DFB0190AB
:102040000448019900F08CFAFEBD0000F6285C8F70
:10205000C2D544400044014010B500F08DFC10BDD5
:10206000F8B50025002400260027244840680C21EC
:1020700008400546002D04D0042D06D0082D2AD195
:1020800007E01F481F49086029E01D481D490860F6
:1020900025E01A4840680F21890408400446174883
:1020A00040680321C90308400646A00C841C002E8A
:1020B00004D115486043134908600BE00F48C06A1B
:1020C0000007000F471C39460D48FEF72FF8604304
:1020D0000C49086003E00A480A49086000BF00BFD5
:1020E00006484068F0210840000908490D5C054891
:1020F0000068E84003490860F8BD00000010024095
:1021000000127A001801002000093D001C01002087
:1021100010B51B48006801210843194908600846AA
:102120004068184908401649486008460068164942
:102130000840134908600846006801218904884363
:102140000F490860084640683F21090488430C494C
:1021500048600846C06A00090001C8620846006B72
:10216000FF2154318843064908630846406B400804
:102170004000486300208860FFF7BEFE10BD0000ED
:10218000001002400CB8FFF8FFFFF6FE10B5FFF795
:1021900067FF7D21C9000E480068FDF7C7FF0446B0
:1021A000601E0C49884201D901200CE0601E0A49DA
:1021B00048610321081FFFF75DFD00200649886183
:1021C000072008610020002801D000BFFEE710BDF5
:1021D00018010020FFFFFF0000E000E010B5012122
:1021E000054800F056F9002805D000F0F9F9012162
:1021F000014800F02BF910BD0020004010B501216E
:10220000814800F046F900287ED0804800780128F7
:1022100020D17F480068401C7D490860084600685E
:102220007D21C900884232D37A48007800282ED117
:1022300079480078401C78490870084600780228E0
:1022400001DD0220087002207449087001207149E4
:1022500008701CE06E480068032813D96C480068B9
:102260007D21C90088420DD26D480078401C6C4920
:10227000087008460078052801DD05200870032055
:102280006649087000206349087061490860654824
:102290000078012820D164480068401C6249086029
:1022A000084600687D21C900884234D35F48007821
:1022B000002830D158480078401E57490870084619
:1022C0000078012801DA01200870012057490870C0
:1022D0000220524908701EE053480068032815D9AF
:1022E000514800687D21C90088420FD24C480078CF
:1022F000401E4B49087008460078012801DA012089
:1023000008700320454900E07DE00870002047493F
:10231000087045490860012189020920C006FFF7BD
:10232000FEFA012148404249087008460078012819
:102330002CD140480068401C3E49086008460068AF
:102340007D21C90088420DD93B480078012809D178
:102350003A480078002805D13749087001203749EC
:10236000087032E0334800687D21C90088422CD9CA
:1023700031480078002828D130480078002824D13E
:1023800001202D4908702D4908701EE02948006879
:10239000032815D9274800687D21C90088420FD23B
:1023A00027480078012806D100202549087004201C
:1023B0001A49087004E00120214908701749087083
:1023C00000201E4908701B4908601D48007801283C
:1023D00012D11C480068401C1A4908600846006871
:1023E000194988420BD90020164908601449087021
:1023F00004200A49087002E0002012490860012107
:10240000014800F023F810BD004801400C000020F6
:10241000000000201C000020150000200F000020FC
:10242000160000200D000020040000201D000020E8
:102430000E00002008000020280000201E000020C0
:102440001000002018000020C0270900CA430282A3
:1024500070470000002904D0028801231A4302803B
:1024600003E00288014B1A4002807047FEFF000023
:10247000002907D04422125A0123DB031A434423C4
:102480001A5205E04422125A53045B0C44221352A0
:10249000704730B50246002000230024158A0D4005
:1024A0002B4695890D402C46002B03D0002C01D0E3
:1024B000012000E0002030BD002A03D083890B43B7
:1024C000838102E083898B438381704770B5002448
:1024D00000220023058C1C4E35400584028C838825
:1024E000048B194D6F3D2C40B51E2C400D882C439C
:1024F000751E2A408D892A434D882A43134DA842D0
:1025000008D0134DA84205D0124DA84202D0124D5A
:10251000A84212D10C4DED1F2A40CD892A430A4D05
:10252000ED1E2A408D882A43074DFF3D2B400B4D61
:102530002B400D8A2B434D8A2B43838004838D6867
:102540004563028470BD0000FEFF0000002C0140C6
:10255000004001400044014000480140FFFD0000F0
:102560004163704700220288154B984206D0012330
:102570009B07984202D0134B984203D1124B1A404A
:102580004B881A43114B984203D0114B1A400B89C8
:102590001A4302804B68C3620B880385084B98423C
:1025A00008D00C4B984205D00B4B984202D00B4BF5
:1025B000984201D18B7A0386012383827047000001
:1025C000002C0140000400408FFF0000001000407C
:1025D000FFFC000000400140004401400048014071
:1025E00010B539480088401C374908800120374918
:1025F000087035490888C10F091849104900411A67
:1026000002D10120324908702F490888C117890F6B
:10261000091889108900411A032902D101202D4986
:102620000870062128480088FDF796FD032902D18D
:102630000120294908700A2123480088FDF78CFDF4
:10264000072902D10120254908701F490888C117B0
:10265000090F091809110901411A0D2902D1012098
:102660001F490870142118480088FDF775FD1129CD
:1026700002D101201B490870282113480088FDF76A
:102680006BFD172902D101201749087064210E48FB
:102690000088FDF761FD2B2902D101201349087044
:1026A000C82109480088FDF757FD3B2902D10120C8
:1026B0000F49087004480088FF219131884202DBED
:1026C00000200149088010BD400000202C0000209F
:1026D0002D0000202E0000202F00002030000020C0
:1026E00031000020320000203300002034000020A0
:1026F000350000201FB501210802FFF7ABFB472181
:10270000684681800021C1800D4802906846818121
:10271000817301A90B48FFF725FF012211460948E3
:10272000FFF7CAFE132168460170012141708170D4
:10273000FFF768FA01210348FFF78CFE1FBD000078
:10274000871300000020004000B58BB00121480431
:10275000FFF770FB01210804FFF78CFB04200190B8
:102760000221684601720321417200218172C17207
:1027700001A90920C006FFF768F8002202210920FC
:10278000C006FFF7AAF8002108A8817268460185F3
:10279000418447210184F920099008A91048FFF7D6
:1027A000E1FE60216846818100214183018301218E
:1027B000C18104210182890181830021C18300201C
:1027C000059003A90648FFF781FE01210448FFF7A1
:1027D00041FE01210248FFF74BFE0BB000BD000097
:1027E0000040014000B58BB001214804FFF722FBF7
:1027F00001214804FFF73EFB40200990022108A870
:1028000001720321417200218172C17209A909205C
:10281000C006FFF71AF8052206210920C006FFF7B7
:102820005CF80021684681738181C18047218180E5
:102830001148029001A91148FFF794FE60216846F3
:1028400001820021C183818301214182042181828F
:1028500089010184002141840020069004A90748D1
:10286000FFF734FE01210548FFF7F4FD012103487D
:10287000FFF7FEFD0BB000BD461000000044014014
:102880001FB501218804FFF7F5FA472168468180CA
:102890000021C1807D20C000029068468181817343
:1028A00001A90B48FFF75EFE012211460848FFF719
:1028B00003FE1621684601700021417001218170DC
:1028C000FFF7A0F901210248FFF7C4FD1FBD00007A
:1028D0000048014000B58BB001218804FFF7AAFA37
:1028E00001210220FFF7B6FA10200190022168466C
:1028F000017203214172002181720121C17201A97B
:102900001948FEF7A2FF012204211748FEF7E5FF50
:10291000002108A881726846018541841349018419
:102920001348099008A91348FFF71CFE6021684668
:1029300081810021418301830121C1810421018220
:10294000890181830021C1830020059003A90948E2
:10295000FFF7BCFD01210748FFF77CFD0121054879
:10296000FFF786FD0BB000BD00040048CF02000059
:102970000F2700000004004004480068002804D02D
:1029800002480068401E014908607047440000206A
:10299000FEB500BF01221A491A48FEF709FF184880
:1029A0000078FF280CD116484078FF2808D119205C
:1029B000134908700520487001221248FEF70EFFE7
:1029C0000F4800787D21490148430F49461864218A
:1029D0000220FEF71FFD0020FEF748F83046FDF705
:1029E00055FE04460B460220810207225203009244
:1029F00001910290224641030020FEF7F5F8FEBD4A
:102A0000B400002000F00008E0FD1C00FEB5002628
:102A10002F4800782F490978884225D02D48007822
:102A2000012821D12C480078401C2B490870084609
:102A300000787D2149014843284946183046FDF772
:102A400025FE04460B460220810207225203009213
:102A500001910290224641030020FEF7C5F80122B1
:102A60001D491F48FEF7BAFE1E4800781E49097826
:102A7000884223D01C48007801281FD10020164925
:102A80000870084600787D214901484313494618DB
:102A90003046FDF7FBFD04460B460220810207226B
:102AA0005203009201910290224641030020FEF75A
:102AB0009BF8012208490A48FEF790FE0548007875
:102AC000034908700848007806490870FEBD0000F8
:102AD000B800002011000020B4000020E0FD1C0020
:102AE00000F00008B9000020140000202021020C92
:102AF00001D010211046020A01D0104608390209FF
:102B000001D01046091F820801D01046891E4208D4
:102B100001D0881E7047081A704730B47446641E8E
:102B20002578641CAB4204D3635D5B00E31830BCC2
:102B300018471D46F8E702E008C8121F08C1002A1E
:102B4000FAD170477047002001E001C1121F002A2E
:102B5000FBD17047FFB585B00C461E46216805982D
:102B6000FDF750FE0FD8002521686068FDF759FB7E
:102B7000029021680598FDF754FB01900299FDF73A
:102B800095FB074644E0B00021580598FDF73AFE52
:102B90002AD270080390002504960EE00398800066
:102BA00021580598FDF72EFE02D20398049000E00C
:102BB000039D04984019400803900498401B012885
:102BC000ECD8AA00A1586A1C9200A058FDF729FB76
:102BD0000290A80021580598FDF723FB0190029967
:102BE000FDF764FB074613E0751E721E9200A158A4
:102BF000B200A058FDF715FB0290701E800021580E
:102C00000598FDF70EFB01900299FDF74FFB074673
:102C1000AB00079AD1586A1C9300079AD058FDF769
:102C200000FB39460190FDF704FBAA0002900798CB
:102C300081580298FDF7A4FA09B0F0BD0EB5FEF771
:102C400064FDFEF787FDFEF72BFDFEF775F8FFF735
:102C500041FEFFF779FDFFF7C5FDFFF711FEFFF716
:102C600049FDFFF793FA00BF0E4800780028FBD11A
:102C7000012251020920C006FEF76EFEFEF774FE27
:102C8000FFF786FE08480949094A0A4B009201915C
:102C90000290094A09490A48FFF728F801E0FEF7BF
:102CA00005FAFCE7280000200000C842000020418F
:102CB000000018420AD7A33C8FC2F53CCDCC4C3F54
:102CC0006C010020A470B042713DB1421F05B242B8
:102CD000CDCCB2429A99B3424861B442142EB54267
:102CE000C3F5B54271BDB6423D8AB742EC51B84218
:102CF0009A19B94266E6B94214AEBA42C375BB42EC
:102D0000713DBC423D0ABD42ECD1BD429A99BE42E2
:102D10004861BF42142EC042C3F5C04271BDC142DA
:102D20001F85C242CD4CC3427B14C44248E1C44219
:102D3000F6A8C542A470C6425238C7420000C84235
:102D4000AEC7C8425C8FC9420A57CA42B81ECB42BE
:102D500066E6CB4214AECC42C375CD42713DCE4245
:102D60001F05CF42CDCCCF427B94D042295CD142CB
:102D7000D723D24285EBD24233B3D342E17AD44255
:102D80008F42D5423D0AD642CDCCD6427B94D74223
:102D9000295CD842D723D94285EBD94233B3DA42F2
:102DA000C375DB42713DDC421F05DD42CDCCDD4207
:102DB0005C8FDE420A57DF42B81EE04266E6E04220
:102DC000F6A8E142A470E2425238E342E1FAE3425B
:102DD0008FC2E4423D8AE542CD4CE6427B14E74295
:102DE00029DCE742B89EE8426666E942F628EA42F4
:102DF000A4F0EA4233B3EB42E17AEC42713DED429A
:102E00001F05EE42CDCCEE425C8FEF42EC51F0421A
:102E10009A19F14229DCF142D7A3F2426666F342E5
:102E2000142EF442A4F0F44252B8F542E17AF6428C
:102E3000713DF7421F05F842AEC7F8423D8AF9429C
:102E40000A57FA429A19FB4229DCFB42D7A3FC42FB
:102E50006666FD42F628FE4285EBFE4233B3FF4232
:102E6000E13A0043299C004371FD0043486101435E
:102E70008FC20143D72302431F85024366E6024304
:102E8000AE47034385AB0343CD0C0443146E0443A8
:102E90005CCF0443A4300543EC91054333F3054371
:102EA0007B540643C3B506430A17074352780743CA
:102EB0009AD90743E13A0843299C084371FD084326
:102EC000B85E094300C0094348210A438F820A4380
:102ED000D7E30A431F450B4366A60B43AE070C43DB
:102EE000D7630C431FC50C4366260D43AE870D43C5
:102EF000F6E80D433D4A0E43F6A80E433D0A0F4344
:102F0000856B0F43CDCC0F43142E10435C8F1043C1
:102F1000A4F010435C4F1143A4B01143EC111243D1
:102F2000A4701243ECD1124333331343EC91134397
:102F300033F313437B54144333B314437B141543CB
:102F4000C37515430000F0C10000E8C10000E0C1F6
:102F50000000D8C10000D0C10000C8C10000C0C13D
:102F60000000B8C10000B0C10000A8C10000A0C1AD
:102F7000000098C1000090C1000088C1000080C11D
:102F8000000070C1000060C1000050C1000040C1DD
:102F9000000030C1000020C1000010C1000000C1CD
:102FA0000000E0C00000C0C00000A0C0000080C061
:102FB000000040C0000000C0000080BF0000000012
:102FC0000000803F000000400000404000008040C2
:102FD0000000A0400000C0400000E04000000041B0
:102FE000000010410000204100003041000040413D
:102FF000000050410000604100007041000080412D
:103000000000884100009041000098410000A0416C
:103010000000A8410000B0410000B8410000C041DC
:103020000000C8410000D0410000D8410000E0414C
:103030000000E8410000F0410000F84100000042BB
:10304000000004420000084200000C420000104250
:10305000000014420000184200001C420000204200
:10306000000024420000284200002C4200003042B0
:10307000000034420000384200003C420000404260
:10308000000044420000484200004C420000504210
:10309000000054420000584200005C4200006042C0
:1030A000000064420000684200006C420000704270
:1030B000000074420000784200007C420000804220
:1030C00000008242000084420000864200008842E4
:1030D00000008A4200008C4200008E4200009042B4
:1030E0000000924200009442000096420000984284
:1030F00000009A4200009C4200009E420000A04254
:103100000000A2420000A4420000A6420000A84223
:103110000000AA420000AC420000AE420000B042F3
:103120000000B2420000B4420000B6420000B842C3
:103130000000BA420000BC420000BE420000C04293
:103140000000C2420000C4420000C6420000C84263
:103150000000CA420000CC420000CE420000D04233
:103160000000D2420000D4420000D6420000D84203
:103170000000DA420000DC420000DE420000E042D3
:103180000000E2420000E4420000E6420000E842A3
:103190000000EA420000EC420000EE420000F04273
:1031A0000000F2420000F4420000F6420000F84243
:1031B0000000FA420000FC420000FE420000004312
:1031C00000000143D11F0008ED1F00082120000866
:1031D000F0310008000000202C010000F809000870
:1031E000403200082C01002064040000462B000837
:1031F00001155B0101083903690B01110317409C9C
:1032000032640C37C05A4504012C120412485A0289
:103210000849A55B48801829172910391819105A30
:1032200008185A400869286A202849311A48142188
:103230002BA24A0649FC00080002030406070809FD
:04000005080000D51A
:00000001FF
