:020000040800F2
:10000000D0040020D5000008B1150008291400080C
:1000100000000000000000000000000000000000E0
:10002000000000000000000000000000A51700080C
:1000300000000000000000009D160008491900089B
:100040000501000805010008050100080501000878
:10005000050100080501000805010008D510000889
:100060000000000005010008050100080501000866
:100070000501000805010008050100080000000056
:100080000501000805010008000000000501000846
:100090000501000805010008CD1A00080501000847
:1000A0000501000805010008050100080501000818
:1000B0000501000800000000000000000501000824
:1000C0000348854600F01EFC00480047A9210008AF
:1000D000D00400200C4880F308880C480168090E01
:1000E0000B4A914205D10B480B4901600B480C4962
:1000F00001600C4880470C480047FEE7FEE7FEE73A
:10010000FEE7FEE7FEE70000D00400200400000048
:100110001F00000018100240010000000000014014
:1001200000000000011A0008C100000830B50B46AD
:10013000014600202022012409E00D46D5409D42C1
:1001400005D31D469540491B254695404019154647
:10015000521E002DF1DC30BDF8B502464A40D40FE6
:1001600042004B0052085B089A4202D202460846FF
:1001700011464A0023D0C30D4A00DDB2120EAD1A5B
:10018000202D35DA49020126490AF6058A19002C84
:1001900000D0524220214F1B1146B9402A4110186D
:1001A000C20D9A4221D0002C17D0012D08DCDA05AF
:1001B000801AD20F8019D207DBB200F00BFBF8BD1A
:1001C000DA05801A012340001B06C01880185A4225
:1001D0008018CA0F1043490007E04908C2071143BD
:1001E000DA05801A80194008801800F0EBFAF8BD93
:1001F00061000122511A001BF7E70122D20751408A
:10020000AAE70122D2075040A6E7024670B54A404D
:10021000D30FDB0740002DD04A002AD0010E140E68
:10022000000212020919400A520A8418E501044624
:100230005443000A120A2E045043A4194219200CF8
:10024000C543AA18120C0125AD03521C5219120401
:100250007F39240400D0521C104301D44000491EB1
:10026000C2B20C06C0092018401C4008802A02D0E7
:1002700003E0002070BD40084000002900DA0020A3
:10028000184370BD70B502464A40D50F40004A0081
:10029000ED0740085208002814D0002A12D0C40DDF
:1002A000D30D41020120C0055202490A520AE41A44
:1002B000091812187D34914201D3641C00E04900F2
:1002C000002C01DA002070BD0023914201D3891A6D
:1002D0000343400849000028F7D100290AD0914281
:1002E00002D10121C90705E0914201D2012101E0BB
:1002F0000121C943E005C018401900F063FA70BD40
:10030000F0B507460846584087B0C00F0490480033
:100310000E46590040084908BC1A884105D23846A3
:1003200031461E4617460B46024658004008104309
:100330004CD0300D039040055900400D490D0590FB
:10034000401A0290402872DA18030121000B0905B7
:100350000843019004980092002805D00199524268
:100360000020884100920190029840210A1A0199C8
:10037000009800F0F3F905460C466B4607CB00F0F9
:100380000EFAC0197141039A0E0D0023D71756407B
:100390001A467A40164344D0049A002A2DD0029A75
:1003A000012A039A15DC1205C01A9141012636056F
:1003B000001C7141D20F059ED20700930192029654
:1003C0002A46234600F04CFA07B0F0BD38463146C5
:1003D000FAE71605224A0F46B218C01AB7410121A2
:1003E0000905001C4F4100187F411146181879413A
:1003F000E20F10436D19644113E0E2076D081543E5
:100400006408C2071443039A01261205C01A9141D9
:100410003605001C7141CE07400830434908C0181A
:1004200051412A46234600F00EFACDE7FFE7049833
:1004300001224000C117121A00238B410498314653
:10044000C417381AA141EEE730B40124E407634031
:1004500030BC55E730B40124E407614030BC4FE7BD
:100460000000E0FFF0B51FB488B00B990998002494
:1004700048400999C00F490049080991C0070B99E4
:100480000090490049080B9109990898A64608432D
:100490001CD00B990A98084318D0099801244000F1
:1004A000420D4800410D099824050003000B20432C
:1004B00009900B980003000B20430B9050181C4927
:1004C0004018002201901446104605E00020014625
:1004D0000DB0F0BD032801DA034600E003239C467B
:1004E000C11A0AAE0AE05F0008ADED5B4F00F75B92
:1004F0007D430027AA187C41491C5B1E6145F2DD43
:10050000410004AB5A522104120C0A43240C401C33
:100510000828DFDB01980290009970460191009055
:10052000059B049A0799069800F09AF9D0E7000015
:100530000DFCFFFFF0B50C465C4085B0E40FE4070E
:1005400003944C000026640859009446490802466A
:100550000296224321D062460A431ED06200570D04
:100560004A000E032303550D012402462C4924059D
:10057000781B1B0B360B4018234326436146009023
:100580001C46501AB44103D30098401C009002E06E
:10059000921800985B41002803DA0020014605B05C
:1005A000F0BD0020012109050746864611E064469A
:1005B0001D46141BB54106D36546521BB341744614
:1005C00007430C43A646CD07400849082843921824
:1005D0005B4105460D43EAD11046184313D06046EF
:1005E000194650407140084306D06046101AB34186
:1005F00006D20122002306E000220123DB0702E0ED
:100600000122D2435310009874460105381C614101
:10061000029C039D0019694100F015F9BFE7000035
:10062000FD030000C217C10F504010B54018CA07A3
:100630009623002100F0CEF810BD10B500229623BD
:10064000114600F0C7F810BD0EB505490291002112
:1006500000910A460B46019100F002F903B000BD7B
:100660003304000070B5CD0F4A0009030123090BC4
:100670001B0519430B4BED070024520D9A4201DA7A
:10068000002070BD074B34339A4203DC9A1A00F005
:1006900075F802E00449511888402C43F1D04042DB
:1006A00070BD0000FF030000CDFBFFFF4A000903FF
:1006B0000123090B1B051943094B10B5520D9A4232
:1006C00001DA002010BD064B34339A4203DC9A1A3B
:1006D00000F054F810BD03495118884010BD0000C7
:1006E000FF030000CDFBFFFFC20FD2074000400810
:1006F0000BD0C10D0723DB01C91840020905400AD0
:100700001143C2084007114370470020014670475B
:10071000CB0FDB07490010B5490802460A4307D052
:100720000A0D07240903E401090B121B002A01DC4E
:10073000002010BDC900440F0C43C100E018D205D1
:10074000801800F03FF810BD0122D207002800DB1E
:10075000101A002900DB511A8142704710B5202A77
:1007600004DB0146203A9140002010BD9140202337
:100770009C1A0346E3401943904010BD10B5202A4F
:1007800004DB0846203AD040002110BD0B46D34080
:10079000D0402024A21A91400843194610BD10B53C
:1007A000202A06DBCB170846203A1041C1170B431D
:1007B00006E00B461341D0402024A21A9140084382
:1007C000194610BD002904DA401C490001D1400837
:1007D0004000704770B40024050C05D110240004BB
:1007E00002D1002921D01124050E01D100020834C4
:1007F000050F01D10001241D850F01D18000A41C2B
:10080000002801DB4000641C002908D020252E1B95
:100810000D46F540A14000D00121294308430106BF
:100820001B1B000ADB1D02D5002070BC7047DB05D6
:10083000181880180029F8DA401C4900F5D170BC5E
:1008400040084000704710B5002B08DA0024401C17
:10085000614192185B411A4301D14008400010BD2C
:10086000F0B51FB482B005460C0003D0084601F075
:1008700001FC02E001F0FEFB203002460090214620
:100880002846FFF76BFF049B059A04460F46184362
:100890001143084314D0184610431BD00098402140
:1008A0000A1A18460599FFF769FF05460E46009A91
:1008B00005990498FFF752FF084305D0012004E092
:1008C0002046394607B0F0BD0020C11705430E434E
:1008D0002C43374300990E986305401A7905E40AC2
:1008E00000220C43FD0A0A3002D500200146E9E748
:1008F0000105101969410C9C0D9D00196941FFF714
:10090000A2FFDFE7064C0125064E05E0E36807CCB1
:100910002B430C3C98471034B442F7D3FFF7D4FB79
:100920003427000854270008002001E0411C88B249
:100930000128FBDB704770B505460C4621460820B0
:1009400000F0AAFB70BD10B5044601212046FFF758
:10095000F2FF0121204600F005F80121204600F0B9
:1009600009F810BD70B505460C462146062000F07A
:1009700093FB70BD70B505460C462146072000F07C
:100980008BFB70BD70B506460C4600250121304634
:10099000FFF7E8FF01213046FFF7CDFF0021304689
:1009A000FFF7C9FF00BF1CE00120C0032040002862
:1009B00004D001213046FFF7DDFF03E0002130467F
:1009C000FFF7D8FFFFF7B0FF00213046FFF7CAFF5F
:1009D000FFF7AAFF01213046FFF7C4FF6400681C3F
:1009E000C5B2102DE0DB01213046FFF7A4FF70BD3A
:1009F000F0B51FB486B014461D461F491F4802912A
:100A0000039026462F4600221D4B30463946FFF7FD
:100A100091FD06460F4630463946039B029AFFF782
:100A200021FD06460F4630463946FFF71BFE019072
:100A30000198059005988004800C0590019880131A
:100A4000049004988004800C04900799059808434A
:100A500005900799049808430490212109020698FB
:100A6000FFF790FF05990698FFF78CFF0499069809
:100A7000FFF788FF0BB0F0BDCE98ED7808267741E0
:100A800080842E41F8B507460C461546264630466A
:100A90002843064631463846FFF774FFF8BDFFB5D8
:100AA00081B00C4615461E46002738462043284391
:100AB0003043074639460198FFF764FF05B0F0BDA3
:100AC000F0B51FB40C460A9FFF2101310098FFF7D3
:100AD00059FF212109020098FFF754FFA1B2039B9F
:100AE000029A0098FFF784FF0B9882B2B9B200987F
:100AF000FFF7C8FF01208003844201D1002501E0F7
:100B00000125ED0203208003874201D1002601E088
:100B10000126B60233462A460C990098FFF7BFFF1C
:100B200005B0F0BD10B50B460021846A1C438462F9
:100B300000BF0C4614432146416110BD002904D07A
:100B4000826801231A43826003E0826802231A4309
:100B500082607047002904D0C26801231A43C26032
:100B600003E0C26852085200C2607047C2680223A4
:100B70009A43C260C2680A43C260704700B593B02E
:100B8000394800F077F80121480400F0CBFD01213D
:100B9000480200F0E7FD03200B90032108A8017430
:100BA0000021C1740BA90920C00600F0B1FB0DA8FB
:100BB00000F05FF900200D90012108A801760020C7
:100BC0000F901190042012900DA9274800F098F87A
:100BD000052201212448FFF7A5FF05220221224812
:100BE000FFF7A0FF204800F055F802211E48FFF74C
:100BF000BDFF01211C48FFF7ADFF01211A48FFF797
:100C00009DFF00BF0121184800F062F80028F9D0CC
:100C10000121084600F086FD144800F0ADF91248A5
:100C20004030009012480190002002900220039072
:100C300000200490802005904000069080000790DE
:100C4000202008900002099000200A906946074879
:100C500000F0F6F90121054800F080F9024800F0A3
:100C600003F913B000BD0000002401400800024059
:100C70003000002010B504460548844207D1012108
:100C8000401500F07FFD0021601500F07BFD10BDD8
:100C90000024014030B501460020002200238C686A
:100CA0000125ED072C438C6000BF8C68E30FDB0748
:100CB000521C0F242403A24201D0002BF5D18C68D2
:100CC000E40FE407002C01D1086C00E0002030BDE7
:100CD00030B5024600200023012424060C40002CDD
:100CE00005D0946801252D06AC43234600E0136827
:100CF0001C460C40002C01D0012000E0002030BD3B
:100D000010B50022C268084B1A400C7964030B68C6
:100D100023438C682343CC6823430C6923434C69E9
:100D200023431A43C26010BD03D2FFFFF0B589B060
:100D3000002007900690022000F06EF901286CD187
:100D40003748008880B2079035480068000C06904C
:100D5000344906984843C117090D09180813FFF7CD
:100D600061FC3149086008460068FFF7BDFC064693
:100D70002E4A2F4BFFF776FB0446FFF7C9FC2A49A2
:100D800008600798FFF760FC06462A4A2A4BFFF7DF
:100D900069FB04460022294BFFF7CCFB0591049028
:100DA000FFF7B6FC26490860264925480068FFF78A
:100DB00069FA2549086008460068FFF795FC044673
:100DC0001C4A224BFFF746FB0391029020491E4824
:100DD0000068FFF71AFA0190FFF786FC044600222C
:100DE0001C4BFFF78DFA0646039B029AFFF7A2FB06
:100DF00005910490FFF78CFC174908609123174A6E
:100E000017491548006801F05BF916490860084663
:100E100000680860022000F097F809B0F0BD0000FB
:100E200030000020E40C00004C000020B1E1E99506
:100E3000B28C07406666666666660A400000B0408F
:100E4000500000200000304154000020666604403D
:100E50000000FF4300B06C4058000020A8240008A8
:100E6000282200085C000020816804221143816070
:100E700070470021016001718160C16001614161C1
:100E8000704710B5FFF752FF00F00AFC00F0D8FAE7
:100E900000F02EFB00F07AFB00F002F810BD00001D
:100EA00010B51F480078012835D11E480068142865
:100EB00011D91D48007800280DD100F039F8012023
:100EC0001949087000201749086018480078401C2C
:100ED0001649087013E01348006814280FD9124807
:100EE000007801280BD100F029F800200E49087085
:100EF0000C4908600D480078401C0C4908700B48EC
:100F0000007804280ADD00200749087007490870A6
:100F10000349087002E000200249086010BD00008B
:100F2000140000200400002046000020470000209C
:100F300010B50021012000F0C1F810BD10B50F213F
:100F4000012000F0BBF810BD012109070140002974
:100F500001D101494860704700000240002904D0D7
:100F6000026801231A43026003E00268014B1A4041
:100F700002607047FEFF00000168254A11400160D1
:100F80000021016041608160C1602249884208D12E
:100F90002049083949680F2211431E4A083A516016
:100FA00035E01C491431884208D11A49083949688A
:100FB000F0221143174A083A516028E015492831B8
:100FC000884209D11349083949680F221202114396
:100FD000104A083A51601AE00E493C31884209D162
:100FE0000C49083949680F2212031143094A083A8B
:100FF00051600CE007495031884208D10549083951
:1010000049680F2212041143024A083A516070479E
:10101000FEFF0000080002400146002000220123DC
:101020001B070B40002B01D1044B1A6813460B40E1
:10103000002B01D0012000E000207047000002409A
:1010400010B5002202680D4B1A400C6A8B682343CE
:101050000C6923434C6923438C692343CC692343A4
:101060004C6A23438C6A23431A430260CB68436073
:101070000B6883604B68C36010BD00000F80FFFFEA
:1010800001B504490098086000BF024800680028C4
:10109000FBD108BD38000020F8B504460D46E0003D
:1010A00005490E58E000401887882A4639463046E0
:1010B00000F0B4F9F8BD00006400002070B50446EB
:1010C0000D46A000024A11582846884770BD00000E
:1010D0002827000810B5202000F040F8002815D07F
:1010E00020210920C00600F07DF901214840154962
:1010F000087020210920C00600F074F90121484041
:1011000011490870202000F023F819E0102000F0A9
:1011100025F8002814D010210920C00600F062F93B
:10112000012148400949087010210920C00600F03B
:1011300059F90121484004490870102000F008F8CE
:1011400010BD00001000002012000020110000203F
:101150000149486170470000000401400146002039
:10116000044A52690A40002A01D0012000E0002010
:101170007047000000040140002120498279002AC4
:1011800035D00A46126803689A430B461A600A462D
:10119000526803689A430B465A60027951180A68EC
:1011A00003681A430A60154A926803689A43134B0E
:1011B0009A601A46D26803689A43104BDA60427903
:1011C000102A0CD11A46926803681A430B4B9A6096
:1011D0001A46D26803681A43084BDA600DE00749E3
:1011E000427951180A6803681A430A6005E00279D7
:1011F00051180A6803689A430A6070470004014066
:1012000000B585B00121480400F08CFA01210846A0
:1012100000F0A8FA302003900021684601740121F3
:10122000C17403A90920C00600F072F8042100204F
:1012300000F0BAFA0521002000F0B6FA3020019043
:10124000002168460172102141720121817201A8BA
:10125000FFF792FF072168460170002141700121CC
:10126000817000F0A7F905B000BD1CB5012148044C
:1012700000F058FA0720C001009001216846017172
:1012800000218171032141710021C171694609204A
:10129000C00600F03DF80120800200900021684661
:1012A00001710121C17169460920C00600F030F8C2
:1012B0001CBD00001CB50121880400F033FA012296
:1012C0001102114800F0AAF8012251020E4800F064
:1012D000A5F80E4800900121684601710021817136
:1012E000032141710121C1716946074800F010F8DE
:1012F000012000900021684601710121C1716946F9
:10130000014800F005F81CBD00040048EA03000095
:10131000F0B50A4600210023002400BF3DE001256E
:101320008D402B4615681D402C469C4234D11579C2
:10133000012D02D01579022D16D185684F000326A4
:10134000BE40B543856055794E00B540866835434B
:101350008560858801268E40B5438580858896798D
:101360008E40B6B23543858005684F000326BE40E7
:10137000B543056015794E00B540066835430560F4
:10138000C5684F000326BE40B543C560D5794E0001
:10139000B540C6683543C560491C1029BFD3F0BDB0
:1013A000F0B5002300244D07EE0E1546B5402B4640
:1013B000CD10AE0005462035AD594E07F70E0F266D
:1013C000BE40B543CE10B60007462037BD51CD1004
:1013D000AE003D46AD591D432C46CD10AD003E46F6
:1013E0007451F0BD02460020138A0B40002B01D03F
:1013F000012000E00020704710B5C300064CE15802
:10140000C3001B199A888B8A1340002B01D00A85D0
:1014100000E08A6110BD000064000020002A01D0B5
:10142000816100E00185704700BFFEE710B5012132
:101430000020FFF731FE00210120FFF72DFE10BD37
:1014400010B5254925480068FFF77EF903D2012031
:101450002349087002E000202149087021480078E3
:10146000012803D10220204908700AE01C480078B6
:10147000012803D100201C49087002E001201A490C
:10148000087017480078012804D100210846FFF7AA
:1014900003FE03E001210020FFF7FEFD1248007863
:1014A00002280CD111480088FF21F531884212DD55
:1014B0000120FFF7A1FF00200C4908800BE00A483B
:1014C0000078012803D10021FFF7E6FD03E00121A8
:1014D0000846FFF7E1FD10BD000048454C00002024
:1014E000440000201C000020450000201A000020BD
:1014F00010B519480078012814D101210420FFF704
:10150000CBFD01210320FFF7C7FD01210520FFF7D7
:10151000C3FD01210220FFF7BFFD64210020FFF77A
:10152000CDFD13E000210420FFF7B6FD00210320CC
:10153000FFF7B2FD00210520FFF7AEFD00210220DC
:10154000FFF7AAFD00210846FFF7B8FD0248007822
:101550000249087010BD00001C0000204900002056
:10156000002009490978002901D164200AE00649D0
:101570000978012901D1552004E00349097802299D
:1015800000D13220704700001D00002010B500245B
:10159000FFF7E6FF044605480078844205D021465F
:1015A0000220FFF78BFD0148047010BD48000020A9
:1015B0007047000000218278002A27D0184A0323B0
:1015C0001B02D21803789B109B00D1580278920717
:1015D000D30EFF229A400B46934319464278920756
:1015E000120E03789B07DB0E9A4011430C4A03232B
:1015F0001B02D21803789B109B00D1500278D306AF
:10160000DB0E01229A40064B1A6007E00278D306EF
:10161000DB0E01229A40024B80331A6070470000B3
:1016200000E100E010B5002819DA1A4A03071B0F81
:10163000083B9B089B00D2588307DC0EFF23A34086
:101640009A438B071B0E8407E40EA3401A43114BE9
:101650000407240F083CA408A4001A5118E00E4AFD
:1016600003231B02D21883089B00D2588307DC0E89
:10167000FF23A3409A438B071B0E8407E40EA3406D
:101680001A43054B032424021B198408A4001A5191
:1016900010BD00001CED00E000E100E0704700001C
:1016A00010B51C480078012832D1002241020920DF
:1016B000C006FFF7B3FE01210020FFF7EDFC01217A
:1016C0000846FFF7E9FC00210420FFF7E5FC0021B4
:1016D0000320FFF7E1FC00210520FFF7DDFC0021DE
:1016E0000220FFF7D9FC00210846FFF7E7FC0021A4
:1016F000094800F0D1FA0021084800F0CDFA002195
:10170000074800F0C9FA00BF024800780028FBD162
:1017100010BD00002C0000200004004000400140EB
:1017200000440140002905D0054A52690243044B98
:101730005A6104E0024A52698243014B5A61704780
:1017400000100240002905D0054AD2690243044B2B
:10175000DA6104E0024AD2698243014BDA617047E0
:1017600000100240002905D0054A92690243044B4B
:101770009A6104E0024A92698243014B9A61704780
:1017800000100240002905D0054AD2680243044BEC
:10179000DA6004E0024AD2688243014BDA607047A3
:1017A000001002407047000030B500228B071C0F6C
:1017B0000F23A3401A460B4B8C10A4001B599343D4
:1017C000084C8D10AD00635123468C10A4001B59AA
:1017D0008C07250F0446AC402343024C8D10AD000E
:1017E000635130BD0800014010B500F001F810BD94
:1017F0000CB50020019000902F480068012108439B
:101800002D49086000BF2C48006802210840009064
:101810000198401C01900098002804D1052109037B
:1018200001988842EFD1244800680221084000282E
:1018300002D00120009001E00020009000980128D3
:1018400039D112201D4908601B4840681A49486078
:10185000084640684860084640687F21C9038843BD
:1018600015494860084640683921C90308431249B0
:101870004860084600680121090608430E490860CF
:1018800000BF0D4800680121490608400028F8D033
:101890000948406880088000074948600846406859
:1018A000022108430449486000BF034840680C21F6
:1018B00008400828F9D10CBD001002400020024069
:1018C00070B5044600BF64206043054629460248BF
:1018D00000F068FA70BD000000040040F1B582B06D
:1018E000002001900298FEF7AFFE04460022064B4E
:1018F000FEF7B8FD0646FEF7D9FE019003480199B0
:1019000000F050FAFEBD000000000440004001401D
:10191000F1B582B0002001900298FEF795FE0446D2
:10192000064A074BFEF79EFD0646FEF7BFFE0190F6
:101930000448019900F036FAFEBD0000F6285C8FDD
:10194000C2D544400044014010B500F087FB10BDF3
:10195000F8B50025002400260027244840680C2103
:1019600008400546002D04D0042D06D0082D2AD1AC
:1019700007E01F481F49086029E01D481D4908600D
:1019800025E01A4840680F2189040840044617489A
:1019900040680321C90308400646A00C841C002EA1
:1019A00004D115486043134908600BE00F48C06A32
:1019B0000007000F471C39460D48FEF7B7FB604390
:1019C0000C49086003E00A480A49086000BF00BFEC
:1019D00006484068F0210840000908490D5C0548A8
:1019E0000068E84003490860F8BD000000100240AC
:1019F00000127A00BC00002000093D00C000002059
:101A000010B51B48006801210843194908600846C1
:101A10004068184908401649486008460068164959
:101A2000084013490860084600680121890488437A
:101A30000F490860084640683F21090488430C4963
:101A400048600846C06A00090001C8620846006B89
:101A5000FF2154318843064908630846406B40081B
:101A60004000486300208860FFF7BEFE10BD000004
:101A7000001002400CB8FFF8FFFFF6FE10B5FFF7AC
:101A800067FF7D21C9000E480068FEF74FFB044642
:101A9000601E0C49884201D901200CE0601E0A49F1
:101AA00048610321081FFFF7BDFD0020064988613A
:101AB000072008610020002801D000BFFEE710BD0C
:101AC000BC000020FFFFFF0000E000E0FEB50024A6
:101AD00001215C4800F0FFF800287DD05A480088BA
:101AE000401C5949088059480068401C5749086003
:101AF00057480078012819D156480068401C5549BC
:101B0000086008460068032815D953480078002863
:101B100011D10120504908705048007801214840F7
:101B20004E49087000204B49086004E000204A49F3
:101B30000870484908604A48007801282FD1494870
:101B40000068401C474908600846006803282BD9F4
:101B500045480078002827D10120434908704348B0
:101B60000078401C414908700846007840494843C5
:101B7000404944182046FEF760FD0746FEF7B4FDD5
:101B800005460B4602208102072252030092019172
:101B900002902A4641030020FEF792FF04E0002055
:101BA000314908702F49086033480078012801D175
:101BB00032490870012189020920C006FFF712FC92
:101BC000012148402E4908700846007801282ED18E
:101BD0002C480068401C00E032E02A4908600846B2
:101BE00000687D21090188420DD927480078012825
:101BF00009D126480078002805D123490870012022
:101C00002249087018E01F4800687D2109018842B8
:101C100012D91D48007800280ED11C4800780028F1
:101C20000AD10120184908701849087004E0002002
:101C300016490870134908600121024800F028F88D
:101C4000FEBD0000004801401A00002004000020F2
:101C500010000020000000201F0000201C000020B9
:101C60001100002008000020200000201E0000209D
:101C70001027000040E81D00120000201400002082
:101C8000130000200C0000202C0000202100002068
:101C9000CA43028270470000002904D00288012351
:101CA0001A43028003E00288014B1A400280704709
:101CB000FEFF0000002907D04422125A0123DB0353
:101CC0001A4344231A5205E04422125A53045B0C6F
:101CD00044221352704730B50246002000230024EE
:101CE000158A0D402B4695890D402C46002B03D0BC
:101CF000002C01D0012000E0002030BD002A03D0DC
:101D000083890B43838102E083898B4383817047FE
:101D100070B5002400220023058C1C4E354005843C
:101D2000028C8388048B194D6F3D2C40B51E2C40CE
:101D30000D882C43751E2A408D892A434D882A43DD
:101D4000134DA84208D0134DA84205D0124DA84209
:101D500002D0124DA84212D10C4DED1F2A40CD8960
:101D60002A430A4DED1E2A408D882A43074DFF3D28
:101D70002B400B4D2B400D8A2B434D8A2B438380E8
:101D800004838D684563028470BD0000FEFF00007F
:101D9000002C014000400140004401400048014047
:101DA000FFFD00004163704700220288154B9842F6
:101DB00006D001239B07984202D0134B984203D1CF
:101DC000124B1A404B881A43114B984203D0114BC7
:101DD0001A400B891A4302804B68C3620B88038543
:101DE000084B984208D00C4B984205D00B4B9842B8
:101DF00002D00B4B984201D18B7A03860123838258
:101E000070470000002C0140000400408FFF0000DC
:101E100000100040FFFC0000004001400044014071
:101E20000048014000B58BB001214804FFF77AFC5F
:101E300001210804FFF796FC042001900221684666
:101E400001720321417200218172C17201A909202E
:101E5000C006FFF75DFA002202210920C006FFF745
:101E60009FFA002108A881726846018541844721B4
:101E70000184F920099008A91048FFF795FF602117
:101E8000684681810021418301830121C1810421B0
:101E90000182890181830021C1830020059003A96B
:101EA0000648FFF735FF01210448FFF7F5FE012141
:101EB0000248FFF7FFFE0BB000BD000000400140EC
:101EC00000B58BB001214804FFF72CFC0121480428
:101ED000FFF748FC40200990022108A80172032165
:101EE000417200218172C17209A90920C006FFF761
:101EF0000FFA052206210920C006FFF751FA00213A
:101F0000684681738181C180472181801148029098
:101F100001A91148FFF748FF6021684601820021AE
:101F2000C18381830121418204218182890101844D
:101F3000002141840020069004A90748FFF7E8FE2D
:101F400001210548FFF7A8FE01210348FFF7B2FE73
:101F50000BB000BD46100000004401401FB5012138
:101F60008804FFF7FFFB4721684681800021C1807C
:101F70000F48029068468181817301A90D48FFF7DF
:101F800013FF01210B48FFF787FE162168460170F9
:101F90000021417001218170FFF70CFB01221146E5
:101FA0000448FFF7ABFE01210248FFF771FE1FBD99
:101FB000E70300000048014000B58BB00121880410
:101FC000FFF7B0FB01210220FFF7BCFB10200190BE
:101FD00002216846017203214172002181720121B0
:101FE000C17201A91948FFF793F90122042117488A
:101FF000FFF7D6F9002108A881726846018541845F
:10200000134901841348099008A91348FFF7CCFE2F
:102010006021684681810021418301830121C181C2
:1020200004210182890181830021C1830020059060
:1020300003A90948FFF76CFE01210748FFF72CFEB2
:1020400001210548FFF736FE0BB000BD0004004833
:10205000CF0200000F270000000400400448006881
:10206000002804D002480068401E014908607047FB
:10207000380000202021020C01D010211046020A55
:1020800001D010460839020901D01046091F820804
:1020900001D01046891E420801D0881E7047081AD8
:1020A000704702E008C8121F08C1002AFAD1704721
:1020B0007047002001E001C1121F002AFBD17047C8
:1020C000FFB585B00C461E4621680598FEF73CFB1F
:1020D0000FD8002521686068FEF78FF8029021680C
:1020E0000598FEF78AF801900299FEF7CBF80746AB
:1020F00044E0B00021580598FEF726FB2AD270086C
:102100000390002504960EE003988000215805985E
:10211000FEF71AFB02D20398049000E0039D049896
:102120004019400803900498401B0128ECD8AA00ED
:10213000A1586A1C9200A058FEF75FF80290A80010
:1021400021580598FEF759F801900299FEF79AF880
:10215000074613E0751E721E9200A158B200A058E7
:10216000FEF74BF80290701E800021580598FEF78C
:1021700044F801900299FEF785F80746AB00079AEC
:10218000D1586A1C9300079AD058FEF736F83946A2
:102190000190FEF73AF8AA00029007988158029839
:1021A000FDF7DAFF09B0F0BD0EB5FFF75EF8FFF7F7
:1021B00081F8FFF725F8FEF7E1FCFFF7FDFEFFF7DA
:1021C00031FEFFF77DFEFFF7C9FEFFF757FC00BFAA
:1021D000134800780028FBD1012251020920C006D3
:1021E000FFF71CF9FFF722F964210220FEF766FFD2
:1021F0000020FEF7A8FB0220810207225203009272
:10220000019102900022074B41031046FEF758FC53
:1022100004E0FEF736FEC820FEF732FFF9E70000C3
:102220002C00002040E83D41A470B042713DB14215
:102230001F05B242CDCCB2429A99B3424861B44232
:10224000142EB542C3F5B54271BDB6423D8AB742C0
:10225000EC51B8429A19B94266E6B94214AEBA4294
:10226000C375BB42713DBC423D0ABD42ECD1BD428B
:102270009A99BE424861BF42142EC042C3F5C04283
:1022800071BDC1421F85C242CD4CC3427B14C442C2
:1022900048E1C442F6A8C542A470C6425238C742BB
:1022A0000000C842AEC7C8425C8FC9420A57CA4242
:1022B000B81ECB4266E6CB4214AECC42C375CD42CB
:1022C000713DCE421F05CF42CDCCCF427B94D04250
:1022D000295CD142D723D24285EBD24233B3D342D9
:1022E000E17AD4428F42D5423D0AD642CDCCD64285
:1022F0007B94D742295CD842D723D94285EBD94277
:1023000033B3DA42C375DB42713DDC421F05DD4267
:10231000CDCCDD425C8FDE420A57DF42B81EE04280
:1023200066E6E042F6A8E142A470E2425238E34297
:10233000E1FAE3428FC2E4423D8AE542CD4CE642F7
:102340007B14E74229DCE742B89EE8426666E94230
:10235000F628EA42A4F0EA4233B3EB42E17AEC42D7
:10236000713DED421F05EE42CDCCEE425C8FEF4257
:10237000EC51F0429A19F14229DCF142D7A3F24222
:102380006666F342142EF442A4F0F44252B8F542C9
:10239000E17AF642713DF7421F05F842AEC7F842B6
:1023A0003D8AF9420A57FA429A19FB4229DCFB425C
:1023B000D7A3FC426666FD42F628FE4285EBFE424C
:1023C00033B3FF42E13A0043299C004371FD0043CF
:1023D000486101438FC20143D72302431F85024353
:1023E00066E60243AE47034385AB0343CD0C04438B
:1023F000146E04435CCF0443A4300543EC910543C1
:1024000033F305437B540643C3B506430A1707431A
:10241000527807439AD90743E13A0843299C084375
:1024200071FD0843B85E094300C0094348210A43CF
:102430008F820A43D7E30A431F450B4366A60B432B
:10244000AE070C43D7630C431FC50C4366260D43F0
:10245000AE870D43F6E80D433D4A0E43F6A80E4302
:102460003D0A0F43856B0F43CDCC0F43142E104311
:102470005C8F1043A4F010435C4F1143A4B0114390
:10248000EC111243A4701243ECD1124333331343C3
:10249000EC91134333F313437B54144333B314438A
:1024A0007B141543C37515430000F0C10000E8C15B
:1024B0000000E0C10000D8C10000D0C10000C8C1C8
:1024C0000000C0C10000B8C10000B0C10000A8C138
:1024D0000000A0C1000098C1000090C1000088C1A8
:1024E000000080C1000070C1000060C1000050C148
:1024F000000040C1000030C1000020C1000010C138
:10250000000000C10000E0C00000C0C00000A0C08A
:10251000000080C0000040C0000000C0000080BF7C
:10252000000000000000803F00000040000040402C
:10253000000080400000A0400000C0400000E040DB
:102540000000004100001041000020410000304127
:102550000000404100005041000060410000704117
:102560000000804100008841000090410000984137
:102570000000A0410000A8410000B0410000B841A7
:102580000000C0410000C8410000D0410000D84117
:102590000000E0410000E8410000F0410000F84187
:1025A00000000042000004420000084200000C420B
:1025B00000001042000014420000184200001C42BB
:1025C00000002042000024420000284200002C426B
:1025D00000003042000034420000384200003C421B
:1025E00000004042000044420000484200004C42CB
:1025F00000005042000054420000584200005C427B
:1026000000006042000064420000684200006C422A
:1026100000007042000074420000784200007C42DA
:102620000000804200008242000084420000864296
:102630000000884200008A4200008C4200008E4266
:102640000000904200009242000094420000964236
:102650000000984200009A4200009C4200009E4206
:102660000000A0420000A2420000A4420000A642D6
:102670000000A8420000AA420000AC420000AE42A6
:102680000000B0420000B2420000B4420000B64276
:102690000000B8420000BA420000BC420000BE4246
:1026A0000000C0420000C2420000C4420000C64216
:1026B0000000C8420000CA420000CC420000CE42E6
:1026C0000000D0420000D2420000D4420000D642B6
:1026D0000000D8420000DA420000DC420000DE4286
:1026E0000000E0420000E2420000E4420000E64256
:1026F0000000E8420000EA420000EC420000EE4226
:102700000000F0420000F2420000F4420000F642F5
:102710000000F8420000FA420000FC420000FE42C5
:102720000000004300000143C1180008DD18000844
:10273000111900085427000800000020D0000000F4
:10274000A220000824280008D00000200004000077
:10275000B22000080000000000000000000000009F
:102760000000000000000000000000000000000069
:102770000002000000000000010000000000000056
:102780000100000000000000409C0000000000006C
:102790000000000000000000000000000000000039
:1027A0000000000000000000000000000000000029
:1027B00000000000000000000004004800020000CB
:1027C00000040048000100000000004880000000F4
:1027D0000004004802000000000000480001000062
:1027E0000004004808000000000400484000000009
:1027F00000040048800000000004004820000000A1
:102800000000004800020000000000480004000032
:1028100000A24A04000000000000000001020304BE
:042820000607080996
:04000005080000D51A
:00000001FF
