:020000040800F2
:10000000C0040020D5000008E11500084D140008C8
:1000100000000000000000000000000000000000E0
:100020000000000000000000000000005117000860
:100030000000000000000000CD160008F5180008C0
:100040000501000805010008050100080501000878
:10005000050100080501000805010008F510000869
:100060000000000005010008050100080501000866
:100070000501000805010008050100080000000056
:100080000501000805010008000000000501000846
:100090000501000805010008791A0008050100089B
:1000A0000501000805010008050100080501000818
:1000B0000501000800000000000000000501000824
:1000C0000348854600F01EFC00480047C120000898
:1000D000C00400200C4880F308880C480168090E11
:1000E0000B4A914205D10B480B4901600B480C4962
:1000F00001600C4880470C480047FEE7FEE7FEE73A
:10010000FEE7FEE7FEE70000C00400200400000058
:100110001F00000018100240010000000000014014
:1001200000000000AD190008C100000830B50B4602
:10013000014600202022012409E00D46D5409D42C1
:1001400005D31D469540491B254695404019154647
:10015000521E002DF1DC30BDF8B502464A40D40FE6
:1001600042004B0052085B089A4202D202460846FF
:1001700011464A0023D0C30D4A00DDB2120EAD1A5B
:10018000202D35DA49020126490AF6058A19002C84
:1001900000D0524220214F1B1146B9402A4110186D
:1001A000C20D9A4221D0002C17D0012D08DCDA05AF
:1001B000801AD20F8019D207DBB200F00BFBF8BD1A
:1001C000DA05801A012340001B06C01880185A4225
:1001D0008018CA0F1043490007E04908C2071143BD
:1001E000DA05801A80194008801800F0EBFAF8BD93
:1001F00061000122511A001BF7E70122D20751408A
:10020000AAE70122D2075040A6E7024670B54A404D
:10021000D30FDB0740002DD04A002AD0010E140E68
:10022000000212020919400A520A8418E501044624
:100230005443000A120A2E045043A4194219200CF8
:10024000C543AA18120C0125AD03521C5219120401
:100250007F39240400D0521C104301D44000491EB1
:10026000C2B20C06C0092018401C4008802A02D0E7
:1002700003E0002070BD40084000002900DA0020A3
:10028000184370BD70B502464A40D50F40004A0081
:10029000ED0740085208002814D0002A12D0C40DDF
:1002A000D30D41020120C0055202490A520AE41A44
:1002B000091812187D34914201D3641C00E04900F2
:1002C000002C01DA002070BD0023914201D3891A6D
:1002D0000343400849000028F7D100290AD0914281
:1002E00002D10121C90705E0914201D2012101E0BB
:1002F0000121C943E005C018401900F063FA70BD40
:10030000F0B507460846584087B0C00F0490480033
:100310000E46590040084908BC1A884105D23846A3
:1003200031461E4617460B46024658004008104309
:100330004CD0300D039040055900400D490D0590FB
:10034000401A0290402872DA18030121000B0905B7
:100350000843019004980092002805D00199524268
:100360000020884100920190029840210A1A0199C8
:10037000009800F0F3F905460C466B4607CB00F0F9
:100380000EFAC0197141039A0E0D0023D71756407B
:100390001A467A40164344D0049A002A2DD0029A75
:1003A000012A039A15DC1205C01A9141012636056F
:1003B000001C7141D20F059ED20700930192029654
:1003C0002A46234600F04CFA07B0F0BD38463146C5
:1003D000FAE71605224A0F46B218C01AB7410121A2
:1003E0000905001C4F4100187F411146181879413A
:1003F000E20F10436D19644113E0E2076D081543E5
:100400006408C2071443039A01261205C01A9141D9
:100410003605001C7141CE07400830434908C0181A
:1004200051412A46234600F00EFACDE7FFE7049833
:1004300001224000C117121A00238B410498314653
:10044000C417381AA141EEE730B40124E407634031
:1004500030BC55E730B40124E407614030BC4FE7BD
:100460000000E0FFF0B51FB488B00B990998002494
:1004700048400999C00F490049080991C0070B99E4
:100480000090490049080B9109990898A64608432D
:100490001CD00B990A98084318D0099801244000F1
:1004A000420D4800410D099824050003000B20432C
:1004B00009900B980003000B20430B9050181C4927
:1004C0004018002201901446104605E00020014625
:1004D0000DB0F0BD032801DA034600E003239C467B
:1004E000C11A0AAE0AE05F0008ADED5B4F00F75B92
:1004F0007D430027AA187C41491C5B1E6145F2DD43
:10050000410004AB5A522104120C0A43240C401C33
:100510000828DFDB01980290009970460191009055
:10052000059B049A0799069800F09AF9D0E7000015
:100530000DFCFFFFF0B50C465C4085B0E40FE4070E
:1005400003944C000026640859009446490802466A
:100550000296224321D062460A431ED06200570D04
:100560004A000E032303550D012402462C4924059D
:10057000781B1B0B360B4018234326436146009023
:100580001C46501AB44103D30098401C009002E06E
:10059000921800985B41002803DA0020014605B05C
:1005A000F0BD0020012109050746864611E064469A
:1005B0001D46141BB54106D36546521BB341744614
:1005C00007430C43A646CD07400849082843921824
:1005D0005B4105460D43EAD11046184313D06046EF
:1005E000194650407140084306D06046101AB34186
:1005F00006D20122002306E000220123DB0702E0ED
:100600000122D2435310009874460105381C614101
:10061000029C039D0019694100F015F9BFE7000035
:10062000FD030000C217C10F504010B54018CA07A3
:100630009623002100F0CEF810BD10B500229623BD
:10064000114600F0C7F810BD0EB505490291002112
:1006500000910A460B46019100F002F903B000BD7B
:100660003304000070B5CD0F4A0009030123090BC4
:100670001B0519430B4BED070024520D9A4201DA7A
:10068000002070BD074B34339A4203DC9A1A00F005
:1006900075F802E00449511888402C43F1D04042DB
:1006A00070BD0000FF030000CDFBFFFF4A000903FF
:1006B0000123090B1B051943094B10B5520D9A4232
:1006C00001DA002010BD064B34339A4203DC9A1A3B
:1006D00000F054F810BD03495118884010BD0000C7
:1006E000FF030000CDFBFFFFC20FD2074000400810
:1006F0000BD0C10D0723DB01C91840020905400AD0
:100700001143C2084007114370470020014670475B
:10071000CB0FDB07490010B5490802460A4307D052
:100720000A0D07240903E401090B121B002A01DC4E
:10073000002010BDC900440F0C43C100E018D205D1
:10074000801800F03FF810BD0122D207002800DB1E
:10075000101A002900DB511A8142704710B5202A77
:1007600004DB0146203A9140002010BD9140202337
:100770009C1A0346E3401943904010BD10B5202A4F
:1007800004DB0846203AD040002110BD0B46D34080
:10079000D0402024A21A91400843194610BD10B53C
:1007A000202A06DBCB170846203A1041C1170B431D
:1007B00006E00B461341D0402024A21A9140084382
:1007C000194610BD002904DA401C490001D1400837
:1007D0004000704770B40024050C05D110240004BB
:1007E00002D1002921D01124050E01D100020834C4
:1007F000050F01D10001241D850F01D18000A41C2B
:10080000002801DB4000641C002908D020252E1B95
:100810000D46F540A14000D00121294308430106BF
:100820001B1B000ADB1D02D5002070BC7047DB05D6
:10083000181880180029F8DA401C4900F5D170BC5E
:1008400040084000704710B5002B08DA0024401C17
:10085000614192185B411A4301D14008400010BD2C
:10086000F0B51FB482B005460C0003D0084601F075
:100870008DFB02E001F08AFB203002460090214609
:100880002846FFF76BFF049B059A04460F46184362
:100890001143084314D0184610431BD00098402140
:1008A0000A1A18460599FFF769FF05460E46009A91
:1008B00005990498FFF752FF084305D0012004E092
:1008C0002046394607B0F0BD0020C11705430E434E
:1008D0002C43374300990E986305401A7905E40AC2
:1008E00000220C43FD0A0A3002D500200146E9E748
:1008F0000105101969410C9C0D9D00196941FFF714
:10090000A2FFDFE7064C0125064E05E0E36807CCB1
:100910002B430C3C98471034B442F7D3FFF7D4FB79
:100920003026000850260008002001E0411C88B253
:100930000128FBDB704770B505460C4621460820B0
:1009400000F0BAFB70BD10B5044601212046FFF748
:10095000F2FF0121204600F005F80121204600F0B9
:1009600009F810BD70B505460C462146062000F07A
:10097000A3FB70BD70B505460C462146072000F06C
:100980009BFB70BD70B506460C4600250121304624
:10099000FFF7E8FF01213046FFF7CDFF0021304689
:1009A000FFF7C9FF00BF1CE00120C0032040002862
:1009B00004D001213046FFF7DDFF03E0002130467F
:1009C000FFF7D8FFFFF7B0FF00213046FFF7CAFF5F
:1009D000FFF7AAFF01213046FFF7C4FF6400681C3F
:1009E000C5B2102DE0DB01213046FFF7A4FF70BD3A
:1009F000F0B51FB486B014461D461F491F4802912A
:100A0000039026462F4600221D4B30463946FFF7FD
:100A100091FD06460F4630463946039B029AFFF782
:100A200021FD06460F4630463946FFF71BFE019072
:100A30000198059005988004800C0590019880131A
:100A4000049004988004800C04900799059808434A
:100A500005900799049808430490212109020698FB
:100A6000FFF790FF05990698FFF78CFF0499069809
:100A7000FFF788FF0BB0F0BDCE98ED7808267741E0
:100A800080842E41F8B507460C461546264630466A
:100A90002843064631463846FFF774FFF8BDFFB5D8
:100AA00081B00C4615461E46002738462043284391
:100AB0003043074639460198FFF764FF05B0F0BDA3
:100AC000F0B51FB40C460A9FFF2101310098FFF7D3
:100AD00059FF212109020098FFF754FFA1B2039B9F
:100AE000029A0098FFF784FF0B9882B2B9B200987F
:100AF000FFF7C8FF01208003844201D1002501E0F7
:100B00000125ED0203208003874201D1002601E088
:100B10000126B60233462A460C990098FFF7BFFF1C
:100B200005B0F0BD10B50B460021846A1C438462F9
:100B300000BF0C4614432146416110BD002904D07A
:100B4000826801231A43826003E0826802231A4309
:100B500082607047002904D0C26801231A43C26032
:100B600003E0C26852085200C2607047C2680223A4
:100B70009A43C260C2680A43C260704700B593B02E
:100B8000394800F077F80121480400F0A1FD012167
:100B9000480200F0BDFD03200B90032108A801745A
:100BA0000021C1740BA90920C00600F0B7FB0DA8F5
:100BB00000F05DF900200D90012108A801760020C9
:100BC0000F901190042012900DA9274800F098F87A
:100BD000052201212448FFF7A5FF05220221224812
:100BE000FFF7A0FF204800F055F802211E48FFF74C
:100BF000BDFF01211C48FFF7ADFF01211A48FFF797
:100C00009DFF00BF0121184800F062F80028F9D0CC
:100C10000121084600F05CFD144800F0ABF91248D1
:100C20004030009012480190002002900220039072
:100C300000200490802005904000069080000790DE
:100C4000202008900002099000200A906946074879
:100C500000F0F4F90121054800F07EF9024800F0A7
:100C600001F913B000BD000000240140080002405B
:100C70002400002010B504460548844207D1012114
:100C8000401500F055FD0021601500F051FD10BD2C
:100C90000024014030B501460020002200238C686A
:100CA0000125ED072C438C6000BF8C68E30FDB0748
:100CB000521C0F242403A24201D0002BF5D18C68D2
:100CC000E40FE407002C01D1086C00E0002030BDE7
:100CD00030B5024600200023012424060C40002CDD
:100CE00005D0946801252D06AC43234600E0136827
:100CF0001C460C40002C01D0012000E0002030BD3B
:100D000010B50022C268084B1A400C7964030B68C6
:100D100023438C682343CC6823430C6923434C69E9
:100D200023431A43C26010BD03D2FFFFF0B589B060
:100D3000002007900690022000F06CF9012868D18D
:100D40003548008880B2079033480068000C069050
:100D5000324906984843C117090D09180813FFF7CF
:100D600061FC2F49086008460068FFF7BDFC064695
:100D70002C4A2D4BFFF776FB0446FFF7C9FC2849A8
:100D800008602A4907984843C117090D0918081334
:100D9000FFF748FC26490860264925480068FFF708
:100DA00071FA04462449FFF76DFA244908600846A1
:100DB0000068FFF799FC0446214A224BFFF74AFBE3
:100DC0000391029020491D480068FFF71EFA019028
:100DD000FFF78AFC04461D4A1D4BFFF791FA0646B1
:100DE000039B029AFFF7A6FB05910490FFF790FC86
:100DF000184908609123184A18491648006801F0FC
:100E0000EBF817490860084600680860022000F007
:100E100099F809B0F0BD000024000020E40C0000A7
:100E200038000020B1E1E995B28C07402C10000099
:100E30003C0000200000304100007A4440000020C7
:100E400005DEC9A7C75604400000FA43AE2AFBAE30
:100E5000089A6C4044000020A423000824210008C4
:100E600048000020816804221143816070470021FE
:100E7000016001718160C16001614161704710B51D
:100E8000FFF754FF00F0BEFA00F0ECFA00F042FB6E
:100E900000F094FB00F002F810BD000010B51F48F0
:100EA0000078012835D11E480068142811D91D4842
:100EB000007800280DD100F039F801201949087098
:100EC00000201749086018480078401C164908702F
:100ED00013E01348006814280FD91248007801283D
:100EE0000BD100F029F800200E4908700C49086069
:100EF0000D480078401C0C4908700B480078042805
:100F00000ADD002007490870074908700349087086
:100F100002E000200249086010BD00000F00002020
:100F200004000020320000203300002010B5002112
:100F3000012000F0D3F810BD10B53221012000F0DF
:100F4000CDF810BD012109070140002901D1014957
:100F50004860704700000240002904D00268012365
:100F60001A43026003E00268014B1A4002607047B6
:100F7000FEFF00000168254A114001600021016068
:100F800041608160C1602249884208D12049083906
:100F900049680F2211431E4A083A516035E01C4946
:100FA0001431884208D11A4908394968F02211439E
:100FB000174A083A516028E015492831884209D17A
:100FC0001349083949680F2212021143104A083A9E
:100FD00051601AE00E493C31884209D10C49083968
:100FE00049680F2212031143094A083A51600CE084
:100FF00007495031884208D10549083949680F220C
:1010000012041143024A083A51607047FEFF000083
:101010000800024001460020002201231B070B406C
:10102000002B01D1044B1A6813460B40002B01D052
:10103000012000E0002070470000024010B50022AF
:1010400002680D4B1A400C6A8B6823430C692343DA
:101050004C6923438C692343CC6923434C6A234363
:101060008C6A23431A430260CB6843600B68836039
:101070004B68C36010BD00000F80FFFF01B504493D
:101080000098086000BF024800680028FBD108BD36
:101090002C000020F8B50446E00006490E58E00098
:1010A000401887883946304600F0A2F905462846A0
:1010B000F8BD000050000020F8B504460D46E000E1
:1010C00005490E58E000401887882A4639463046C0
:1010D00000F0B6F9F8BD00005000002070B50446DD
:1010E0000D46A000024A11582846884770BD0000EE
:1010F0002426000810B5202000F040F8002815D064
:1011000020210920C00600F073F90121484015494B
:10111000087020210920C00600F06AF9012148402A
:1011200011490870202000F023F819E0102000F089
:1011300025F8002814D010210920C00600F058F925
:10114000012148400949087010210920C00600F01B
:101150004FF90121484004490870102000F008F8B8
:1011600010BD00000C0000200E0000200D0000202B
:101170000149486170470000000401400146002019
:10118000044A52690A40002A01D0012000E00020F0
:101190007047000000040140002120498279002AA4
:1011A00035D00A46126803689A430B461A600A460D
:1011B000526803689A430B465A60027951180A68CC
:1011C00003681A430A60154A926803689A43134BEE
:1011D0009A601A46D26803689A43104BDA604279E3
:1011E000102A0CD11A46926803681A430B4B9A6076
:1011F0001A46D26803681A43084BDA600DE00749C3
:10120000427951180A6803681A430A6005E00279B6
:1012100051180A6803689A430A6070470004014045
:1012200000B585B00121480400F052FA01210846BA
:1012300000F06EFA3020039000216846017401210D
:10124000C17403A90920C00600F068F80421002039
:1012500000F080FA0521002000F07CFA3020019097
:10126000002168460172102141720121817201A89A
:10127000FFF792FF072168460170002141700121AC
:10128000817000F0AFF905B000BD1CB50121480424
:1012900000F01EFA0720C00100900121684601718C
:1012A00000218171032141710021C171694609202A
:1012B000C00600F033F8012080020090002168464B
:1012C00001710121C17169460920C00600F026F8AC
:1012D0001CBD00001CB50121880400F0F9F90D487F
:1012E0000090012168460171002181710321417143
:1012F0000121C1716946084800F010F801200090F2
:101300000021684601710121C1716946024800F05F
:1013100005F81CBDEA03000000040048F0B50A46C9
:1013200000210023002400BF3DE001258D402B4615
:1013300015681D402C469C4234D11579012D02D0F0
:101340001579022D16D185684F000326BE40B5439E
:10135000856055794E00B54086683543856085883F
:1013600001268E40B5438580858896798E40B6B239
:101370003543858005684F000326BE40B5430560B0
:1013800015794E00B540066835430560C5684F00C5
:101390000326BE40B543C560D5794E00B540C6684A
:1013A0003543C560491C1029BFD3F0BDF0B50023FB
:1013B00000244D07EE0E1546B5402B46CD10AE006D
:1013C00005462035AD594E07F70E0F26BE40B543F2
:1013D000CE10B60007462037BD51CD10AE003D46B9
:1013E000AD591D432C46CD10AD003E467451F0BDA5
:1013F00002460020138A0B40002B01D0012000E0A0
:101400000020704710B50920FFF744FE0121484035
:101410000149087010BD00004C00002010B5C30049
:10142000064CE158C3001B199A888B8A1340002B85
:1014300001D00A8500E08A6110BD00005000002044
:10144000002A01D0816100E00185704700BFFEE7FE
:1014500010B501210020FFF72FFE00210120FFF72A
:101460002BFE10BD10B5254925480068FFF76CF923
:1014700003D201202349087002E0002021490870AE
:1014800021480078012803D10220204908700AE091
:101490001C480078012803D100201C49087002E094
:1014A00001201A49087017480078012804D100214A
:1014B0000846FFF701FE03E001210020FFF7FCFDD5
:1014C0001248007802280CD111480088FF21F5311C
:1014D000884212DD0120FFF7A1FF00200C4908809F
:1014E0000BE00A480078012803D10021FFF7E4FD52
:1014F00003E001210846FFF7DFFD10BD000048456D
:1015000038000020300000201600002031000020AC
:101510001400002010B51C4800781C490978884246
:1015200030D01A480078012814D101210420FFF797
:10153000C3FD01210320FFF7BFFD01210520FFF7B7
:10154000BBFD01210220FFF7B7FD64210020FFF75A
:10155000C5FD13E000210420FFF7AEFD00210320AC
:10156000FFF7AAFD00210520FFF7A6FD00210220BC
:10157000FFF7A2FD00210846FFF7B0FD0348007801
:101580000149087010BD0000350000201600002041
:10159000002009490978002901D164200AE00649A0
:1015A0000978012901D1552004E00349097802296D
:1015B00000D13220704700001700002010B5002431
:1015C000FFF7E6FF044605480078844205D021462F
:1015D0000220FFF783FD0148047010BD3400002095
:1015E0007047000000218278002A27D0184A032380
:1015F0001B02D21803789B109B00D15802789207E7
:10160000D30EFF229A400B46934319464278920725
:10161000120E03789B07DB0E9A4011430C4A0323FA
:101620001B02D21803789B109B00D1500278D3067E
:10163000DB0E01229A40064B1A6007E00278D306BF
:10164000DB0E01229A40024B80331A607047000083
:1016500000E100E010B5002819DA1A4A03071B0F51
:10166000083B9B089B00D2588307DC0EFF23A34056
:101670009A438B071B0E8407E40EA3401A43114BB9
:101680000407240F083CA408A4001A5118E00E4ACD
:1016900003231B02D21883089B00D2588307DC0E59
:1016A000FF23A3409A438B071B0E8407E40EA3403D
:1016B0001A43054B032424021B198408A4001A5161
:1016C00010BD00001CED00E000E100E070470000EC
:1016D000002905D0054A52690243044B5A6104E0CF
:1016E000024A52698243014B5A617047001002401E
:1016F000002905D0054AD2690243044BDA6104E0AF
:10170000024AD2698243014BDA61704700100240FD
:10171000002905D0054A92690243044B9A6104E00E
:10172000024A92698243014B9A617047001002405D
:10173000002905D0054AD2680243044BDA6004E070
:10174000024AD2688243014BDA60704700100240BF
:101750007047000030B500228B071C0F0F23A340F9
:101760001A460B4B8C10A4001B599343084C8D1048
:10177000AD00635123468C10A4001B598C07250F24
:101780000446AC402343024C8D10AD00635130BD84
:101790000800014010B500F001F810BD0CB50020A4
:1017A000019000902F480068012108432D490860EE
:1017B00000BF2C4800680221084000900198401C9E
:1017C00001900098002804D105210903019888425E
:1017D000EFD12448006802210840002802D00120EF
:1017E000009001E0002000900098012839D11220DB
:1017F0001D4908601B4840681A494860084640680F
:101800004860084640687F21C903884315494860FD
:10181000084640683921C903084312494860084610
:1018200000680121090608430E49086000BF0D4801
:1018300000680121490608400028F8D0094840689E
:101840008008800007494860084640680221084334
:101850000449486000BF034840680C21084008283C
:10186000F9D10CBD001002400020024070B50446C2
:1018700000BF6420604305462946024800F01EFA76
:1018800070BD000000040040F1B582B0002001905E
:101890000298FEF7D9FE04460022064BFEF7E2FD51
:1018A0000646FEF703FF01900348019900F006FA8F
:1018B000FEBD00000000044000200040F1B582B0F1
:1018C000002001900298FEF7BFFE0446064A074B2F
:1018D000FEF7C8FD0646FEF7E9FE019004480199AF
:1018E00000F0ECF9FEBD0000F6285C8FC2D5444044
:1018F0000044014010B500F03DFB10BDF8B50025D7
:10190000002400260027244840680C210840054692
:10191000002D04D0042D06D0082D2AD107E01F4841
:101920001F49086029E01D481D49086025E01A4844
:1019300040680F2189040840044617484068032185
:10194000C90308400646A00C841C002E04D115488B
:101950006043134908600BE00F48C06A0007000F9E
:10196000471C39460D48FEF7E1FB60430C4908600F
:1019700003E00A480A49086000BF00BF0648406803
:10198000F0210840000908490D5C05480068E8405E
:1019900003490860F8BD00000010024000127A0000
:1019A000A800002000093D00AC00002010B51B4835
:1019B0000068012108431949086008464068184931
:1019C000084016494860084600681649084013490F
:1019D0000860084600680121890488430F490860AF
:1019E000084640683F21090488430C49486008467E
:1019F000C06A00090001C8620846006BFF2154312B
:101A00008843064908630846406B40084000486325
:101A100000208860FFF7BEFE10BD000000100240ED
:101A20000CB8FFF8FFFFF6FE10B5FFF767FF7D214A
:101A3000C9000E480068FEF779FB0446601E0C4999
:101A4000884201D901200CE0601E0A494861032147
:101A5000081FFFF7FFFD0020064988610720086185
:101A60000020002801D000BFFEE710BDA800002024
:101A7000FFFFFF0000E000E0FEB5002401213B482D
:101A800000F0B5F800286FD039480088401C38496C
:101A9000088038480068401C36490860364800789D
:101AA000012819D135480068401C344908600846AF
:101AB0000068032815D932480078002811D1012088
:101AC0002F4908702F480078012148402D4908709F
:101AD00000202A49086004E00020294908702749AD
:101AE00008602948007801282FD128480068401C48
:101AF000264908600846006803282BD92448007846
:101B0000002827D101202249087022480078401C73
:101B100020490870084600781F4948431F49441867
:101B20002046FEF78AFD0746FEF7DEFD05460B461A
:101B300002208102072252030092019102902A465C
:101B400041030020FEF7BCFF04E0002010490870AC
:101B50000E49086012480078012801D11149087027
:101B60000121024800F020F8FEBD000000480140BD
:101B700014000020040000200C00002000000020C1
:101B800019000020160000200D0000200800002091
:101B90001A000020180000201027000040E81D0057
:101BA0000E0000200F000020CA4302827047000090
:101BB000002904D0028801231A43028003E002882E
:101BC000014B1A4002807047FEFF0000002907D039
:101BD0004422125A0123DB031A4344231A5205E01C
:101BE0004422125A53045B0C44221352704730B5FE
:101BF0000246002000230024158A0D402B469589BB
:101C00000D402C46002B03D0002C01D0012000E019
:101C1000002030BD002A03D083890B43838102E07A
:101C200083898B438381704770B500240022002391
:101C3000058C1C4E35400584028C8388048B194D1D
:101C40006F3D2C40B51E2C400D882C43751E2A403C
:101C50008D892A434D882A43134DA84208D0134D3D
:101C6000A84205D0124DA84202D0124DA84212D16E
:101C70000C4DED1F2A40CD892A430A4DED1E2A4006
:101C80008D882A43074DFF3D2B400B4D2B400D8A7D
:101C90002B434D8A2B43838004838D6845630284E4
:101CA00070BD0000FEFF0000002C0140004001401C
:101CB0000044014000480140FFFD000041637047BF
:101CC00000220288154B984206D001239B079842B8
:101CD00002D0134B984203D1124B1A404B881A433F
:101CE000114B984203D0114B1A400B891A430280C2
:101CF0004B68C3620B880385084B984208D00C4B95
:101D0000984205D00B4B984202D00B4B984201D120
:101D10008B7A03860123838270470000002C0140E8
:101D2000000400408FFF000000100040FFFC000096
:101D300000400140004401400048014000B58BB024
:101D400001214804FFF7C4FC01210804FFF7E0FC6F
:101D50000420019002216846017203214172002192
:101D60008172C17201A90920C006FFF7D7FA0022CB
:101D700002210920C006FFF719FB002108A8817283
:101D800068460185418447210184F920099008A90A
:101D90001048FFF795FF602168468181002141834B
:101DA00001830121C18104210182890181830021F4
:101DB000C1830020059003A90648FFF735FF0121E4
:101DC0000448FFF7F5FE01210248FFF7FFFE0BB0C4
:101DD00000BD00000040014000B58BB00121480467
:101DE000FFF776FC01214804FFF792FC40200990A0
:101DF000022108A801720321417200218172C1727F
:101E000009A90920C006FFF789FA05220621092041
:101E1000C006FFF7CBFA0021684681738181C1803B
:101E2000472181801148029001A91148FFF748FF1E
:101E30006021684601820021C183818301214182A2
:101E400004218182890101840021418400200690BF
:101E500004A90748FFF7E8FE01210548FFF7A8FE9F
:101E600001210348FFF7B2FE0BB000BD4610000091
:101E7000004401401FB501218804FFF749FC4721B8
:101E8000684681800021C1800F48029068468181A8
:101E9000817301A90D48FFF713FF01210B48FFF7DC
:101EA00087FE162168460170002141700121817072
:101EB000FFF798FB012211460448FFF7ABFE012112
:101EC0000248FFF771FE1FBDE70300000048014014
:101ED00000B58BB001218804FFF7FAFB0121022035
:101EE000FFF706FC102001900221684601720321D1
:101EF0004172002181720121C17201A91948FFF7C5
:101F00000DFA012204211748FFF750FA002108A812
:101F10008172684601854184134901841348099000
:101F200008A91348FFF7CCFE602168468181002193
:101F3000418301830121C1810421018289018183BF
:101F40000021C1830020059003A90948FFF76CFE1A
:101F500001210748FFF72CFE01210548FFF736FE57
:101F60000BB000BD00040048CF0200000F270000A6
:101F70000004004004480068002804D002480068BB
:101F8000401E0149086070472C0000202021020CEF
:101F900001D010211046020A01D01046083902096A
:101FA00001D01046091F820801D01046891E420840
:101FB00001D0881E7047081A704702E008C8121F37
:101FC00008C1002AFAD170477047002001E001C122
:101FD000121F002AFBD17047FFB585B00C461E4684
:101FE00021680598FEF7B0FB0FD8002521686068CE
:101FF000FEF703F9029021680598FEF7FEF80190BC
:102000000299FEF73FF9074644E0B00021580598D1
:10201000FEF79AFB2AD270080390002504960EE082
:102020000398800021580598FEF78EFB02D2039892
:10203000049000E0039D0498401940080390049820
:10204000401B0128ECD8AA00A1586A1C9200A05895
:10205000FEF7D3F80290A80021580598FEF7CDF8B6
:1020600001900299FEF70EF9074613E0751E721EE5
:102070009200A158B200A058FEF7BFF80290701E5F
:10208000800021580598FEF7B8F801900299FEF7F4
:10209000F9F80746AB00079AD1586A1C9300079AD3
:1020A000D058FEF7AAF839460190FEF7AEF8AA001C
:1020B0000290079881580298FEF74EF809B0F0BDDB
:1020C0000EB5FFF7E2F8FFF705F9FFF7A9F8FEF7FD
:1020D00055FDFFF7FDFEFFF731FEFFF77DFEFFF731
:1020E000C9FEFFF7A1FCFFF7B3F964210220FEF758
:1020F000F5FF0020FEF727FC022081020722520391
:102100000092019102900022054B41031046FEF718
:10211000D7FC04E0FEF7B3FEC820FEF7AFFFF9E7F7
:1021200040E83D41A470B042713DB1421F05B2424A
:10213000CDCCB2429A99B3424861B442142EB54212
:10214000C3F5B54271BDB6423D8AB742EC51B842C3
:102150009A19B94266E6B94214AEBA42C375BB4297
:10216000713DBC423D0ABD42ECD1BD429A99BE428E
:102170004861BF42142EC042C3F5C04271BDC14286
:102180001F85C242CD4CC3427B14C44248E1C442C5
:10219000F6A8C542A470C6425238C7420000C842E1
:1021A000AEC7C8425C8FC9420A57CA42B81ECB426A
:1021B00066E6CB4214AECC42C375CD42713DCE42F1
:1021C0001F05CF42CDCCCF427B94D042295CD14277
:1021D000D723D24285EBD24233B3D342E17AD44201
:1021E0008F42D5423D0AD642CDCCD6427B94D742CF
:1021F000295CD842D723D94285EBD94233B3DA429E
:10220000C375DB42713DDC421F05DD42CDCCDD42B2
:102210005C8FDE420A57DF42B81EE04266E6E042CB
:10222000F6A8E142A470E2425238E342E1FAE34206
:102230008FC2E4423D8AE542CD4CE6427B14E74240
:1022400029DCE742B89EE8426666E942F628EA429F
:10225000A4F0EA4233B3EB42E17AEC42713DED4245
:102260001F05EE42CDCCEE425C8FEF42EC51F042C6
:102270009A19F14229DCF142D7A3F2426666F34291
:10228000142EF442A4F0F44252B8F542E17AF64238
:10229000713DF7421F05F842AEC7F8423D8AF94248
:1022A0000A57FA429A19FB4229DCFB42D7A3FC42A7
:1022B0006666FD42F628FE4285EBFE4233B3FF42DE
:1022C000E13A0043299C004371FD0043486101430A
:1022D0008FC20143D72302431F85024366E60243B0
:1022E000AE47034385AB0343CD0C0443146E044354
:1022F0005CCF0443A4300543EC91054333F305431D
:102300007B540643C3B506430A1707435278074375
:102310009AD90743E13A0843299C084371FD0843D1
:10232000B85E094300C0094348210A438F820A432B
:10233000D7E30A431F450B4366A60B43AE070C4386
:10234000D7630C431FC50C4366260D43AE870D4370
:10235000F6E80D433D4A0E43F6A80E433D0A0F43EF
:10236000856B0F43CDCC0F43142E10435C8F10436D
:10237000A4F010435C4F1143A4B01143EC1112437D
:10238000A4701243ECD1124333331343EC91134343
:1023900033F313437B54144333B314437B14154377
:1023A000C37515430000F0C10000E8C10000E0C1A2
:1023B0000000D8C10000D0C10000C8C10000C0C1E9
:1023C0000000B8C10000B0C10000A8C10000A0C159
:1023D000000098C1000090C1000088C1000080C1C9
:1023E000000070C1000060C1000050C1000040C189
:1023F000000030C1000020C1000010C1000000C179
:102400000000E0C00000C0C00000A0C0000080C00C
:10241000000040C0000000C0000080BF00000000BD
:102420000000803F0000004000004040000080406D
:102430000000A0400000C0400000E040000000415B
:1024400000001041000020410000304100004041E8
:1024500000005041000060410000704100008041D8
:102460000000884100009041000098410000A04118
:102470000000A8410000B0410000B8410000C04188
:102480000000C8410000D0410000D8410000E041F8
:102490000000E8410000F0410000F8410000004267
:1024A000000004420000084200000C4200001042FC
:1024B000000014420000184200001C4200002042AC
:1024C000000024420000284200002C42000030425C
:1024D000000034420000384200003C42000040420C
:1024E000000044420000484200004C4200005042BC
:1024F000000054420000584200005C42000060426C
:10250000000064420000684200006C42000070421B
:10251000000074420000784200007C4200008042CB
:10252000000082420000844200008642000088428F
:1025300000008A4200008C4200008E42000090425F
:10254000000092420000944200009642000098422F
:1025500000009A4200009C4200009E420000A042FF
:102560000000A2420000A4420000A6420000A842CF
:102570000000AA420000AC420000AE420000B0429F
:102580000000B2420000B4420000B6420000B8426F
:102590000000BA420000BC420000BE420000C0423F
:1025A0000000C2420000C4420000C6420000C8420F
:1025B0000000CA420000CC420000CE420000D042DF
:1025C0000000D2420000D4420000D6420000D842AF
:1025D0000000DA420000DC420000DE420000E0427F
:1025E0000000E2420000E4420000E6420000E8424F
:1025F0000000EA420000EC420000EE420000F0421F
:102600000000F2420000F4420000F6420000F842EE
:102610000000FA420000FC420000FE4200000043BD
:10262000000001436D18000889180008BD18000853
:102630005026000800000020BC000000BA1F00085F
:102640000C270008BC00002004040000CA1F00087A
:10265000000000000000000000000000000000007A
:102660000000000000000002000000000100000067
:102670000000000000000000409C0000000000007E
:10268000000000000000000000000000000000004A
:10269000000000000000000000000000000000003A
:1026A000000400480002000000040048000100008F
:1026B0000000004880000000000400480200000004
:1026C000000000480001000000040048080000006D
:1026D00000040048400000000004004880000000A2
:1026E0000004004820000000000000480002000034
:1026F000000000480004000000A24A04000000009E
:0C270000000000000102030406070809A5
:04000005080000D51A
:00000001FF
